:020000041000EA
:1000000000B5324B212058609868022188439860DF
:10001000D860186158612E4B002199600221596106
:100020000121F02299502B49196001219960352056
:1000300000F044F80222904214D00621196600F024
:1000400034F8196E01211966002018661A6600F04E
:100050002CF8196E196E196E052000F02FF8012189
:100060000842F9D1002199601B49196000215960AB
:100070001A491B48016001219960EB211966A021F2
:10008000196600F012F800219960164914480160C1
:100090000121996001BC002800D000471248134993
:1000A000086003C880F30888084703B5996A0420EC
:1000B0000142FBD001200142F8D103BD02B5186610
:1000C0001866FFF7F2FF186E186E02BD00000240BE
:1000D000000000180000070000035F00212200005C
:1000E000F4000018222000A00001001008ED00E03C
:1000F00000000000000000000000000074B24E7A12
:1001000000200420F7010010C3010010C5010010F9
:10011000C1010010C1010010C1010010C101001097
:10012000C1010010C1010010C1010010C701001081
:10013000C1010010C1010010C9010010CB01001065
:10014000CD010010CD010010CD010010CD01001037
:10015000CD010010CD010010CD010010CD01001027
:10016000CD010010CD010010CD010010CD01001017
:10017000CD010010CD010010CD010010CD01001007
:10018000CD010010CD010010CD010010CD010010F7
:10019000CD010010CD010010CD010010CD010010E7
:1001A000CD010010CD010010CD010010CD010010D7
:1001B000CD010010CD010010CD010010CD010010C7
:1001C00000BE00BE00BE00BE00BE00BE00F04BF888
:1001D000103800BEF2EB8871CCEA0510ECEA05108D
:1001E0003402001090A31AE700202149086006C8D5
:1001F00081F3088810471F48006800282FD10DA4FC
:100200000ECC002902D000F012F8F9E71A491B4A77
:10021000002000E001C19142FCD1194988471949E9
:1002200088471949884700BEFDE701C901C29A42C3
:10023000FBD37047ECEA0510C00000201422002018
:10024000400C06100000042000000420400C0610A2
:1002500000100420001004200000000070470B482C
:100260000DF08AFE0047EFF30580C0B27047000032
:1002700008ED00E0000000D020220020104F0320F5
:1002800035C300100D0300105DC400105756000068
:1002900006005250ABB36053982B05100600525025
:1002A000861C0302A82B0510060052505422A29D62
:1002B000B42B051005005250DE65F468400C0610A2
:1002C000F8B5C04610B5064C2378002B07D1054B76
:1002D000002B02D0044800E000BF0123237010BDB2
:1002E000282700200000000078260510044B10B5D8
:1002F000002B03D00349044800E000BF10BDC046F6
:10030000000000002C2700207826051070B5192069
:100310000AF09EFDD02380221B0692045A622548D3
:100320000FF06EFD0FF0BCFE23480FF069FD00F0EA
:1003300063F822480FF064FD07F05AF920480FF0E7
:100340005FFD08F025FF1F480FF05AFD07F0E0FBA6
:100350001D480FF055FD0AF037F9002205241B4B0C
:100360001A7006F065FC1A480FF04AFD194D013C61
:10037000210028000FF088FEFA2080000BF0D6FB49
:10038000002CF4D10A200FF0EBFC012200211248CE
:100390000BF03AF8114812F09BFB0122104B114C64
:1003A0001A702378012BFCD109F0AEF82378012BC9
:1003B000FAD0F6E778260510882605109426051051
:1003C000A0260510B0260510C0260510F84E032003
:1003D000D0260510DC260510CC4D03204D970010CB
:1003E000F74E0320FC4E032010B5024812F098FE91
:1003F00010BDC046382D0320092370B586B0059383
:1004000004330493023B0393013B0293023B324DBE
:10041000324C0193324B22003249334800932B0077
:1004200006F0C4F8142006F0BDF8FA2080000BF0A6
:100430007DFB2E4E21003200280006F0CFFA3378E3
:10044000682B08D02A4C20000FF0DAFCFA2080003C
:100450000BF06CFBF7E773783D2BF3D10122210001
:10046000280006F0DFFA234E32002100280006F0B3
:1004700013FB3378002BF7D101222100280006F06E
:100480008FF90121200006F06DF90321200006F00C
:10049000FFF80321280006F029FA1321200006F0B6
:1004A00069FB1221200006F0A3FB0021200006F0CA
:1004B00081FB0321200006F00BFB0221200006F047
:1004C00023FB5521200006F001F91821280006F031
:1004D000A7F906B070BDC046E414032058280020D8
:1004E00040420F00D4150020CC150020AC4E032054
:1004F000F02605100E4F0320F0B5C646334C344DA0
:10050000344E22002900300000B506F079FA6378F5
:10051000DB439B0720D023781B0702D480BCB8465E
:10052000F0BD2D4C0622002120000FF0E7FA21003B
:10053000300006F035FA0023E05E06F09FF8274D04
:1005400028600223E05E06F099F868600423E05E0C
:1005500006F094F8A860E1E7214B062298461800BF
:1005600000210FF0CBFA1F4F0622002138000FF0B8
:10057000C5FA4146280006F0F5F93900280006F0D2
:10058000D3F943460020185E06F064F84346164D42
:1005900028600220185E06F05DF84346686004207B
:1005A000185E06F057F8A8600023F85E06F05CF8C5
:1005B0000E4D28600223F85E06F056F868600423AA
:1005C000F85E06F051F8A860A5E7C046E0430320B6
:1005D00058280020E4140320A8330320EC3803201B
:1005E00098330320A03303203032032050320320FD
:1005F000F0B55746DE464E464546E0B58BB008910D
:100600009246190005900993DA1703238C4613408C
:1006100063449B109B009846002B00DC90E0524600
:10062000159B00249B000193149B9B1A159A9B1AFF
:10063000089A9B000293536812681901944604912A
:10064000069251469A00039252468D000021013ACB
:1006500092000792002289465900DE00CB189B00C9
:100660009B461300424665440092019A94469C447E
:10067000039B1A199F195346002B1EDD069B0598F4
:1006800019196346804600989B00434480460094B5
:10069000086818600098081A845804315C6084590E
:1006A0009C60C059D86010338D42F1D14346079900
:1006B000009363468C4604339C440421029B5A44B5
:1006C00063448C461400049A3E00E1449446009A28
:1006D0005E4465444A45C8DC1A00009B9846099B65
:1006E000434526DD1499159C089B0D1B514609CBEB
:1006F0006D1A00291DDD41469E004B439B00C0182A
:1007000053469C00059B47469C46099BAB46984632
:10071000159B994600234A4491006144C558CD5029
:1007200004339C42FAD1524401375A448019B845E7
:10073000F0D10BB0F0BCBB46B246A946A046F0BD16
:100740000022CCE7F0B54746CE4680B51F00002B0F
:100750001DDD002A1BDD9300C0180B68002498469D
:100760004B689100D200494252428C4691469B0010
:10077000614645182900A20042441668D21840C1BB
:100780008142FAD14A460134A81AA742F0D1C0BC2E
:10079000B946B046F0BDC046F0B5DE464E465746B7
:1007A00045460023E0B5136083688BB004930523AE
:1007B0009B4600235E46099202680293013B079024
:1007C0000691039208930523049C9B1B5C43984667
:1007D000029BA4009C46039B64449C46644423689B
:1007E0005D0063686D085F007F08291C381C0EF0EF
:1007F00021FF002800D1CCE03D1C0127731C9A4644
:10080000022B37D9A368291C5B005B08181C99468A
:100810000EF010FF002801D04D4602275346032B4F
:1008200028D0E368291C5B005B08181C99460EF071
:1008300001FF002801D04D4603275346042B19D051
:100840002369281C5B005B08191C99460EF0E4FE26
:10085000002801D04D4604275346062B0AD164696F
:10086000281C64006408211C0EF0D6FE002801D06C
:100870000527251C069B029A474400219F50281CEF
:100880000EF0C2FE002800D185E0089B013300D1A4
:10089000FEE0062347469B1B9C46079A05939268F9
:1008A000574367440492BF000599049B0C009A00CB
:1008B0005C43029B00929C46039BA5001A00654482
:1008C0008C4691469B46924690463B1D6444A4004C
:1008D000994404335D445C449A44BB440433103768
:1008E000944698443B000027634401935B46296883
:1008F00018680EF05AFE011C20680EF03CFE2060C5
:10090000012E2DD94B46286819680EF04EFE011CA9
:1009100060680EF030FE6060022E21D053462868D9
:1009200019680EF042FE011CA0680EF024FEA060C3
:10093000032E15D04346286819680EF036FE011CB8
:10094000E0680EF018FEE060052E09D1019B2968D1
:1009500018680EF02AFE011C20690EF00CFE2061C2
:10096000009B01379C4665446444BE42BED1029B55
:10097000013E04330293059B052B00D023E71A00A8
:10098000069B5A610BB0F0BCBB46B246A946A046D6
:10099000F0BD002732E7474530D0039902988C46D6
:1009A000BF0067448446079A3C6892680B589200DF
:1009B0000C5061443B608918BB1808681C680C60C7
:1009C000186089189B1808681C680C6018608918E2
:1009D0009B1808681C680C60186089189B180868C8
:1009E0001C680C60186089189B1818680A680860F1
:1009F0001A60099A13680093013313604746079BF6
:100A0000039A9B685F4304930623991B43468C46D5
:100A1000FB189B0067449C58BF00D51928680591B6
:100A2000211C0EF0AEFD2860012E00D83CE7039B90
:100A30003D1D9C4665442868211C0EF0A2FD2860DF
:100A4000022E00D130E7039B3D009C4608356544EB
:100A50002868211C0EF095FD2860032E00D123E7A5
:100A6000039B3D009C460C3565442868211C0EF014
:100A700088FD2860042E00D116E7039A3D009446B5
:100A8000103565442868211C0EF07BFD28600BE7BB
:100A9000062347469B1B9C4605934346079A0893AB
:100AA0009268574367440492BF00FDE6F0B557468D
:100AB000DE464E464546E0B599B01493249B8246E7
:100AC000259C26985D1C00D1229B651C00D1229C90
:100AD000239DEE1703253540239EB4466544AD1093
:100AE000AF000725229E0E97AE4335000096149E58
:100AF000002E00DC88E29B00169323011093030173
:100B0000D31817936B1EDB0801330391D9015B01E6
:100B10000F93A3007C4320188000119313181593A2
:100B20000023D346139108930E9B002B00DCC2E1F7
:100B30000F9A039B944663441293179BD8460193E4
:100B4000002302930298434601000CCB089C5943B2
:100B5000A4466144890051180991411C59436144DC
:100B6000890051180A91811C594361448900511828
:100B70000B91C11C4B4363449B00D318019E0C9303
:100B8000009B3400002B00DC45E2039B00259946C6
:100B900000234C46AA46AB46A946069504952F1C51
:100BA000059507950D9325683168281C0EF0FDFC0E
:100BB00059460EF0E3FC71688346281C0EF0F5FCE4
:100BC00051460EF0DBFCB1688246281C0EF0EDFCAD
:100BD00007990EF0D3FCF1680790281C0EF0E5FC95
:100BE00005990EF0CBFC059065683169281C0EF064
:100BF000DCFC391C0EF0C2FC7169071C281C0EF0CD
:100C0000D4FC04990EF0BAFCB1690490281C0EF0D3
:100C1000CCFC06990EF0B2FCF1690690281C0EF08F
:100C2000C4FC49460EF0AAFC8146A568316A281C1E
:100C30000EF0BBFC59460EF0A1FC716A8346281CDD
:100C40000EF0B3FC51460EF099FCB16A8246281CA6
:100C50000EF0ABFC07990EF091FCF16A0790281C8E
:100C60000EF0A3FC05990EF089FC0590E568316B48
:100C7000281C0EF09AFC391C0EF080FC716B071CCE
:100C8000281C0EF092FC04990EF078FCB16B0490D5
:100C9000281C0EF08AFC06990EF070FCF16B069091
:100CA000281C0EF082FC49460EF068FC814625693E
:100CB000316C281C0EF079FC59460EF05FFC716C0B
:100CC0008346281C0EF071FC51460EF057FCB16CA7
:100CD0008246281C0EF069FC07990EF04FFCF16C5F
:100CE0000790281C0EF061FC05990EF047FC05905A
:100CF0006569316D281C0EF058FC391C0EF03EFC65
:100D0000716D071C281C0EF050FC04990EF036FC87
:100D1000B16D0490281C0EF048FC06990EF02EFCD4
:100D2000F16D0690281C0EF040FC49460EF026FCA2
:100D30008146A569316E281C0EF037FC59460EF02D
:100D40001DFC716E8346281C0EF02FFC51460EF0E0
:100D500015FCB16E8246281C0EF027FC07990EF098
:100D60000DFCF16E0790281C0EF01FFC05990EF08B
:100D700005FC0590E569316F281C0EF016FC391C46
:100D80000EF0FCFB716F071C281C0EF00EFC049982
:100D90000EF0F4FBB16F0490281C0EF006FC0699CF
:100DA0000EF0ECFBF16F0690281C0EF0FEFB49469E
:100DB0000EF0E4FB8146803620340D9B009A083308
:100DC0000D939A4200DDEEE6139B019C9C46051CA8
:100DD0005946381C64440EF0D1FB5146071C049858
:100DE0000EF0CCFB0799061C06980EF0C7FB059980
:100DF0008146281C0EF0C2FB129B051C9A46229AC3
:100E0000009B9A4230DDAB460493534620CB2168C9
:100E1000281C9A460EF0C9FB011C381C0EF0AEFBD4
:100E20006168071C281C0EF0C0FB011C301C0EF072
:100E3000A5FBA168061C281C0EF0B7FB011C484648
:100E40000EF09CFBE1688146281C0EF0AEFB011CF5
:100E500058460EF093FB8346049B229A01331034CC
:100E600004939A42D1D1051C311C0A9E30680EF0C1
:100E700082FB391C099F041C38680EF07CFB291C7E
:100E80000C9D3860346028680EF075FB0B9E494657
:100E9000041C30680EF06FFB1099019A8C46029B7F
:100EA000624401920E9A0433306002932C609A429D
:100EB00000DD47E6C3460F9A039B944663440E9AAF
:100EC0000293239B9246159D934200DC90E05B4683
:100ED0005C6853465C43089B2F009C465B461B683E
:100EE00064449C46009BA4006444002B00DC99E011
:100EF0000023039F99463B00A04600262F001C00BC
:100F0000396820680EF051FB311C0EF037FB061CCF
:100F1000796860680EF049FB311C0EF02FFB061C4F
:100F2000B968A0680EF041FB311C0EF027FB061CCF
:100F3000F968E0680EF039FB311C0EF01FFB061C4F
:100F4000396920690EF031FB311C0EF017FB061CCD
:100F5000796960690EF029FB311C0EF00FFB061C4D
:100F6000B969A0690EF021FB311C0EF007FB061CCD
:100F7000F969E0690EF019FB311C0EF0FFFA061C4E
:100F80002037203408239C46009BE1444B45B7DCC6
:100F900044460F9BEF18029B0193229A009B9A42B2
:100FA00017DD99460023984643464246F958019B6F
:100FB00098580EF0FAFA011C301C0EF0DFFA061CED
:100FC00001239C460333E1449C46229BE0444B456D
:100FD000EAD12068311C0EF0CEFA01239C46119B09
:100FE000E2449C46239B20606544534500D06EE755
:100FF0001699039A8C46089B62440392149A013313
:1010000008939A4200D08FE519B0F0BCBB46B246B7
:10101000A946A046F0BD0025039BA9469A462E1C72
:101020002F1CECE6039B00260193B6E7F0B557466C
:10103000DE464E4645469C24E0B5BDB006AF3C19A1
:10104000FB63842320609824BA6694225B003C19D9
:10105000FB1821601C68BA182369FB67A36813603A
:10106000834202DD9423FB18186094239821FB1817
:101070007918FA6F1B680D68534355432268002A9C
:1010800000D1DBE29B007B668C23FB181A60902268
:101090000023BA1813606368AA003A66002B00D1D7
:1010A000ECE28822BB670023BA181360C84D2B7886
:1010B000BFF35B8FDB0700D4FDE2C64CA422042300
:1010C000BA1813609433FB181B686068002B18DD96
:1010D0009C237A1DFB18FF321B681268190093428B
:1010E00000DAFFE209010CF0A1FF0323C21713404D
:1010F000A4221B189B109B00BA181360042B00DA63
:10110000EBE29C23FB181C68002C00DC72E2FB6BFA
:10111000FD6F18006A425043F86118008021661B79
:101120007043F866180001335A4392007918BA6187
:10113000621E0E601100594389008846B96E1B017A
:101140008C46E04441467964A90049423961A100D6
:101150007C1CFF3424685B42A446A42461443964A7
:10116000791DFF313C1909682468FB606143B9624D
:10117000B02183005B4279180B600300921B50433F
:10118000DB43AC229B00BA181360C4227B1DFF33E3
:101190001B68BA189B0078611360A022FB6FBA1815
:1011A00013609C22BA181268934202DDA023FB1838
:1011B0001A609823FB181B68002B00DC9FE1A0231A
:1011C000FB181A68002A00DC99E19823FB181B68B9
:1011D000396C3B65A423FB181B6853439B00FB62DF
:1011E000BB6FFB649300CB1A79697B628C46FB6E04
:1011F000B82163447B63002379180B60D021BB6462
:101200003B679C33FB181B6879189B1ABB60130063
:1012100079600321013B043A8B43D31A3B63A42238
:10122000BA183B6D1268FB65934200DDFA65B8227F
:10123000BA181268FB6D9446C8226344BA1813604A
:101240009C237A6AFB1894461B6884227B673B6F59
:10125000BA189B0063443B627B6B7B657B6CBB6510
:10126000A023FB181B6813608423B422FB181B689F
:10127000BA181360042B03DDB4220423BA181360D8
:101280008423FB181B68002B00DCA5E0B422C820D7
:10129000B824BA187B6F116838183C1900682468A4
:1012A0005A1ABA63A04200DC9CE094464E1EB96E06
:1012B0009B008A46043B9B467B6D791C63449B00E4
:1012C000FF3109689A44BB6C63448C46A8219B009B
:1012D000634479180B609300C0225B42BA18136014
:1012E000BC22BB6DBA181360BC23FE20FB181B6820
:1012F000800519680EF045F9CC23FB181860A82367
:10130000FB181C68B823FB181B68B1461E00C023DD
:10131000FB181B685A469846A04443469958CC236C
:10132000FB1818680EF041F943465A4698504B4650
:10133000051C002B22DD534619680EF036F9011CFE
:1013400020680EF018F94B462060012B16D053464A
:10135000281C59680EF029F9011C60680EF00BF981
:101360004B466060022B09D05346281C99680EF04A
:101370001CF9011CA0680EF0FEF8A060C423FB1845
:101380001B6801369C46C823FB181B6864449E42B8
:10139000BDD1AC22BC23BA181268FB189446BC22FB
:1013A0001B68BA18634413600423B0225B429C4656
:1013B000BA181268E3449446B4224E46BA1812682A
:1013C000731EE244961BB2420CDD1E008CE7C04641
:1013D000881703204C2D0320B422BA187B6F1268A3
:1013E0009B1ABB638423B422BD6BBA18AC46FB18AE
:1013F00010681B687A1CFF3212681C1A3B6F7968F0
:10140000634494469B0063440B607B1DFF331B6861
:1014100080464B60A0230194FB181E6802000096D2
:10142000FB6DF86C9B4689468246FFF7E1F8002C7D
:101430002ADD2B00BA6849469446FD6BBA6E6B43B1
:101440008C20634494464D604D469B0038180068DC
:1014500063440B60424623008146FFF773F929007D
:101460007B1DFF333D6A1B680D604B600D005B46C2
:1014700003964646019352462300494628000494A9
:1014800002960096FFF712FB84238422F968FB186A
:101490008C46B0211B68BA18043B13607A6F791828
:1014A000043A09687A67BA6D62448C46BA657A6D07
:1014B00062447A653A6B934200D0D5E6A422B82301
:1014C000BA181268B8219446FB181B68791863444F
:1014D0000B60396D8A1AF96A3A658C46FA6CB96AFA
:1014E00062448C46FA643A6F62443A67BA6C62446A
:1014F000BA649822BA1812689A4200DD8FE68023F7
:101500009C22FB181B68BA181360002B72DD942311
:10151000FB181B68002B00DCFEE78023BA6EFB186B
:1015200092461D68FB6E00249B009A44D023FE184F
:1015300000239B46013B99469423FB181B68A84651
:101540009D4200DD9846CC22A300BA181360FA6BC6
:101550008C207260A0225344BA18381831001268E7
:10156000006833604346FFF7EDF87A1CCC23FF3266
:101570001268FB1894461B688C21634433607B1D02
:10158000FF331B68791873605B4604934B460393E3
:1015900002939823FB181B6830000193A023FB18CB
:1015A0001B680093BA6F43460968FFF77FFA9423DC
:1015B000FB181B689C46ED1A8023FB181B686444CB
:1015C000A342B9DCFA69FB6E9446BA696344944657
:1015D000FB663A697B6C634494467B643B6CFA6FB0
:1015E00063443B648023FB181B689B1A8022BA1853
:1015F0001360D2E580233A6E9B029A4208D9882371
:10160000FB181B68002B03D0043B18680EF05EFA31
:1016100080237A6E9B029A4208D99023FB181B689C
:10162000002B03D0043B18680EF050FABD4637B0CB
:10163000F0BCBB46B246A946A046F0BD9A00802346
:101640007A669B029A424FD813006A461633DB082B
:10165000DB00D31A9D4627200F236844984381332B
:10166000FB18186090238C22FB181B68BA181360B3
:101670006368AA003A66002B00D012E580239B0223
:101680009A424FD813006A461633DB08DB00D31AA0
:101690009D4627200F23684498437933FB18186030
:1016A0008823FB181B682D4DBB672B78BFF35B8F1E
:1016B000DB0700D501E5280011F030FA284C00289E
:1016C00000D1FBE48023DB01236080231B0328007F
:1016D0006360A36011F03EFAF0E4A4220423BA1878
:1016E00013600EE51100FDE4100010300EF0B0F9AB
:1016F0009023FB18021E1860B4D00F2301009943F9
:101700000B0010218C468C209C446146DA602368D3
:101710003818016058425841902340420140FB185C
:101720001960B8E4100010300EF092F98823FB180D
:1017300018600028B4D00F23010099430B0010213A
:101740008C46D86060689C44434258416146882377
:101750004042B967FB1801401960A7E488170320CD
:101760004C2D0320F0B55746DE464E464546E0B5C3
:10177000B3B006AF8C24BB62E023FA6288223C1926
:10178000FB1821601C68BA182369786513608422ED
:10179000A368BA181360834202DD8423FB18186023
:1017A000842388228C21FB18BA18791812681B68C8
:1017B0000D68534355432268002A00D150E29B0034
:1017C000FA6780223B650023BA1813606368AA0099
:1017D000FA64002B00D161E2FB660023BB67E74D92
:1017E0002B78BFF35B8FDB0700D470E2E44C9022D0
:1017F0000423BA1813608833FB181B686068002B39
:1018000016DDDC22BA187B6D12681900934200DAEB
:1018100074E209010CF00AFC0323C2171340902262
:101820001B189B109B00BA181360042B00DA60E2AF
:101830007B6D002B00DCF1E18822B96ABA18080040
:101840001268BB6350439B1AB86098207B634B1CA3
:1018500099001B01FB61DC234A43381801607A6060
:101860009020DC22FB181B68BA189B009B46FB6A81
:1018700038183B63002312680068BB6542437A61F5
:101880000A1F3A627B679422BB6BBA1813608822E6
:10189000BA181268934202DD9423FB181A608C2355
:1018A000FB181B68002B00DC45E19423FB181A6829
:1018B000002A00DC3FE18C239021FB181B6879187B
:1018C000BB6413000968DA464B43D82179180968CC
:1018D0009B008C463B61FB6E9C21FB657B6F7918FE
:1018E0009B006344FB6000230B60A8213B667918D2
:1018F000130039600321013B043A8B43D31ABB61C7
:101900009022BA18BB6C1268BB66934200DDBA66BF
:101910009C22BA181268BB6E9446FA6863449446D7
:101920009B463B6E9B006344FB633B6B3B647B6F5E
:101930007B66BB6D7B649423FB181B683B67942319
:10194000FB181A683B6FD21A7A62A022BA18136089
:10195000042B03DDA0220423BA1813603B6F002B75
:1019600058DD9C23FB181B689B4553DDA023A42254
:10197000FB181B68BA18013B9946FB6B13603B6C64
:1019800098464B46002B2EDDA423FB181C689C2395
:10199000FB181E68434625685968281C0DF005FE93
:1019A000011C60680DF0E7FD4B466060012B16D00E
:1019B0004346281C99680DF0F8FD011CA0680DF045
:1019C000DAFD4B46A060022B09D04346281CD9689B
:1019D0000DF0EBFD011CE0680DF0CDFDE06001367F
:1019E00054445E45D6D14B465A1E9823FB181B68BB
:1019F000A4219C46A423FB181B68791804330B60B0
:101A0000A023FB1819684B46E044CB1A994201DD2C
:101A10009146B6E7A022BA181468D8223B6F796EB7
:101A20003E6E8C461D1B3300BA1810686344844612
:101A300039689B0063440B60DC23FB181B682200A1
:101A40004B607B6A884601939423FB1818680090CA
:101A5000BB6EF86DFEF7CCFD002D36DD7B6E41468A
:101A60009C46786C220064440319F86A9B00844603
:101A7000B86A63444860A02038180260F86F0B60B1
:101A80002B00C1468046FEF75DFED822BA183319F6
:101A900014689B00A4464C4663442360DC23FB1877
:101AA00019687B6A616004939423FB181E68A02365
:101AB0000396FB181A6841460292BB6E009201938E
:101AC00048462B00FA6DFEF7F1FF396A7A6C8C46B6
:101AD000F96962448C467A647A6E3B6F04327A66A6
:101AE0003A6C043B62443A64FA6B3B671032FA6327
:101AF000BA69934200D022E790229C23BA18126858
:101B00009C219446FB181B68791863440B60B96CE0
:101B10008A1A7969BA648C463A6E396962448C468D
:101B20003A66FA6D6244FA658C22BA1812689A42D3
:101B300000DDE5E6D3468822BA1812687B6F94462A
:101B40007A6D63447B67934268DA8423FB181B68D1
:101B5000002B17DC8823B968FB188C46BA6B1B680E
:101B6000D21ABA63BA6D6244BA657A6BD31A7A68CC
:101B70007B6394463B6B63443B6384E68817032096
:101B80004C2D0320FA6ABB6D92469B009A44A82311
:101B9000FE18A93B99467D6B7C6F8423FB181B685C
:101BA000A8469D4200DD9846A422A300BA181360FF
:101BB000BA6A534472609422BA1831001268F86FFE
:101BC00033604346FEF7BEFDD822A423BA1812683C
:101BD000FB1894461B68300063443360DC23FB1819
:101BE0001B687360002304934B46039302938C237A
:101BF000FB181B6801939423FB181B680093FA6E73
:101C00004346F96FFEF752FF8423FB181B689C467E
:101C1000ED1A7B6D6444A342BFDC9BE78023FA6C22
:101C20009B029A4206D9BB6F002B03D0043B186875
:101C30000DF04CFF80233A6D9B029A4208D9802315
:101C4000FB181B68002B03D0043B18680DF03EFF07
:101C5000BD462DB0F0BCBB46B246A946A046F0BD7D
:101C60009A0080233A659B029A4249D813006A463B
:101C70001633DB08DB00D31A9D4627200F23684468
:101C800098437133FB1818608023FB181B68AA0067
:101C9000FB676368FA64002B00D09DE580239B02FC
:101CA0009A4249D813006A461633DB08DB00D31A80
:101CB0009D4627200F2368449843B867BB6F2A4D81
:101CC000FB662B78BFF35B8FDB0700D58EE5280022
:101CD00010F024FF254C002800D188E58023DB018B
:101CE000236080231B0328006360A36010F032FF91
:101CF0007DE590220423BA18136099E5110088E568
:101D0000100010300DF0A4FE8023FB18186000288E
:101D1000BAD00F23010099430B0010218C46D860E4
:101D20009C44236861465842584180234042F967E9
:101D3000FB180140196049E5100010300DF088FED5
:101D4000B8670028BAD00F23010099430B00102177
:101D50008C46D86060689C4443425841614640428A
:101D6000F9660140B9673AE5881703204C2D032036
:101D700030B587B00D4B02AD00951A6869460292E6
:101D80009A880400AA809B796A46AB710723019365
:101D90000023D3732DF054FE0098A84203D002997B
:101DA00001310DF0C7FE200007B030BD042705103B
:101DB000F0B5DE4657464E464546E0B5674B83B024
:101DC00059689A460DF0D7FB654B051C1860654BAA
:101DD0001B689B46644B59461C680DF0CFFB211CC9
:101DE0000DF0E3FB614B061C1868011C0DF0C6FBEF
:101DF000011C301C0DF0C5FB5D4E31680DF0BEFBC3
:101E00005C4B009030601868011C0DF0B7FB5A4B1A
:101E1000061C1A68111C91460DF0C7FB8046011C78
:101E2000201C0DF0ABFB211C071C40460DF0A3FB52
:101E3000524A116890460DF0B8FB391C0DF0A1FB19
:101E40004946019048460DF099FB59468146281CA9
:101E50000DF091FB011C48460DF0A7FB391C0DF05D
:101E600090FB011C01980DF089FB4246009910601F
:101E7000071C281C0DF082FB391C0DF07FFB404B2A
:101E800019680DF092FB3F4B18603F4B18605346AA
:101E900019680DF070FB3D4B051C18603C4B1B682E
:101EA000191C9A460DF06AFB211C0DF07EFB394B84
:101EB00080461868011C0DF061FB011C40460DF0C6
:101EC00060FB354B994619680DF058FB4B4618607E
:101ED000324B80461B68301C191C99460DF065FB7F
:101EE0008346011C201C0DF049FB4946061C484650
:101EF0000DF044FB51468146281C0DF03CFB011CB3
:101F000048460DF052FB311C0DF03BFB211C814675
:101F100058460DF030FB391C0DF047FB311C0DF01D
:101F200030FB011C48460DF029FB1D4B4146186053
:101F3000041C281C0DF022FB211C0DF01FFB194B6B
:101F400019680DF032FB184B1860184B186003B07D
:101F5000F0BCBB46B246A946A046F0BDBC42032039
:101F60004034032080380320FC150020E0150020B9
:101F700074380320F0150020742800202434032036
:101F8000E8150020344E0320244E0320443403205F
:101F900084380320E41500207838032078280020B6
:101FA00028340320EC150020384E0320644E032013
:101FB000F0B5DE4657464E464546E0B50E00016890
:101FC000C7688946416805698A4681688DB08B4635
:101FD000416980690793069050681368926805917B
:101FE0000A90291C30680B92099308950DF0C3FAEA
:101FF0000599039070680DF0BEFA0699051CB0684B
:102000000DF0B9FA80268046360607980DF066FB7B
:10201000B446039B009001916344180051460DF0B3
:10202000C4FA5946061C281C0DF0BFFA011C301CCE
:102030000DF0A1FA391C061C404604970DF0B5FAC4
:10204000011C301C0DF097FA0DF048FB0022684B84
:102050000CF06BFA009A019B0CF067FA06004846F8
:102060000F000DF03BFB02000B0030003900169C06
:102070000CF034FA0CF05EFB4946206003980DF03A
:1020800094FA5946061C40460DF08FFA011C301C8C
:102090000DF074FA0499061C281C0DF086FA011C38
:1020A000301C0DF068FA0DF019FB0022504B0CF0BB
:1020B0003CFA009A019B0CF038FA060050460F00DB
:1020C0000DF00CFB02000B00300039000CF006FA9A
:1020D0000CF030FB49466060281C0DF066FA514652
:1020E000061C40460DF061FA011C301C0DF043FA4D
:1020F0000499061C03980DF058FA011C301C0DF0D1
:102100003DFA0DF0EBFA0022394B0CF00EFA009A72
:10211000019B0CF00AFA060058460F000DF0DEFA9B
:1021200002000B00300039000CF0D8F90CF002FB73
:102130004946A06040460DF038FA5146061C281C5E
:102140000DF033FA011C301C0DF018FA5946051C2D
:1021500003980DF02AFA011C281C0DF00CFA0DF062
:10216000BDFA0022224B0CF0E0F9009A019B0CF022
:10217000DCF9060004980F000DF0B0FA02000B0025
:10218000300039000CF0AAF90CF0D4FA089B099938
:10219000E060181C98460DF008FA079D291C0DF008
:1021A00004FA011C40460DF0E6F9059F0A992061EA
:1021B000381C0DF0FAF9291C0DF0F7F9011C381C38
:1021C0000DF0D9F9069E0B996061301C0DF0EDF908
:1021D000291C0DF0EAF9011C301C0DF0CCF9A061AE
:1021E00000200DB0F0BCBB46B246A946A046F0BDEB
:1021F0000000E03FF0B5DE4657464E4645468A466B
:102200004168E0B58846C768816891B0066889462C
:102210004046391C141C04930DF0C7F94946051CAF
:10222000301C0DF0C2F90A90011C281C09950DF014
:10223000A2F90DF053FA02000B000CF04FF90690D2
:102240000791201C02940DF049FA0B0002000400D3
:102250000D00069807990CF068F90CF06BFA5246DD
:10226000391C106048460DF0A0F983464146301CE9
:102270000DF09BF95A460E90011C58460B920DF03A
:102280007DF90DF02BFA02000B000CF027F902008B
:102290000B00200029000C920D930CF046F90CF075
:1022A00049FA5446311C6060301C0DF07EF94146FD
:1022B000041C40460DF079F9051C011C201C0DF092
:1022C0005AF94946089048460DF06FF9391C834683
:1022D000381C0DF06AF95946019008980DF04BF939
:1022E00001990DF04BF902990F900DF05EF95346EC
:1022F0004946986040460DF058F9391C8046301C1C
:102300000DF053F981461A980DF0E8F906001B9874
:102310000F000DF0E3F902900391291C201C0DF031
:102320002DF959460DF027F901990DF024F904997A
:102330000DF03BF90DF0D2F904000D00404649467E
:102340000DF01CF90DF0CAF902000B000CF0C6F8F4
:1023500032003B000CF0E9F802000B0020002900DD
:102360000CF0BCF8029A039B04000D000698079934
:102370000CF0DBF802000B00200029000CF0AEF896
:102380000CF0D8F95346D86004980DF0A7F9040072
:102390000D00404649460DF0EEF80DF09FF90200A1
:1023A0000B000CF09BF822002B00049405950CF018
:1023B000BCF804000D00089859460DF0DFF80199AB
:1023C0000DF0D9F81A990DF0F0F80DF087F9020028
:1023D0000B00200029000CF081F8029A039B0400F6
:1023E0000D000C980D990CF0A0F802000B002000D5
:1023F00029000CF073F80CF09DF953460A99186106
:1024000009980DF0BBF80DF069F902000B000CF013
:1024100065F8049A059B0CF088F804000D000B98F1
:102420000E990DF0A8F80DF059F902000B000CF010
:1024300055F832003B000CF078F802000B00200049
:1024400029000CF04BF804000D000F981B990DF0BB
:10245000ACF80DF043F902000B00200029000CF04D
:102460003DF80CF067F953465861002011B0F0BCFC
:10247000BB46B246A946A046F0BDC046F0B5040032
:10248000DE4657464E4645460800E0B545680968B1
:10249000AA46856895B0AB46C568466987691091BC
:1024A0000E950169556810689268049690461A68FE
:1024B000069711925A689B6812921393FE239B050C
:1024C000236099460DF057F80DF008F9009001913E
:1024D0001E980DF003F906000F00009801990022E4
:1024E000924B0CF022F832003B000CF01EF80CF07E
:1024F00021F904990390E061281C0DF03CF80DF0DF
:10250000EDF80022894B049005910CF00EF8320092
:102510003B000CF00AF80CF00DF90699051CA063BD
:1025200040460DF028F80DF0D9F800227F4B0690B8
:1025300007910BF0FAFF32003B000BF0F6FF0CF0B6
:10254000F9F80A90606550460DF0C8F80022784B03
:10255000089009910BF0E9FF32003B000BF0E5FF1A
:102560000CF0E8F80B90206758460DF0B7F8002201
:102570006F4B0C900D910BF0D8FF32003B000BF02D
:10258000D4FF0CF0D7F88C238246E0500E980DF063
:10259000A5F80022664B0E900F910BF0C6FF32009B
:1025A0003B000BF0C2FF0CF0C5F8A8238346E050B7
:1025B0000022009801995E4B0BF0B7FF32003B0000
:1025C0000BF0B3FF0CF0B6F8494600906060216252
:1025D000002206980799564B0BF0A7FF32003B00EC
:1025E0000BF0A3FF0CF0A6F8A5658046E0631098F9
:1025F0000DF074F800224D4B0BF097FF32003B00BA
:102600000BF093FF0CF096F859469023051C606779
:102610000022E1500C980D99444B0BF086FF3200DC
:102620003B000BF082FF0CF085F8AC230022E05059
:10263000049805993E4B0BF078FF32003B000BF0FD
:1026400074FF0CF077F849460A9A83466262009A52
:10265000A0602164E2650E980F990022334B0BF0C5
:1026600064FF32003B000BF060FF0CF063F8942332
:102670000B99A067E5501C33E1504146E160594693
:10268000A162494621665146039BE167636408984D
:1026900009990022254B0BF048FF32003B000BF05C
:1026A00044FF0CF047F89823E0501C33E550002518
:1026B0001E9911982561E562A56465660CF075FFA9
:1026C000011C48460CF057FF8023E0501C33E550B6
:1026D0001C33E550343B1E99129865612563E5640F
:1026E000A566E5500CF061FF011C48460CF043FF65
:1026F000A023E0501C33E550343BA561656325659C
:10270000E566E5501C33E5501E9913980CF04DFF1B
:10271000011C48460CF02FFFC023E050002015B0EC
:10272000F0BCBB46B246A946A046F0BD0000E0BFE3
:102730000000E03FF0B5DE4657464E464546E0B560
:102740009A460B68141C8A689B464B68C9688BB014
:102750000500101C8846009301920CF0BFFF029008
:102760000391201C0CF0BAFFC02306000F00029852
:10277000039900221B060BF0D8FE32003B000BF041
:10278000D4FE0BF0D7FF0890286040460CF0A6FF5F
:1027900002000B000BF0A2FE32003B000BF0C5FE66
:1027A0000BF0C8FF041CA86158460CF097FFC0232B
:1027B00000221B06049005910BF0B7FE32003B008F
:1027C0000BF0B3FE0BF0B6FF286300980CF086FF09
:1027D00002000B00069007910BF080FE32003B00D8
:1027E0000BF0A3FE0BF0A6FF002190238946A864FE
:1027F0002966A967E95068600498059902000B00F2
:102800000BF06CFE32003B000BF08FFE0BF092FFE2
:102810006C630490E8610298039902000B000BF0CE
:102820005DFE32003B000BF080FE0BF083FF49465B
:102830009423E8646966E967E950C023069807991C
:10284000049A1B06AA6000220BF06FFE32003B00C8
:102850000BF06BFE0BF06EFF089B4946AB638023C9
:1028600028622C65A966E9501833E950404614994E
:102870000CF09BFE019F1599061C381C0CF095FE70
:102880005146041C58460CF090FE311C0CF076FEAC
:10289000211C06940CF06FFE011C0CF06FFE5146DB
:1028A0000990E86000980CF080FE1499041C381C14
:1028B0000CF07BFE011C201C0CF060FE1599041C22
:1028C00040460CF072FE011C201C0CF057FE011C4F
:1028D0000CF054FE14990290686200980CF065FEAA
:1028E0001599089058460CF060FE019A8024944691
:1028F00024066444071C514620000CF056FE08993B
:102900000CF03CFE391C0CF036FE011C0CF036FEBF
:102910001499E86358460CF048FE15990490009805
:102920000CF043FE802212064244041C5146100063
:102930000CF03BFE04990CF021FE211C0CF01EFE55
:10294000011C0CF01BFE4A468423EA666865EA50C7
:102950001833EA505146286101980CF026FE089978
:102960000CF009FE391C0CF009FE011C0CF006FEEF
:10297000071CA8628020029B00062B645146584425
:102980000CF013FE311C0CF0F6FD06990CF0F6FD70
:10299000011C0CF0F3FD8823A86548462867E85021
:1029A0001833E850514640466F610CF0FEFD049923
:1029B0000CF0E1FD211C0CF0DEFD011C0CF0DEFD35
:1029C000099AE8626A64029B4A46EB654B466B676C
:1029D0008C230020EA501833EA500BB0F0BCBB4601
:1029E000B246A946A046F0BD0123F0B5E321474613
:1029F000CE469C46294B804605009946284E80B518
:102A00008900076846444144FA0F6F68D2077B008B
:102A10005B08346813435A08624064461C4201D084
:102A20004B465A4004C50436A942EDD1E323424641
:102A30009B00C626D458194B01259C46F6004644F7
:102A4000E20F4C68D20763005B08076813435A081B
:102A50007A401D4201D063465A40043004C1B0425E
:102A6000EED14246C62140460E4BC900D3581268EB
:102A7000DB0F52005208DB07415813435A084A4003
:102A8000DB0701D5054B5A404146064BCA50002290
:102A90000433CA50C0BCB946B046F0BDDFB0089997
:102AA00034060000BC090000F0B54546DE46574636
:102AB0004E46E0B53B4CD723A54434AA9446634424
:102AC0001B091B018A6805930B68019237921A68EB
:102AD000049006929A69339107921A6B38AC089267
:102AE0009A6C09921A6E0B929A6F0C9290229A58D5
:102AF0000D925A680E92DA690F925A6B1092DA6C44
:102B000011925A6E1292DA6F139294229A5814927A
:102B10009A6815921A6A16929A6B17921A6D189201
:102B20009A6E199280229A581A9298229A581B9259
:102B3000DA681C925A6A1D92DA6B1E925A6D1F92C5
:102B4000DA6E209284229A5821929C229A582292DC
:102B50001A6923929A6A24921A6C25929A6D269287
:102B60001A6F279288229A582892A0229A5829925E
:102B70005A692A92DA6A2B925A6C2C92DA6D2D924B
:102B80005A6F2E928C229A582F92A4229B583093DF
:102B90004B68984638AB3293C423454643440A9366
:102BA00002E0C0469CFDFFFFEA68A96991462A69D8
:102BB000AB6890466A69099803914946019302926D
:102BC0000CF0F3FC414682460B980CF0EEFC011C25
:102BD00050460CF0D3FC029982460C980CF0E5FCB0
:102BE000039983460D980CF0E0FC011C58460CF04C
:102BF000C5FC011C50460CF0C1FC6F688246391CB4
:102C000007980CF0D2FC0199834608980CF0CDFC93
:102C1000011C58460CF0B2FC2E688346311C069805
:102C20000CF0C3FC011C58460CF0A8FC011C5046DB
:102C30000CF0A4FC4946206011980CF0B6FC41460B
:102C4000824612980CF0B1FC011C50460CF096FC28
:102C50000299824613980CF0A8FC039983461498B5
:102C60000CF0A3FC011C58460CF088FC011C5046DB
:102C70000CF084FC391C82460F980CF096FC0199EC
:102C8000834610980CF091FC011C58460CF076FC21
:102C9000311C83460E980CF088FC011C58460CF041
:102CA0006DFC011C50460CF069FC494660601898A8
:102CB0000CF07BFC4146824619980CF076FC011C16
:102CC00050460CF05BFC029982461A980CF06DFCA1
:102CD000039983461B980CF068FC011C58460CF0C5
:102CE0004DFC011C50460CF049FC391C82461698DC
:102CF0000CF05BFC0199834617980CF056FC011C04
:102D000058460CF03BFC311C834615980CF04DFCEA
:102D1000011C58460CF032FC011C50460CF02EFCF5
:102D20004946A0601F980CF040FC4146824620981E
:102D30000CF03BFC011C50460CF020FC0299824632
:102D400021980CF032FC0399834622980CF02DFC5C
:102D5000011C58460CF012FC011C50460CF00EFCF5
:102D6000391C82461D980CF020FC019983461E9860
:102D70000CF01BFC011C58460CF000FC311C834677
:102D80001C980CF012FC011C58460CF0F7FB011CBF
:102D900050460CF0F3FB4946E06026980CF005FC29
:102DA0004146824627980CF000FC011C50460CF06E
:102DB000E5FB0299824628980CF0F7FB03998346BD
:102DC00029980CF0F2FB011C58460CF0D7FB011CB3
:102DD00050460CF0D3FB391C824624980CF0E5FBDE
:102DE0000199834625980CF0E0FB011C58460CF035
:102DF000C5FB311C834623980CF0D7FB011C5846B9
:102E00000CF0BCFB011C50460CF0B8FB2D99206166
:102E100048460CF0CAFB2E99814640460CF0C5FB93
:102E2000011C48460CF0AAFB2F99804602980CF032
:102E3000BCFB3099814603980CF0B7FB011C484657
:102E40000CF09CFB011C40460CF098FB391C8046A2
:102E50002B980CF0AAFB2C99071C01980CF0A5FBF1
:102E6000011C381C0CF08AFB311C071C2A980CF042
:102E70009CFB011C381C0CF081FB011C40460CF033
:102E80007DFB0A9B1C3560611834AB4200D08BE699
:102E9000379B1A68629308929A6909921A6B0A9290
:102EA0009A6C0B921A6E0C929A6F0D9290229A580D
:102EB0000E925A680F92DA6910925A6B1192DA6C7C
:102EC00012925A6E1392DA6F149294229A581592B3
:102ED0009A6816921A6A17929A6B18921A6D19923A
:102EE0009A6E1A9280229A581B9298229A581C9293
:102EF000DA681D925A6A1E92DA6B1F925A6D2092FE
:102F0000DA6E219284229A5822929C229A58239215
:102F10001A6924929A6A25921A6C26929A6D059CD7
:102F200027921A6F2034289288229A58A146299213
:102F3000A0229A582A925A692B92DA6A2C925A6CD9
:102F40002D92DA6D2E925A6F2F928C229A583092CF
:102F5000A4229B5831935CAB06933EAB0793329B04
:102F6000984643464246414640461B689569019350
:102F7000069B146B096E926C40CB876F0291101CFC
:102F80000B99039206930CF010FB0C998246029861
:102F90000CF00BFB011C50460CF0F0FA0D99824628
:102FA000381C0CF002FB0E998346301C0CF0FDFA25
:102FB000011C58460CF0E2FA011C50460CF0DEFAF7
:102FC00009998246281C0CF0F0FA0A998346201CC5
:102FD0000CF0EBFA011C58460CF0D0FA0899834625
:102FE00001980CF0E2FA011C58460CF0C7FA011CDB
:102FF00050460CF0C3FA4B461299186003980CF037
:10300000D4FA1399824602980CF0CFFA011C50466C
:103010000CF0B4FA14998246381C0CF0C6FA1599D3
:103020008346301C0CF0C1FA011C58460CF0A6FA7D
:10303000011C50460CF0A2FA10998246281C0CF094
:10304000B4FA11998346201C0CF0AFFA011C5846C3
:103050000CF094FA0F99834601980CF0A6FA011C23
:1030600058460CF08BFA011C50460CF087FA4B4680
:103070001999586003980CF098FA1A9982460298A8
:103080000CF093FA011C50460CF078FA1B9982461A
:10309000381C0CF08AFA1C998346301C0CF085FA17
:1030A000011C58460CF06AFA011C50460CF066FAF6
:1030B00017998246281C0CF078FA18998346201C30
:1030C0000CF073FA011C58460CF058FA1699834616
:1030D00001980CF06AFA011C58460CF04FFA011CDA
:1030E00050460CF04BFA4B462099986003980CF030
:1030F0005CFA2199824602980CF057FA011C50465E
:103100000CF03CFA22998246381C0CF04EFA2399B6
:103110008346301C0CF049FA011C58460CF02EFA7C
:10312000011C50460CF02AFA1E998246281C0CF00D
:103130003CFA1F998346201C0CF037FA011C5846B4
:103140000CF01CFA1D99834601980CF02EFA011C14
:1031500058460CF013FA011C50460CF00FFA4B467F
:103160002799D86003980CF020FA28998246029893
:103170000CF01BFA011C50460CF000FA299982460B
:10318000381C0CF012FA2A998346301C0CF00DFA08
:10319000011C58460CF0F2F9011C50460CF0EEF9F7
:1031A00025998246281C0CF000FA26998346201C9B
:1031B0000CF0FBF9011C58460CF0E0F92499834609
:1031C00001980CF0F2F9011C58460CF0D7F9011CDB
:1031D00050460CF0D3F94B462E99186103980CF029
:1031E000E4F92F99824602980CF0DFF9011C504651
:1031F0000CF0C4F930998246381C0CF0D6F931999C
:10320000071C301C0CF0D1F9011C381C0CF0B6F96D
:10321000011C50460CF0B2F92C99061C281C0CF02D
:10322000C4F92D99051C201C0CF0BFF9011C281CA9
:103230000CF0A4F92B99041C01980CF0B6F9011CB0
:10324000201C0CF09BF9011C301C0CF097F94B462C
:10325000586104239C461433E0449C46079BE14498
:10326000984500D07DE6339B059DDC68296A20687F
:103270000CF084F9049EA96B306060680CF07EF954
:103280007060A068296D0CF079F9B060E068A96EF3
:103290000CF074F98023F0602069E95898460CF02E
:1032A0006DF998233061E95860690CF067F9706135
:1032B000A069696A0CF062F9B061E069E96B0CF031
:1032C0005DF9F061206A696D0CF058F93062E96EC1
:1032D000606A0CF053F984277062A06AE9590CF017
:1032E0004DF99C23B062E958E06A0CF047F9F062AE
:1032F000206BA96A0CF042F93063606B296C0CF00A
:103300003DF97063A06BA96D0CF038F9B063E06B08
:10331000296F0CF033F9F0638826206CA9590CF062
:103320002DF9049B1864A023606CE9580CF026F971
:10333000049BE96A5864A06C0CF020F9049B696C4A
:103340009864E06C0CF01AF9049BE96DD864206D68
:103350000CF014F9049B696F1865606D0CF00EF9A0
:103360008C25049A059B5065A06D59590CF006F9FF
:10337000A423049A9065059AE06DD1580CF0FEF8EC
:10338000049B059AD865116B206E0CF0F7F8049B2E
:10339000059A1866916C606E0CF0F0F8049B059A23
:1033A0005866A06E116E0CF0E9F8049B059A9866B9
:1033B000E06E916F0CF0E2F8049B059AD8669023BA
:1033C000206FD1580CF0DAF8049B059A1867A823EF
:1033D000606FD1580CF0D2F8049B059A5867A16F22
:1033E000506B0CF0CBF8049B059A9867E16FD06C9A
:1033F0000CF0C4F84146049B059AD8676158506E9A
:103400000CF0BCF84146049B059A5850E159D06F26
:103410000CF0B4F8049BD8519423059FA159F85897
:103420000CF0ACF8049B9851AC236159F8580CF09F
:10343000A5F8049B585199239B009D44F0BCBB46C2
:10344000B246A946A046F0BDF0B5DE4657464E4608
:1034500045460400E0B5036987B058006369400839
:10346000590049080CF08AF8E368590049080CF043
:1034700085F86368051C5800A3684008590049088E
:103480000CF07CF82368590049080CF077F8011C0F
:10349000281C0CF073F8A36A051C5800E36A400866
:1034A000590049080CF06AF8636A590049080CF0A1
:1034B00065F8E369061C5800236A4008590049086A
:1034C0000CF05CF8A369590049080CF057F8011C8E
:1034D000301C0CF053F8236C071C5800636C400838
:1034E000590049080CF04AF8E36B590049080CF000
:1034F00045F8636B061C5800A36B40085900490847
:103500000CF03CF8236B590049080CF037F8011C0B
:10351000301C0CF033F8061C011C381C0CF07CF835
:10352000002800D13E1C311C281C0CF075F8002826
:1035300000D12E1CA36D5800E36D400859004908C6
:103540000CF01CF8636D590049080CF017F8E36C97
:10355000051C5800236D4008590049080CF00EF86E
:10356000A36C590049080CF009F8011C281C0CF048
:1035700005F8236F071C5800636F4008590049087D
:103580000BF0FCFFE36E590049080BF0F7FF636E88
:10359000051C5800A36E4008590049080BF0EEFFC7
:1035A000236E590049080BF0E9FF011C281C0BF0A1
:1035B000E5FF88238046E0580433E1584000490085
:1035C000490840080BF0DAFF8423E1584900490814
:1035D0000BF0D4FFE36F051C58008023E15840082E
:1035E000490049080BF0CAFFA36F590049080BF0C6
:1035F000C5FF011C281C0BF0C1FF051C011C404627
:103600000CF00AF8002800D14546291C381C0CF0A3
:1036100003F8002800D13D1C291C301C0BF0FCFFD6
:10362000002800D1351CC0232100E55001AABA3B77
:1036300002A8A83104930294FDF7AEF80121C42238
:10364000019B98260B405B428B430133A354343AD1
:103650009246002250469C2722509432A150934615
:10366000923AA2510132E2519D32944660469C3A10
:103670002250A03291469F3A90464A464046230047
:10368000A05048461832A258903392009A181568F4
:103690002550404610606046B8222058A258804607
:1036A000604692009A181568255040461060B42272
:1036B000E059A258844692009A1810685D46E0517D
:1036C00060461060B022A258A75992009A1810685C
:1036D000A0511760AC225846A258265892009A185A
:1036E000106860511660A822A258554692009B1897
:1036F00052461868A25860511A60C523E15407B0B9
:10370000F0BCBB46B246A946A046F0BDC02300228D
:1037100010B5C25000220433C2520B68040003608B
:103720004B6843608B688360CB68C3600B6903613F
:103730004B6943618B698361CB69C3610B6A036227
:103740004B6A43628B6A8362CB6AC3620B6B03630F
:103750004B6B43638B6B8363CB6BC3630B6C0364F7
:103760004B6C43648B6C8364CB6CC3640B6D0365DF
:103770004B6D43658B6D8365CB6DC3650B6E0366C7
:103780004B6E43668B6E8366CB6EC3660B6F0367AF
:103790004B6F43678B6F8367CB6FC3678023CA58B8
:1037A000C2500433CA58C2500433CA58C2500433FA
:1037B000CA58C250FFF748FE200010BDF0B5DE46E3
:1037C0004E4645465746E0B5214C9146A5443AAA97
:1037D00094460A0031931F4B3B9063441B091B0125
:1037E0003A919846D3AB13CA13C313CA13C31268D2
:1037F000D3A91A60184B194A1B6847A80493184BA1
:1038000047AC1B680193174B1B6805930093049BFF
:10381000FEF790FF47ABD3934B46D49347ABD5937A
:103820003AAA8323944686201B0163441B68C00088
:103830004044A2AAD3A9D6930990FFF735F96BAB00
:10384000089343460A934B463094A1461C000BE074
:1038500014F7FFFF47030000DC1403200AE81C41B3
:10386000D0140320D41403204B464E461B68B76F78
:103870000493089B494640CB48464A460893A823F0
:10388000896C006E9569126B06910790E158301CA7
:1038900005920BF08AFE8C238246E158381C0BF00F
:1038A00084FE011C50460BF069FE216F824607988A
:1038B0000BF07BFE616D834606980BF076FE011CD3
:1038C00058460BF05BFE011C50460BF057FEA16BF7
:1038D000824605980BF069FEE1698346281C0BF0CF
:1038E00064FE011C58460BF049FE2168834604988B
:1038F0000BF05BFE011C58460BF040FE011C5046CD
:103900000BF03CFE43461860AC23301CE1580BF032
:103910004CFE90238246E158381C0BF046FE011CF9
:1039200050460BF02BFE616F824607980BF03DFE70
:10393000A16D834606980BF038FE011C58460BF02B
:103940001DFE011C50460BF019FEE16B82460598E6
:103950000BF02BFE216A8346281C0BF026FE011C6F
:1039600058460BF00BFE6168834604980BF01DFE71
:10397000011C58460BF002FE011C50460BF0FEFDE8
:1039800043465860B023301CE1580BF00EFE9423E0
:103990008246E158381C0BF008FE011C50460BF023
:1039A000EDFDA16F824607980BF0FFFDE16D8346A8
:1039B00006980BF0FAFD011C58460BF0DFFD011CC8
:1039C00050460BF0DBFD216C824605980BF0EDFDB7
:1039D000616A8346281C0BF0E8FD011C58460BF079
:1039E000CDFDA168834604980BF0DFFD011C58460D
:1039F0000BF0C4FD011C50460BF0C0FD434698601F
:103A0000B423301CE1580BF0D0FD98238246E158D6
:103A1000381C0BF0CAFD011C50460BF0AFFDE16FE6
:103A2000824607980BF0C1FD216E834606980BF085
:103A3000BCFD011C58460BF0A1FD011C50460BF0CB
:103A40009DFD616C824605980BF0AFFDA16A83462F
:103A5000281C0BF0AAFD011C58460BF08FFDE168F5
:103A6000834604980BF0A1FD011C58460BF086FD1F
:103A7000011C50460BF082FD4346D860B823301C31
:103A8000E1580BF092FD9C238246E158381C0BF064
:103A90008CFD011C50460BF071FD80238246E158DD
:103AA00007980BF082FD616E834606980BF07DFD52
:103AB000011C58460BF062FD011C50460BF05EFDE8
:103AC000A16C824605980BF070FDE16A8346281CC4
:103AD0000BF06BFD011C58460BF050FD216983462D
:103AE00004980BF062FD011C58460BF047FD011CC9
:103AF00050460BF043FD43461861BC23301CE1588F
:103B00000BF053FDA0238246E158381C0BF04DFD0D
:103B1000011C50460BF032FD84238246E158079881
:103B20000BF043FDA16E834606980BF03EFD011C91
:103B300058460BF023FD011C50460BF01FFDE16CB5
:103B4000824605980BF031FD216B8346281C0BF053
:103B50002CFD011C58460BF011FD61698346049849
:103B60000BF023FD011C58460BF008FD011C5046CC
:103B70000BF004FD4346E16E586106980BF015FD0D
:103B800088238246E15807980BF00FFD011C504630
:103B90000BF0F4FCA4238246E158381C0BF005FD21
:103BA000C023071CE158301C0BF0FFFC011C381C23
:103BB0000BF0E4FC011C50460BF0E0FC616B061CB2
:103BC000281C0BF0F2FC216D051C05980BF0EDFC98
:103BD000011C281C0BF0D2FCA169051C04980BF0F9
:103BE000E4FC011C281C0BF0C9FC011C301C0BF070
:103BF000C5FC4346986104239C461833E1449C4627
:103C00004DABE0444B4500D02EE60A9BA146D8249C
:103C10009846A427A4004444BF00474420000999C3
:103C2000FFF774FD210090223800C8240BF06CFFD0
:103C3000FC21A400444489004144182220000BF0D8
:103C400063FFCE2081218000C900414418224044F6
:103C50000BF05AFF8422D423D200424412689B0006
:103C600043441A60D523874A4546424412889B0044
:103C70004344FE211A8000232268B0359200AA181E
:103C80008905116093611363936413669367C92276
:103C900092004244126844469200AA18136091614F
:103CA0001363936413669367CA22920042441268B6
:103CB00006269200AA181360936111639364136639
:103CC0009367CB2292004244126806209200AA1801
:103CD000136093611363916413669367CC2292001F
:103CE000424412689200AA181360936113639364AC
:103CF00011669367CD229200424412689200AA187E
:103D000013609361136393641366A8235B009B465F
:103D1000916742465946E41820334344A660E66062
:103D2000266153508022920042444B396260924691
:103D300004933A0006230294FF3901960095FDF79B
:103D400011FD42465946049BA660E6602661535029
:103D500053464B3963603A000623029406200196CD
:103D60000095FF39FDF762F943461B688C220793E3
:103D70004346DB69D3AC089343469B6B09934346A8
:103D80005B6D0A9343461B6F0B9343469B5804326B
:103D90000C9343465B68179343461B6A189343464C
:103DA000DB6B0D9343469B6D0E9343465B6F0F9306
:103DB00043469B580432109343469B6811934346F5
:103DC0005B6A129343461B6C13934346DB6D14935B
:103DD00043469B6F159343469B58043216934346C4
:103DE000DB68199343469B6A069343465B6C1A93C0
:103DF00043461B6E1B934346DB6F1C9343469B5805
:103E0000183A1D9343461B691E934346DB6A1F9372
:103E100043469B6C209343465B6E219343469B58DD
:103E20001C32229343469B58183A239343465B69BE
:103E3000249343461B6B25934346DB6C26934346F2
:103E40009B6E279343469B581C32289343469B58AE
:103E5000183A299343469B692A9343465B6B2B93FD
:103E600043461B6D2C934346DB6E2D9343469B5874
:103E70001C322E9343469B58A8462F934B463293B1
:103E800002E0C0462404000043461F685B684246C7
:103E90009946434641469B68D2680E694D69089829
:103EA0004946049305920BF080FB049982460998D9
:103EB0000BF07BFB011C50460BF060FB391C82466B
:103EC00007980BF072FB011C50460BF057FB311C9E
:103ED00082460B980BF069FB291C83460C980BF06B
:103EE00064FB011C58460BF049FB059983460A9870
:103EF0000BF05BFB011C58460BF040FB011C5046CD
:103F00000BF03CFB4946206018980BF04EFB0499DF
:103F100082460D980BF049FB011C50460BF02EFB1E
:103F2000391C824617980BF040FB011C50460BF0E1
:103F300025FB311C82460F980BF037FB291C83466A
:103F400010980BF032FB011C58460BF017FB05993B
:103F500083460E980BF029FB011C58460BF00EFB14
:103F6000011C50460BF00AFB4946606012980BF0AA
:103F70001CFB0499824613980BF017FB011C50465A
:103F80000BF0FCFA391C824611980BF00EFB011C59
:103F900050460BF0F3FA311C824615980BF005FBE6
:103FA000291C834616980BF000FB011C58460BF0A9
:103FB000E5FA0599834614980BF0F7FA011C584668
:103FC0000BF0DCFA011C50460BF0D8FA4946A06011
:103FD00006980BF0EAFA049982461A980BF0E5FA73
:103FE000011C50460BF0CAFA391C824619980BF096
:103FF000DCFA011C50460BF0C1FA311C82461C98B9
:104000000BF0D3FA291C83461D980BF0CEFA011C45
:1040100058460BF0B3FA059983461B980BF0C5FA86
:10402000011C58460BF0AAFA011C50460BF0A6FAE8
:104030004946E0601F980BF0B8FA04998246209830
:104040000BF0B3FA011C50460BF098FA391C82466B
:104050001E980BF0AAFA011C50460BF08FFA311C87
:10406000824622980BF0A1FA291C834623980BF074
:104070009CFA011C58460BF081FA05998346219859
:104080000BF093FA011C58460BF078FA011C5046CD
:104090000BF074FA4946206125980BF086FA0499D2
:1040A000824626980BF081FA011C50460BF066FA06
:1040B000391C824624980BF078FA011C50460BF00C
:1040C0005DFA311C824628980BF06FFA291C834652
:1040D00029980BF06AFA011C58460BF04FFA059923
:1040E000834627980BF061FA011C58460BF046FAFC
:1040F000011C50460BF042FA494660612B980BF0C8
:1041000054FA049981462C980BF04FFA011C48464A
:104110000BF034FA391C81462A980BF046FA011C40
:1041200048460BF02BFA311C071C2E980BF03DFA79
:10413000291C061C2F980BF038FA011C301C0BF0C0
:104140001DFA0599051C2D980BF02FFA011C281C4F
:104150000BF014FA011C381C0BF010FA18239C46C3
:10416000A061FDAB1C34E044A34200D08CE6329B3E
:10417000D49A9946D39BD599D69CD79DD89ED99F42
:1041800006930792DA9BDB9A08910994DC99DD9CEF
:104190000A950B96DE9DDF9E0C970D93E09FE19BA9
:1041A0000E92E29A0F911094119512961397149310
:1041B0001592E399E49CE59DE69EE79FE89BE99ACA
:1041C00016911794EA99EB9C18951996EC9DED9E23
:1041D0001A971B93EE9FEF9B1C921D91F09AF199F9
:1041E0001E94F29C20962197229323922491259449
:1041F0001F95F39DF49EF59FF79AF69BF899F99C0D
:1042000026952796FA9DFB9E2897FC9F2A923A9A1C
:1042100029932B912C942D952E962F97D3AB32CAA0
:1042200032C332CA32C31168D3AC1960FD49FE4BA8
:1042300009681B680191FD49FD4A09682000009149
:1042400041A9FDF7D7FF319F419938680BF093F9E9
:104250004299834678680BF08EF943998246B86894
:104260000BF089F94499041CF8680BF084F945991E
:10427000051C38690BF07FF94699061C78690BF02C
:104280007AF9071C011C2A980BF08FF9311C804623
:1042900023980BF08AF9011C40460BF06FF9291C9A
:1042A00080461C980BF081F9011C40460BF066F922
:1042B000211C804615980BF078F9514604900E9811
:1042C0000BF073F9011C04980BF058F9594604904F
:1042D00007980BF06AF9011C04980BF04FF9011CC8
:1042E00040460BF04BF93A9A51680BF047F9391CEC
:1042F00004902B980BF059F9311C804624980BF050
:1043000054F9011C40460BF039F9291C80461D98D0
:104310000BF04BF9011C40460BF030F9211C804694
:1043200016980BF042F9514605900F980BF03DF9A5
:10433000011C05980BF022F95946059008980BF0DE
:1043400034F9011C05980BF019F9011C40460BF0DB
:1043500015F93A9A91680BF011F9391C05902C98CF
:104360000BF023F9311C804625980BF01EF9011C37
:1043700040460BF003F9291C80461E980BF015F9F6
:10438000011C40460BF0FAF8211C804617980BF0F0
:104390000CF95146319010980BF007F9011C319837
:1043A0000BF0ECF85946319009980BF0FEF8011C1F
:1043B00031980BF0E3F8011C40460BF0DFF83A9A15
:1043C000D1680BF0DBF8391C31902D980BF0EDF82B
:1043D000311C804626980BF0E8F8011C40460BF093
:1043E000CDF8291C80461F980BF0DFF8011C4046D1
:1043F0000BF0C4F8211C804618980BF0D6F85146F3
:10440000329011980BF0D1F8011C32980BF0B6F8ED
:10441000594632900A980BF0C8F8011C32980BF0FC
:10442000ADF8011C40460BF0A9F83A9A11690BF05F
:10443000A5F8391C32902E980BF0B7F8311C804645
:1044400027980BF0B2F8011C40460BF097F8291C96
:10445000804620980BF0A9F8011C40460BF08EF81E
:10446000211C804619980BF0A0F851463390129801
:104470000BF09BF8011C33980BF080F859463390F1
:104480000B980BF092F8011C33980BF077F8011C95
:1044900040460BF073F83A9A51690BF06FF85146A9
:1044A000339013980BF081F8211C80461A980BF07A
:1044B0007CF8011C40460BF061F8594680460C9888
:1044C0000BF073F8011C40460BF058F8311C804685
:1044D00028980BF06AF8391C34902F980BF065F887
:1044E000011C34980BF04AF8291C349021980BF0E9
:1044F0005CF8011C34980BF041F8011C40460BF0AD
:104500003DF83A9A91690BF039F8391C80462998A0
:104510000BF04BF8311C071C22980BF046F8011CDD
:10452000381C0BF02BF8291C061C1B980BF03DF8CF
:10453000011C301C0BF022F8211C051C14980BF0F8
:1045400034F85146041C0D980BF02FF8011C201C68
:104550000BF014F85946041C06980BF026F8011CC1
:10456000201C0BF00BF8011C281C0BF007F83A9AE2
:10457000D3AC11680BF002F83B9B049A18605A60A8
:10458000059A9A60319ADA60329A1A61339A5A61BE
:1045900042469A614B461B684A46A2934B465B686B
:1045A000A3934B469B68A4934B46DB68A5934B466D
:1045B0001B69A6934B465B69A7934B469B69A893DF
:1045C0004B46DB69A9934B461B6AAA934B465B6A31
:1045D000AB934B469B6AAC934B46DB6AAD934B4621
:1045E0001B6BAE934B465B6BAF934B469B6BB09391
:1045F0004B46DB6BB1934B461B6CB2934B465B6CEB
:10460000B3934B469B6CB4934B46DB6CB5934B46D4
:104610001B6DB6934B465B6DB7934B469B6DB89342
:104620004B4607E0D0140320DC140320D4140320ED
:104630000AE81C41DB6DB9934B461B6EBA934B469F
:104640005B6EBB934B469B6EBC934B46DB6EBD9340
:104650004B461B6FBE934B465B6FBF934B469B6FA6
:10466000C0934B46DB6FC1938023D358C2938423FE
:10467000D358C3938823D358C4938C23D358C5935A
:104680009023D358C6939423D358C7939823D358D1
:10469000C8939C23D358C993A023D358CA93A42367
:1046A000D358CB93A823D358CC93AC23D358CD93D2
:1046B000B023D358CE93B423D358CF93B823D35831
:1046C000D093BC23D358D193C023D358D293309BDB
:1046D0003092984643461F685B6842469946434677
:1046E00041469B68D2680E694D690D98494604930E
:1046F00005920AF05AFF0499824614980AF055FF71
:10470000011C50460AF03AFF391C824606980AF00E
:104710004CFF011C50460AF031FF311C82462298A2
:104720000AF043FF291C834629980AF03EFF011C2A
:1047300058460AF023FF059983461B980AF035FF77
:10474000011C58460AF01AFF011C50460AF016FFD9
:10475000494620600E980AF028FF04998246159871
:104760000AF023FF011C50460AF008FF391C82465C
:1047700007980AF01AFF011C50460AF0FFFE311C90
:10478000824623980AF011FF291C83462A980AF0D2
:104790000CFF011C58460AF0F1FE059983461C984F
:1047A0000AF003FF011C58460AF0E8FE011C5046BF
:1047B0000AF0E4FE494660600F980AF0F6FE04999C
:1047C000824616980AF0F1FE011C50460AF0D6FE09
:1047D000391C824608980AF0E8FE011C50460AF08F
:1047E000CDFE311C824624980AF0DFFE291C834648
:1047F0002B980AF0DAFE011C58460AF0BFFE059914
:1048000083461D980AF0D1FE011C58460AF0B6FEF8
:10481000011C50460AF0B2FE4946A06010980AF00A
:10482000C4FE0499824617980AF0BFFE011C504648
:104830000AF0A4FE391C824609980AF0B6FE011C53
:1048400050460AF09BFE311C824625980AF0ADFEC8
:10485000291C83462C980AF0A8FE011C58460AF031
:104860008DFE059983461E980AF09FFE011C58464E
:104870000AF084FE011C50460AF080FE4946E060C2
:1048800011980AF092FE0499824618980AF08DFE5B
:10489000011C50460AF072FE391C82460A980AF042
:1048A00084FE011C50460AF069FE311C824626989F
:1048B0000AF07BFE291C83462D980AF076FE011C27
:1048C00058460AF05BFE059983461F980AF06DFE74
:1048D000011C58460AF052FE011C50460AF04EFEDA
:1048E0004946206112980AF060FE049982461998A0
:1048F0000AF05BFE011C50460AF040FE391C82465D
:104900000B980AF052FE011C50460AF037FE311C8B
:10491000824627980AF049FE291C83462E980AF001
:1049200044FE011C58460AF029FE0599834620984A
:104930000AF03BFE011C58460AF020FE011C5046BE
:104940000AF01CFE4946606113980AF02EFE049995
:1049500081461A980AF029FE011C48460AF00EFE0C
:10496000391C81460C980AF020FE011C48460AF0CA
:1049700005FE311C071C28980AF017FE291C061C8E
:104980002F980AF012FE011C301C0AF0F7FD059961
:10499000051C21980AF009FE011C281C0AF0EEFDF6
:1049A000011C381C0AF0EAFD18239C46FFABA061ED
:1049B00014331C34E044A34200D08BE6309BA2ADFC
:1049C00099463C93C4234C46C8464B4408930794ED
:1049D0004246D26843464146914642469E694C68EB
:1049E000096892685F691B690491301CFD99069300
:1049F00005920AF0DAFDF6998246381C0AF0D5FDD8
:104A0000011C50460AF0BAFDEF99824606980AF05A
:104A1000CCFDE899834648460AF0C7FD011C58467C
:104A20000AF0ACFD011C50460AF0A8FDE19982464F
:104A300005980AF0BAFDDA998346201C0AF0B5FD04
:104A4000011C58460AF09AFDD399834604980AF04F
:104A5000ACFD011C58460AF091FD011C50460AF0BD
:104A60008DFD011C28680AF086FD2860FE99301C27
:104A70000AF09BFDF7998246381C0AF096FD011C4E
:104A800050460AF07BFDF099824606980AF08DFDAB
:104A9000E999834648460AF088FD011C58460AF009
:104AA0006DFD011C50460AF069FDE29982460598A9
:104AB0000AF07BFDDB998346201C0AF076FD011C81
:104AC00058460AF05BFDD499834604980AF06DFDC0
:104AD000011C58460AF052FD011C50460AF04EFDDA
:104AE000011C68680AF047FDFF996860301C0AF0F5
:104AF0005CFDF8998246381C0AF057FD011C5046AF
:104B00000AF03CFDF199824606980AF04EFDEA99BA
:104B1000834648460AF049FD011C58460AF02EFD1E
:104B2000011C50460AF02AFDE399824605980AF0D6
:104B30003CFDDC998346201C0AF037FD011C5846D9
:104B40000AF01CFDD599834604980AF02EFD011C3D
:104B500058460AF013FD011C50460AF00FFD011CD7
:104B6000A8680AF008FDFFAB5968A860301C043340
:104B70000AF01BFDF9998246381C0AF016FD011C4B
:104B800050460AF0FBFCF299824606980AF00DFDA9
:104B9000EB99834648460AF008FD011C58460AF086
:104BA000EDFC011C50460AF0E9FCE49982460598A8
:104BB0000AF0FBFCDD998346201C0AF0F6FC011C80
:104BC00058460AF0DBFCD699834604980AF0EDFCBF
:104BD000011C58460AF0D2FC011C50460AF0CEFCDB
:104BE000011CE8680AF0C7FCFFAB9968E860301C5C
:104BF00008330AF0DAFCFA998246381C0AF0D5FC30
:104C0000011C50460AF0BAFCF399824606980AF055
:104C1000CCFCEC99834648460AF0C7FC011C584678
:104C20000AF0ACFC011C50460AF0A8FCE59982464B
:104C300005980AF0BAFCDE998346201C0AF0B5FC00
:104C4000011C58460AF09AFCD799834604980AF04A
:104C5000ACFC011C58460AF091FC011C50460AF0BD
:104C60008DFC011C28690AF086FCFFABD96828611D
:104C7000301C0C330AF099FCFB998246381C0AF070
:104C800094FC011C50460AF079FCF499824606987F
:104C90000AF08BFCED99834648460AF086FC011C1D
:104CA00058460AF06BFC011C50460AF067FCE69976
:104CB000824605980AF079FCDF998346201C0AF0A9
:104CC00074FC011C58460AF059FCD8998346049894
:104CD0000AF06BFC011C58460AF050FC011C5046BF
:104CE0000AF04CFC011C68690AF045FCEE99686109
:104CF00048460AF05AFCF599814606980AF055FC98
:104D0000011C48460AF03AFCFC998146381C0AF01E
:104D10004CFCFFAB1969071C301C10330AF045FC32
:104D2000011C381C0AF02AFC011C48460AF026FC2B
:104D3000E099061C201C0AF038FCE799041C059831
:104D40000AF033FC011C201C0AF018FCD999041C41
:104D500004980AF02AFC011C201C0AF00FFC011C1C
:104D6000301C0AF00BFC011CA8690AF004FC1C238F
:104D70009C46089BE044A8611C35984500D027E676
:104D8000079BA29A99461A60A39A5A60A49A9A60BD
:104D9000A59ADA60A69A1A61A79A5A61A89A9A61A6
:104DA000A99ADA61AA9A1A62AB9A5A62AC9A9A6282
:104DB000AD9ADA62AE9A1A63AF9A5A63B09A9A635E
:104DC000B19ADA63B29A1A64B39A5A64B49A9A643A
:104DD000B59ADA64B69A1A65B79A5A65B89A9A6516
:104DE000B99ADA65BA9A1A66BB9A5A66BC9A9A66F2
:104DF000BD9ADA66BE9A1A67BF9A5A67C09A9A67CE
:104E0000C19ADA674A468023C299D150C3990433C4
:104E1000D150C4990433D150C5990433D150C699A7
:104E20000433D150C7990433D150C8990433D150B9
:104E3000C9990433D150CA990433D150CB99043362
:104E4000D150CC990433D150CD990433D150CE995F
:104E50000433D150CF990433D150D0990433D15079
:104E6000D1990433D150D2990433D1503AAA9446FF
:104E70004F4BA2AA63441B6813CB13C24D4BD3AC58
:104E800063441B6807CB07C43A9B3B9D00934A4B86
:104E900028006344A2A91B68D3AAFDF789F82B0058
:104EA000D3AA23CB23C213CB13C23AA91B688C46C7
:104EB00013603EAA11003E4B63441B6831CB31C1E5
:104EC0003C4BA2A963441B6831CB31C13A4BD3A9F7
:104ED00063441B6871A80093A2ABFDF7CFFAD3AB74
:104EE00007931C00719B0993789B10937F9B1793EA
:104EF000869B1E938D9B2593949B2C939B9B339316
:104F0000729B0A93799B1193809B1893879B1F93A5
:104F10008E9B2693959B2D939C9B3493739B0B9315
:104F20007A9B1293819B1993889B20938F9B279345
:104F3000969B2E939D9B3593749B0C937B9B139315
:104F4000829B1A93899B2193909B2893979B2F93E5
:104F50009E9B3693759B0D937C9B1493839B1B9315
:104F60008A9B2293919B2993989B30939F9B379385
:104F7000769B0E937D9B1593849B1C938B9B239315
:104F8000929B2A93999B3193A09B3893779B0F9385
:104F90007E9B1693859B1D938C9B2493939B2B93B5
:104FA0009A9B3293A19B3C9D39934B463C9305E0E1
:104FB00028080000380800003C080000E868AE69D6
:104FC0008146A96828692B686A6880460691301C6A
:104FD0003399049305920AF0E8FA6F6982462C9996
:104FE000381C0AF0E2FA011C50460AF0C7FA25996B
:104FF000824640460AF0D9FA1E99834648460AF08E
:10500000D4FA011C58460AF0B9FA011C50460AF0BD
:10501000B5FA1799824606980AF0C7FA109983469E
:1050200005980AF0C2FA011C58460AF0A7FA099935
:10503000834604980AF0B9FA011C58460AF09EFA11
:10504000011C50460AF09AFA34992060301C0AF08C
:10505000ACFA2D998246381C0AF0A7FA011C50467A
:105060000AF08CFA2699824640460AF09EFA1F9969
:10507000834648460AF099FA011C58460AF07EFA1F
:10508000011C50460AF07AFA1899824606980AF0EE
:105090008CFA1199834605980AF087FA011C584644
:1050A0000AF06CFA0A99834604980AF07EFA011C09
:1050B00058460AF063FA011C50460AF05FFA359927
:1050C0006060301C0AF071FA2E998246381C0AF092
:1050D0006CFA011C50460AF051FA27998246404664
:1050E0000AF063FA2099834648460AF05EFA011CEA
:1050F00058460AF043FA011C50460AF03FFA199943
:10510000824606980AF051FA1299834605980AF0E9
:105110004CFA011C58460AF031FA0B998346049860
:105120000AF043FA011C58460AF028FA011C5046BE
:105130000AF024FA3699A060301C0AF036FA2F994A
:105140008246381C0AF031FA011C50460AF016FA61
:105150002899824640460AF028FA21998346484613
:105160000AF023FA011C58460AF008FA011C5046BE
:105170000AF004FA1A99824606980AF016FA139968
:10518000834605980AF011FA011C58460AF0F6F910
:105190000C99834604980AF008FA011C58460AF054
:1051A000EDF9011C50460AF0E9F93799E060301C2E
:1051B0000AF0FBF930998246381C0AF0F6F9011C16
:1051C00050460AF0DBF92999824640460AF0EDF98B
:1051D0002299834648460AF0E8F9011C58460AF02D
:1051E000CDF9011C50460AF0C9F91B998246069870
:1051F0000AF0DBF91499834605980AF0D6F9011CE8
:1052000058460AF0BBF90D99834604980AF0CDF987
:10521000011C58460AF0B2F9011C50460AF0AEF9DA
:1052200038992061301C0AF0C0F931998246381C47
:105230000AF0BBF9011C50460AF0A0F92A998246EF
:1052400040460AF0B2F92399834648460AF0ADF980
:10525000011C58460AF092F9011C50460AF08EF9DA
:105260001C99824606980AF0A0F91599834605987C
:105270000AF09BF9011C58460AF080F90E99834602
:1052800004980AF092F9011C58460AF077F9011CBB
:1052900050460AF073F94946606124980AF085F98E
:1052A000414681462B980AF080F9011C48460AF0D5
:1052B00065F9391C804632980AF077F9311C071CD1
:1052C00039980AF072F9011C381C0AF057F9011CD0
:1052D00040460AF053F90599061C16980AF065F93C
:1052E0000699071C1D980AF060F9011C381C0AF089
:1052F00045F90499071C0F980AF057F9011C381C4E
:105300000AF03CF9011C301C0AF038F9089B1C35E6
:10531000A0611C349D4200D050E63C9BA2AC994653
:10532000F6AB0693DAAB08934B463C943D93079B50
:10533000586D1A688146996B186F0492069A8046D8
:10534000059148461E99DD691768D6690AF02DF95E
:105350002599824640460AF028F9011C50460AF079
:105360000DF92C998246381C0AF01FF933998346AF
:10537000301C0AF01AF9011C58460AF0FFF8011C0B
:1053800050460AF0FBF810998246281C0AF00DF9E5
:105390001799834605980AF008F9011C58460AF047
:1053A000EDF80999834604980AF0FFF8011C584665
:1053B0000AF0E4F8011C50460AF0E0F820601F995A
:1053C00048460AF0F2F82699824640460AF0EDF87F
:1053D000011C50460AF0D2F82D998246381C0AF07A
:1053E000E4F834998346301C0AF0DFF8011C584673
:1053F0000AF0C4F8011C50460AF0C0F81199824620
:10540000281C0AF0D2F81899834605980AF0CDF8BE
:10541000011C58460AF0B2F80A99834604980AF02B
:10542000C4F8011C58460AF0A9F8011C50460AF0BD
:10543000A5F82099606048460AF0B7F82799824697
:1054400040460AF0B2F8011C50460AF097F82E992F
:105450008246381C0AF0A9F835998346301C0AF0B8
:10546000A4F8011C58460AF089F8011C50460AF0BD
:1054700085F812998246281C0AF097F819998346F4
:1054800005980AF092F8011C58460AF077F80B9933
:10549000834604980AF089F8011C58460AF06EF811
:1054A000011C50460AF06AF82199A06048460AF0AB
:1054B0007CF82899824640460AF077F8011C50464D
:1054C0000AF05CF82F998246381C0AF06EF836997B
:1054D0008346301C0AF069F8011C58460AF04EF861
:1054E000011C50460AF04AF813998246281C0AF01B
:1054F0005CF81A99834605980AF057F8011C58463B
:105500000AF03CF80C99834604980AF04EF8011C06
:1055100058460AF033F8011C50460AF02FF8229939
:10552000E06048460AF041F82999824640460AF070
:105530003CF8011C50460AF021F830998246381C8C
:105540000AF033F837998346301C0AF02EF8011C14
:1055500058460AF013F8011C50460AF00FF8149947
:105560008246281C0AF021F81B99834605980AF008
:105570001CF8011C58460AF001F80D99834604985E
:105580000AF013F8011C584609F0F8FF011C5046B8
:1055900009F0F4FF2399206148460AF006F82A9999
:1055A000824640460AF001F8011C504609F0E6FF29
:1055B00031998246381C09F0F8FF38998346301C2F
:1055C00009F0F3FF011C584609F0D8FF011C5046B2
:1055D00009F0D4FF15998246281C09F0E6FF1C99B2
:1055E0008346059809F0E1FF011C584609F0C6FF03
:1055F0000E998346049809F0D8FF011C584609F01B
:10560000BDFF011C504609F0B9FF4946606124986E
:1056100009F0CBFF414681462B9809F0C6FF011CDB
:10562000484609F0ABFF391C8046329809F0BDFFAF
:10563000311C071C399809F0B8FF011C381C09F00F
:105640009DFF011C404609F099FF291C061C169875
:1056500009F0ABFF0599051C1D9809F0A6FF011C78
:10566000281C09F08BFF0499051C0F9809F09DFF79
:10567000011C281C09F082FF011C301C09F07EFF70
:10568000069A079B04320692089A0433A061079396
:105690001C34934200D04AE63AAA94463D9B764A8F
:1056A0009946754B624463441B6812681B68D3AC0F
:1056B0000793714B63441B68DB6908936E4B63442B
:1056C0001B689B6B09936C4B63441B685B6D0A936F
:1056D000694B63441B681B6F0B938C23D358664A3A
:1056E0000C93654B624463441B685B680D93624B8B
:1056F00063441B681B6A0E935F4B63441B68DB6B40
:105700000F935D4B63441B689B6D10935A4B63442E
:105710001B685B6F126811939023D358564A1293FB
:10572000554B624463441B6812689B681393524B49
:1057300063441B685B6A14934F4B63441B681B6C88
:1057400015934D4B63441B68DB6D16934A4B6344C2
:105750001B689B6F17939423D358474A1893464B63
:10576000624463441B68DB681993434B63441B68C2
:105770009B6A1A93404B63441B685B6C1B933E4BC4
:1057800063441B6812681B6E1C933B4B63441B688D
:10579000DB6F1D939823D358374A1E93364B6244D0
:1057A00063441B6812681B691F93334B63441B6877
:1057B000DB6A2093304B63441B689B6C21932E4B18
:1057C00063441B685B6E22938023D3582A4A239339
:1057D0009C2362441268D358274A2493264B624480
:1057E00063441B685B692593234B63441B681B6BF5
:1057F0002693214B126863441B68DB6C27931E4B76
:1058000063441B689B6E28938423D3581A4A2993B8
:10581000A02362441268D358174A2A93164B624455
:1058200063441B6812689B692B93134B63441B688A
:105830005B6B2C93104B63441B681B6D2D930E4BBD
:1058400063441B68DB6E2E938823D3580A4A2F9338
:10585000A42362441268D35822003093074B634458
:105860001B689846D3AB06939023434431934B4631
:1058700044469046329303E0340800002C080000B0
:105880006368E2689946A3680899484604930592BC
:1058900009F08BFE09998246049809F086FE011CE6
:1058A000504609F06BFE276882460799381C09F0BC
:1058B0007CFE011C504609F061FE266982460B9968
:1058C000301C09F072FE656983460C99281C09F0AA
:1058D0006CFE011C584609F051FE0A998346059852
:1058E00009F063FE011C584609F048FE011C5046B1
:1058F00009F044FE414608600E99484609F055FEFD
:105900000F998246049809F050FE011C504609F098
:1059100035FE0D998246381C09F047FE011C5046A1
:1059200009F02CFE11998246301C09F03EFE1299B6
:105930008346281C09F039FE011C584609F01EFE5A
:1059400010998346059809F030FE011C584609F06D
:1059500015FE011C504609F011FE4146486014999D
:10596000484609F022FE15998246049809F01DFE6A
:10597000011C504609F002FE13998246381C09F0BA
:1059800014FE011C504609F0F9FD17998246301C9F
:1059900009F00BFE18998346281C09F006FE011C2D
:1059A000584609F0EBFD16998346059809F0FDFD70
:1059B000011C584609F0E2FD011C504609F0DEFDCD
:1059C000414688601A99484609F0EFFD1B998246C6
:1059D000049809F0EAFD011C504609F0CFFD199921
:1059E0008246381C09F0E1FD011C504609F0C6FD55
:1059F0001D998246301C09F0D8FD1E998346281C4B
:105A000009F0D3FD011C584609F0B8FD1C998346E6
:105A1000059809F0CAFD011C584609F0AFFD011CAC
:105A2000504609F0ABFD4146C8602099484609F050
:105A3000BCFD21998246049809F0B7FD011C50462F
:105A400009F09CFD1F998246381C09F0AEFD011C2F
:105A5000504609F093FD23998246301C09F0A5FDBC
:105A600024998346281C09F0A0FD011C584609F022
:105A700085FD22998346059809F097FD011C58463B
:105A800009F07CFD011C504609F078FD4146086193
:105A90002699484609F089FD27998246049809F01D
:105AA00084FD011C504609F069FD25998246381C89
:105AB00009F07BFD011C504609F060FD29998246E2
:105AC000301C09F072FD2A998346281C09F06DFDEF
:105AD000011C584609F052FD28998346059809F0A3
