:020000041000EA
:1000000000B5324B212058609868022188439860DF
:10001000D860186158612E4B002199600221596106
:100020000121F02299502B49196001219960352056
:1000300000F044F80222904214D00621196600F024
:1000400034F8196E01211966002018661A6600F04E
:100050002CF8196E196E196E052000F02FF8012189
:100060000842F9D1002199601B49196000215960AB
:100070001A491B48016001219960EB211966A021F2
:10008000196600F012F800219960164914480160C1
:100090000121996001BC002800D000471248134993
:1000A000086003C880F30888084703B5996A0420EC
:1000B0000142FBD001200142F8D103BD02B5186610
:1000C0001866FFF7F2FF186E186E02BD00000240BE
:1000D000000000180000070000035F00212200005C
:1000E000F4000018222000A00001001008ED00E03C
:1000F00000000000000000000000000074B24E7A12
:1001000000200420F7010010C3010010C5010010F9
:10011000C1010010C1010010C1010010C101001097
:10012000C1010010C1010010C1010010C701001081
:10013000C1010010C1010010C9010010CB01001065
:10014000CD010010CD010010CD010010CD01001037
:10015000CD010010CD010010CD010010CD01001027
:10016000CD010010CD010010CD010010CD01001017
:10017000CD010010CD010010CD010010CD01001007
:10018000CD010010CD010010CD010010CD010010F7
:10019000CD010010CD010010CD010010CD010010E7
:1001A000CD010010CD010010CD010010CD010010D7
:1001B000CD010010CD010010CD010010CD010010C7
:1001C00000BE00BE00BE00BE00BE00BE00F04BF888
:1001D000103800BEF2EB88719CF80510BCF80510D1
:1001E0003402001090A31AE700202149086006C8D5
:1001F00081F3088810471F48006800282FD10DA4FC
:100200000ECC002902D000F012F8F9E71A491B4A77
:10021000002000E001C19142FCD1194988471949E9
:1002200088471949884700BEFDE701C901C29A42C3
:10023000FBD37047BCF80510C0000020242200202A
:10024000201A06100000042000000420201A0610C6
:1002500000100420001004200000000070470B482C
:100260000FF092F80047EFF30580C0B2704700002E
:1002700008ED00E0000000D0302200200C500320E8
:1002800045D700100D0300106DD800105756000020
:1002900006005250ABB36053683905100600525047
:1002A000861C030278390510060052505422A29D84
:1002B0008439051005005250DE65F468201A0610D6
:1002C000F8B5C04610B5064C2378002B07D1054B76
:1002D000002B02D0044800E000BF0123237010BDB2
:1002E000402700200000000060330510044B10B5CB
:1002F000002B03D00349044800E000BF10BDC046F6
:1003000000000000442700206033051070B519205C
:100310000BF00EFDD02380221B0692045A62274860
:1003200010F0E2FB10F030FD254810F0DDFB00F08E
:1003300067F8244810F0D8FB07F000FC224810F0C2
:10034000D3FB09F0D5F9214810F0CEFB07F092FE5F
:1003500002F082F800F050F91D4810F0C5FB0AF0D9
:100360005FFC002205241B4B1A7006F005FF1A489B
:1003700010F0BAFB194D013C2100280010F0F8FCE8
:10038000FA2080000CF042FB002CF4D10A2010F07F
:100390005BFB0122002112480BF0A6FF114813F06D
:1003A0000BFA0122104B114C1A702378012BFCD14F
:1003B00009F05AFB2378012BFAD0F6E760330510D9
:1003C000703305107C330510883305109833051001
:1003D000A8330510F24F0320B8330510C4330510BD
:1003E000CC4E0320AD9C0010F14F0320F64F0320AC
:1003F00010B5024813F008FD10BDC046382E03208A
:10040000092370B586B0059304330493023B03932C
:10041000013B0293023B324D324C0193324B22009E
:100420003249334800932B0006F064FB142006F099
:100430005DFBFA2080000CF0E9FA2E4E210032001C
:10044000280006F06FFD3378682B08D02A4C200076
:1004500010F04AFBFA2080000CF0D8FAF7E7737826
:100460003D2BF3D101222100280006F07FFD234E11
:1004700032002100280006F0B3FD3378002BF7D1BD
:1004800001222100280006F02FFC0121200006F0A7
:100490000DFC0321200006F09FFB0321280006F03D
:1004A000C9FC1321200006F009FE1221200006F0ED
:1004B00043FE0021200006F021FE0321200006F06B
:1004C000ABFD0221200006F0C3FD5521200006F0FF
:1004D000A1FB1821280006F047FC06B070BDC046FD
:1004E000EC1403206828002040420F00D41500209F
:1004F000CC150020A84F0320D83305100950032045
:10050000F0B5C646334C344D344E2200290030003D
:1005100000B506F019FD6378DB439B0720D02378F4
:100520001B0702D480BCB846F0BD2D4C062200212A
:10053000200010F057F92100300006F0D5FC002310
:10054000E05E06F03FFB274D28600223E05E06F0E8
:1005500039FB68600423E05E06F034FBA860E1E745
:10056000214B062298461800002110F03BF91F4F3E
:1005700006220021380010F035F94146280006F027
:1005800095FC3900280006F073FC43460020185EF5
:1005900006F004FB4346164D28600220185E06F064
:1005A000FDFA434668600420185E06F0F7FAA8607A
:1005B0000023F85E06F0FCFA0E4D28600223F85E78
:1005C00006F0F6FA68600423F85E06F0F1FAA86017
:1005D000A5E7C046E044032068280020EC1403206F
:1005E000A8340320EC39032098340320A0340320DE
:1005F0003033032050330320F0B5C64600B510F069
:10060000C3FB254925480CF0D5FF03211A200BF028
:100610005FFB03211B200BF05BFB002201211A2052
:100620000BF06EFB002201211B200BF069FB1C4824
:100630000CF0ECF91B4C1C4E23781C4DDB070ED440
:100640001B4B01279846210030880BF045F84346A4
:10065000287018680CF0DAF923781F42F3D030883C
:100660000AF018FE0221287030880AF069FF142170
:10067000287030880AF09CFE1421287030880BF016
:1006800005F8287030880AF069FE2870094810F0D3
:100690002BFA80BCB846F0BD801A0600B8160020C0
:1006A000B80B00000A500320DC150020F94F03208E
:1006B000E0150020EC330510F0B55746DE464E46F7
:1006C0004546E0B58BB00891924619000590099314
:1006D000DA1703238C46134063449B109B00984613
:1006E000002B00DC90E05246159B00249B000193F8
:1006F000149B9B1A159A9B1A089A9B0002935368A5
:100700001268190194460491069251469A00039288
:1007100052468D000021013A92000792002289463C
:100720005900DE00CB189B009B46130042466544EF
:100730000092019A94469C44039B1A199F195346B0
:10074000002B1EDD069B059819196346804600980C
:100750009B00434480460094086818600098081A7B
:10076000845804315C6084599C60C059D86010334F
:100770008D42F1D143460799009363468C4604337A
:100780009C440421029B5A4463448C461400049AFE
:100790003E00E1449446009A5E4465444A45C8DC04
:1007A0001A00009B9846099B434526DD1499159C29
:1007B000089B0D1B514609CB6D1A00291DDD4146D2
:1007C0009E004B439B00C01853469C00059B474628
:1007D0009C46099BAB469846159B994600234A4484
:1007E00091006144C558CD5004339C42FAD1524423
:1007F00001375A448019B845F0D10BB0F0BCBB4664
:10080000B246A946A046F0BD0022CCE7F0B5474667
:10081000CE4680B51F00002B1DDD002A1BDD930096
:10082000C0180B68002498464B689100D2004942DA
:1008300052428C4691469B00614645182900A20011
:1008400042441668D21840C18142FAD14A46013466
:10085000A81AA742F0D1C0BCB946B046F0BDC04608
:10086000F0B5DE464E46574645460023E0B51360D8
:1008700083688BB0049305239B4600235E46099250
:1008800002680293013B07900691039208930523A7
:10089000049C9B1B5C439846029BA4009C46039BC4
:1008A00064449C46644423685D0063686D085F008F
:1008B0007F08291C381C0FF031FD002800D1CCE046
:1008C0003D1C0127731C9A46022B37D9A368291CAB
:1008D0005B005B08181C99460FF020FD002801D032
:1008E0004D4602275346032B28D0E368291C5B00A2
:1008F0005B08181C99460FF011FD002801D04D46E9
:1009000003275346042B19D02369281C5B005B087E
:10091000191C99460FF0F4FC002801D04D4604271D
:100920005346062B0AD16469281C64006408211C04
:100930000FF0E6FC002801D00527251C069B029A33
:10094000474400219F50281C0FF0D2FC002800D102
:1009500085E0089B013300D1FEE0062347469B1B40
:100960009C46079A05939268574367440492BF00D8
:100970000599049B0C009A005C43029B00929C46E4
:10098000039BA5001A0065448C4691469B469246FF
:1009900090463B1D6444A400994404335D445C4488
:1009A0009A44BB4404331037944698443B000027D4
:1009B000634401935B46296818680FF06AFC011CC8
:1009C00020680FF04CFC2060012E2DD94B46286882
:1009D00019680FF05EFC011C60680FF040FC60605D
:1009E000022E21D05346286819680FF052FC011CD2
:1009F000A0680FF034FCA060032E15D04346286891
:100A000019680FF046FC011CE0680FF028FCE0605C
:100A1000052E09D1019B296818680FF03AFC011CCA
:100A200020690FF01CFC2061009B01379C46654447
:100A30006444BE42BED1029B013E04330293059B37
:100A4000052B00D023E71A00069B5A610BB0F0BCBF
:100A5000BB46B246A946A046F0BD002732E747454F
:100A600030D0039902988C46BF0067448446079AA9
:100A70003C6892680B5892000C5061443B608918A6
:100A8000BB1808681C680C60186089189B180868F7
:100A90001C680C60186089189B1808681C680C603A
:100AA000186089189B1808681C680C601860891801
:100AB0009B1818680A6808601A60099A13680093FE
:100AC000013313604746079B039A9B685F43049377
:100AD0000623991B43468C46FB189B0067449C5891
:100AE000BF00D51928680591211C0FF0BEFB2860B6
:100AF000012E00D83CE7039B3D1D9C4665442868B9
:100B0000211C0FF0B2FB2860022E00D130E7039BBE
:100B10003D009C46083565442868211C0FF0A5FB64
:100B20002860032E00D123E7039B3D009C460C3533
:100B300065442868211C0FF098FB2860042E00D122
:100B400016E7039A3D009446103565442868211C39
:100B50000FF08BFB28600BE7062347469B1B9C4648
:100B600005934346079A0893926857436744049253
:100B7000BF00FDE6F0B55746DE464E464546E0B5B9
:100B800099B01493249B8246259C26985D1C00D125
:100B9000229B651C00D1229C239DEE170325354026
:100BA000239EB4466544AD10AF000725229E0E97E4
:100BB000AE4335000096149E002E00DC88E29B00B8
:100BC0001693230110930301D31817936B1EDB08B0
:100BD00001330391D9015B010F93A3007C432018DB
:100BE00080001193131815930023D3461391089393
:100BF0000E9B002B00DCC2E10F9A039B94466344DA
:100C00001293179BD8460193002302930298434600
:100C100001000CCB089C5943A4466144890051183B
:100C20000991411C59436144890051180A91811C62
:100C300059436144890051180B91C11C4B436344D3
:100C40009B00D318019E0C93009B3400002B00DC0A
:100C500045E2039B0025994600234C46AA46AB4635
:100C6000A946069504952F1C059507950D932568B3
:100C70003168281C0FF00DFB59460FF0F3FA71682C
:100C80008346281C0FF005FB51460FF0EBFAB168C4
:100C90008246281C0FF0FDFA07990FF0E3FAF1687D
:100CA0000790281C0FF0F5FA05990FF0DBFA059074
:100CB00065683169281C0FF0ECFA391C0FF0D2FA84
:100CC0007169071C281C0FF0E4FA04990FF0CAFAA6
:100CD000B1690490281C0FF0DCFA06990FF0C2FAF3
:100CE000F1690690281C0FF0D4FA49460FF0BAFAC1
:100CF0008146A568316A281C0FF0CBFA59460FF0DF
:100D0000B1FA716A8346281C0FF0C3FA51460FF0FE
:100D1000A9FAB16A8246281C0FF0BBFA07990FF0B6
:100D2000A1FAF16A0790281C0FF0B3FA05990FF0A9
:100D300099FA0590E568316B281C0FF0AAFA391C66
:100D40000FF090FA716B071C281C0FF0A2FA04999F
:100D50000FF088FAB16B0490281C0FF09AFA0699EC
:100D60000FF080FAF16B0690281C0FF092FA4946BA
:100D70000FF078FA81462569316C281C0FF089FA4A
:100D800059460FF06FFA716C8346281C0FF081FAF8
:100D900051460FF067FAB16C8246281C0FF079FAC1
:100DA00007990FF05FFAF16C0790281C0FF071FAA9
:100DB00005990FF057FA05906569316D281C0FF001
:100DC00068FA391C0FF04EFA716D071C281C0FF0E1
:100DD00060FA04990FF046FAB16D0490281C0FF0E8
:100DE00058FA06990FF03EFAF16D0690281C0FF0A4
:100DF00050FA49460FF036FA8146A569316E281C33
:100E00000FF047FA59460FF02DFA716E8346281CF1
:100E10000FF03FFA51460FF025FAB16E8246281CBA
:100E20000FF037FA07990FF01DFAF16E0790281CA2
:100E30000FF02FFA05990FF015FA0590E569316F5B
:100E4000281C0FF026FA391C0FF00CFA716F071CE2
:100E5000281C0FF01EFA04990FF004FAB16F0490E9
:100E6000281C0FF016FA06990FF0FCF9F16F0690A6
:100E7000281C0FF00EFA49460FF0F4F9814680362F
:100E800020340D9B009A08330D939A4200DDEEE664
:100E9000139B019C9C46051C5946381C64440FF06A
:100EA000E1F95146071C04980FF0DCF90799061C7C
:100EB00006980FF0D7F905998146281C0FF0D2F952
:100EC000129B051C9A46229A009B9A4230DDAB4643
:100ED0000493534620CB2168281C9A460FF0D9F979
:100EE000011C381C0FF0BEF96168071C281C0FF0AC
:100EF000D0F9011C301C0FF0B5F9A168061C281CA4
:100F00000FF0C7F9011C48460FF0ACF9E1688146C3
:100F1000281C0FF0BEF9011C58460FF0A3F98346B8
:100F2000049B229A0133103404939A42D1D1051CB8
:100F3000311C0A9E30680FF092F9391C099F041C7D
:100F400038680FF08CF9291C0C9D386034602868D3
:100F50000FF085F90B9E4946041C30680FF07FF9AD
:100F60001099019A8C46029B624401920E9A0433B6
:100F7000306002932C609A4200DD47E6C3460F9A28
:100F8000039B944663440E9A0293239B9246159DBD
:100F9000934200DC90E05B465C6853465C43089BF0
:100FA0002F009C465B461B6864449C46009BA40043
:100FB0006444002B00DC99E00023039F99463B002A
:100FC000A04600262F001C00396820680FF061F948
:100FD000311C0FF047F9061C796860680FF059F969
:100FE000311C0FF03FF9061CB968A0680FF051F9E9
:100FF000311C0FF037F9061CF968E0680FF049F969
:10100000311C0FF02FF9061C396920690FF041F9E6
:10101000311C0FF027F9061C796960690FF039F966
:10102000311C0FF01FF9061CB969A0690FF031F9E6
:10103000311C0FF017F9061CF969E0690FF029F966
:10104000311C0FF00FF9061C2037203408239C4672
:10105000009BE1444B45B7DC44460F9BEF18029BD5
:101060000193229A009B9A4217DD994600239846E5
:1010700043464246F958019B98580FF00AF9011C63
:10108000301C0FF0EFF8061C01239C460333E144AB
:101090009C46229BE0444B45EAD12068311C0FF06E
:1010A000DEF801239C46119BE2449C46239B206072
:1010B0006544534500D06EE71699039A8C46089B09
:1010C00062440392149A013308939A4200D08FE548
:1010D00019B0F0BCBB46B246A946A046F0BD0025FB
:1010E000039BA9469A462E1C2F1CECE6039B002668
:1010F0000193B6E7F0B55746DE464E4645469C247A
:10110000E0B5BDB006AF3C19FB6384232060982492
:10111000BA6694225B003C19FB1821601C68BA185F
:101120002369FB67A3681360834202DD9423FB18E5
:10113000186094239821FB187918FA6F1B680D68C2
:10114000534355432268002A00D1DBE29B007B66B3
:101150008C23FB181A6090220023BA18136063686E
:10116000AA003A66002B00D1ECE28822BB6700237C
:10117000BA181360C84D2B78BFF35B8FDB0700D420
:10118000FDE2C64CA4220423BA1813609433FB1862
:101190001B686068002B18DD9C237A1DFB18FF324A
:1011A0001B6812681900934200DAFFE209010EF091
:1011B00045F90323C2171340A4221B189B109B0060
:1011C000BA181360042B00DAEBE29C23FB181C68AE
:1011D000002C00DC72E2FB6BFD6F18006A4250438A
:1011E000F86118008021661B7043F866180001330F
:1011F0005A4392007918BA61621E0E601100594379
:1012000089008846B96E1B018C46E04441467964EA
:10121000A90049423961A1007C1CFF3424685B426B
:10122000A446A42461443964791DFF313C1909683E
:101230002468FB606143B962B02183005B42791886
:101240000B600300921B5043DB43AC229B00BA1897
:101250001360C4227B1DFF331B68BA189B007861A2
:101260001360A022FB6FBA1813609C22BA18126890
:10127000934202DDA023FB181A609823FB181B6819
:10128000002B00DC9FE1A023FB181A68002A00DC79
:1012900099E19823FB181B68396C3B65A423FB1864
:1012A0001B6853439B00FB62BB6FFB649300CB1A2C
:1012B00079697B628C46FB6EB82163447B630023B3
:1012C00079180B60D021BB643B679C33FB181B680B
:1012D00079189B1ABB60130079600321013B043A23
:1012E0008B43D31A3B63A422BA183B6D1268FB658B
:1012F000934200DDFA65B822BA181268FB6D944675
:10130000C8226344BA1813609C237A6AFB18944677
:101310001B6884227B673B6FBA189B0063443B6267
:101320007B6B7B657B6CBB65A023FB181B68136024
:101330008423B422FB181B68BA181360042B03DD46
:10134000B4220423BA1813608423FB181B68002BF3
:1013500000DCA5E0B422C820B824BA187B6F11685D
:1013600038183C19006824685A1ABA63A04200DC95
:101370009CE094464E1EB96E9B008A46043B9B46F9
:101380007B6D791C63449B00FF3109689A44BB6CF8
:1013900063448C46A8219B00634479180B6093003A
:1013A000C0225B42BA181360BC22BB6DBA1813602E
:1013B000BC23FE20FB181B68800519680EF055FF42
:1013C000CC23FB181860A823FB181C68B823FB1853
:1013D0001B68B1461E00C023FB181B685A4698467E
:1013E000A04443469958CC23FB1818680EF051FFCF
:1013F00043465A4698504B46051C002B22DD534667
:1014000019680EF046FF011C20680EF028FF4B46BD
:101410002060012B16D05346281C59680EF039FF66
:10142000011C60680EF01BFF4B466060022B09D068
:101430005346281C99680EF02CFF011CA0680EF082
:101440000EFFA060C423FB181B6801369C46C8230E
:10145000FB181B6864449E42BDD1AC22BC23BA1861
:101460001268FB189446BC221B68BA1863441360C8
:101470000423B0225B429C46BA181268E3449446A7
:10148000B4224E46BA181268731EE244961BB2424A
:101490000CDD1E008CE7C046881803204C2E03206C
:1014A000B422BA187B6F12689B1ABB638423B422E0
:1014B000BD6BBA18AC46FB1810681B687A1CFF326B
:1014C00012681C1A3B6F7968634494469B0063441E
:1014D0000B607B1DFF331B6880464B60A02301948B
:1014E000FB181E6802000096FB6DF86C9B4689464F
:1014F0008246FFF7E1F8002C2ADD2B00BA68494646
:101500009446FD6BBA6E6B438C20634494464D60E9
:101510004D469B003818006863440B604246230028
:101520008146FFF773F929007B1DFF333D6A1B6875
:101530000D604B600D005B46039646460193524694
:10154000230049462800049402960096FFF712FBF8
:1015500084238422F968FB188C46B0211B68BA18D2
:10156000043B13607A6F7918043A09687A67BA6D98
:1015700062448C46BA657A6D62447A653A6B9342EE
:1015800000D0D5E6A422B823BA181268B821944630
:10159000FB181B68791863440B60396D8A1AF96A65
:1015A0003A658C46FA6CB96A62448C46FA643A6FC2
:1015B00062443A67BA6C6244BA649822BA181268F4
:1015C0009A4200DD8FE680239C22FB181B68BA1824
:1015D0001360002B72DD9423FB181B68002B00DCCA
:1015E000FEE78023BA6EFB1892461D68FB6E00244E
:1015F0009B009A44D023FE1800239B46013B99464A
:101600009423FB181B68A8469D4200DD9846CC2217
:10161000A300BA181360FA6B8C207260A0225344A6
:10162000BA18381831001268006833604346FFF773
:10163000EDF87A1CCC23FF321268FB1894461B6825
:101640008C21634433607B1DFF331B687918736002
:101650005B4604934B46039302939823FB181B6845
:1016600030000193A023FB181B680093BA6F434618
:101670000968FFF77FFA9423FB181B689C46ED1A54
:101680008023FB181B686444A342B9DCFA69FB6E33
:101690009446BA6963449446FB663A697B6C63443A
:1016A00094467B643B6CFA6F63443B648023FB1875
:1016B0001B689B1A8022BA181360D2E580233A6E09
:1016C0009B029A4208D98823FB181B68002B03D081
:1016D000043B18680FF06EF880237A6E9B029A42E2
:1016E00008D99023FB181B68002B03D0043B186813
:1016F0000FF060F8BD4637B0F0BCBB46B246A94615
:10170000A046F0BD9A0080237A669B029A424FD889
:1017100013006A461633DB08DB00D31A9D462720E8
:101720000F23684498438133FB18186090238C2260
:10173000FB181B68BA1813606368AA003A66002B8E
:1017400000D012E580239B029A424FD813006A46CC
:101750001633DB08DB00D31A9D4627200F2368448D
:1017600098437933FB1818608823FB181B682D4DAC
:10177000BB672B78BFF35B8FDB0700D501E5280043
:1017800012F040F8284C002800D1FBE48023DB0154
:10179000236080231B0328006360A36012F04EF8CF
:1017A000F0E4A4220423BA1813600EE51100FDE44E
:1017B000100010300EF0C0FF9023FB18021E1860BE
:1017C000B4D00F23010099430B0010218C468C20CC
:1017D0009C446146DA6023683818016058425841D9
:1017E000902340420140FB181960B8E4100010300B
:1017F0000EF0A2FF8823FB1818600028B4D00F2336
:10180000010099430B0010218C46D86060689C440D
:1018100043425841614688234042B967FB18014062
:101820001960A7E4881803204C2E0320F0B5574612
:10183000DE464E464546E0B5B3B006AF8C24BB62EB
:10184000E023FA6288223C19FB1821601C68BA1850
:101850002369786513608422A368BA1813608342F1
:1018600002DD8423FB181860842388228C21FB1856
:10187000BA18791812681B680D68534355432268DB
:10188000002A00D150E29B00FA6780223B650023CA
:10189000BA1813606368AA00FA64002B00D161E2F1
:1018A000FB660023BB67E74D2B78BFF35B8FDB073D
:1018B00000D470E2E44C90220423BA1813608833F9
:1018C000FB181B686068002B16DDDC22BA187B6DE4
:1018D00012681900934200DA74E209010DF0AEFDBE
:1018E0000323C217134090221B189B109B00BA18A9
:1018F0001360042B00DA60E27B6D002B00DCF1E169
:101900008822B96ABA1808001268BB6350439B1A50
:10191000B86098207B634B1C99001B01FB61DC23A2
:101920004A43381801607A609020DC22FB181B685B
:10193000BA189B009B46FB6A38183B630023126869
:101940000068BB6542437A610A1F3A627B67942252
:10195000BB6BBA1813608822BA181268934202DD72
:101960009423FB181A608C23FB181B68002B00DCE7
:1019700045E19423FB181A68002A00DC3FE18C2320
:101980009021FB181B687918BB6413000968DA46BC
:101990004B43D821791809689B008C463B61FB6E4C
:1019A0009C21FB657B6F79189B006344FB600023DF
:1019B0000B60A8213B667918130039600321013BB5
:1019C000043A8B43D31ABB619022BA18BB6C1268DD
:1019D000BB66934200DDBA669C22BA181268BB6EE1
:1019E0009446FA68634494469B463B6E9B0063446E
:1019F000FB633B6B3B647B6F7B66BB6D7B649423BB
:101A0000FB181B683B679423FB181A683B6FD21ABC
:101A10007A62A022BA181360042B03DDA0220423EB
:101A2000BA1813603B6F002B58DD9C23FB181B6812
:101A30009B4553DDA023A422FB181B68BA18013B69
:101A40009946FB6B13603B6C98464B46002B2EDD92
:101A5000A423FB181C689C23FB181E6843462568BA
:101A60005968281C0EF015FC011C60680EF0F7FB8D
:101A70004B466060012B16D04346281C99680EF037
:101A800008FC011CA0680EF0EAFB4B46A060022B8C
:101A900009D04346281CD9680EF0FBFB011CE06806
:101AA0000EF0DDFBE060013654445E45D6D14B4676
:101AB0005A1E9823FB181B68A4219C46A423FB18DC
:101AC0001B68791804330B60A023FB1819684B4678
:101AD000E044CB1A994201DD9146B6E7A022BA183C
:101AE0001468D8223B6F796E3E6E8C461D1B330006
:101AF000BA1810686344844639689B0063440B60DD
:101B0000DC23FB181B6822004B607B6A884601932C
:101B10009423FB1818680090BB6EF86DFEF7CCFD9F
:101B2000002D36DD7B6E41469C46786C2200644475
:101B30000319F86A9B008446B86A63444860A02091
:101B400038180260F86F0B602B00C1468046FEF724
:101B50005DFED822BA18331914689B00A4464C467F
:101B600063442360DC23FB1819687B6A616004937B
:101B70009423FB181E68A0230396FB181A6841469D
:101B80000292BB6E0092019348462B00FA6DFEF75D
:101B9000F1FF396A7A6C8C46F96962448C467A6442
:101BA0007A6E3B6F04327A663A6C043B62443A6464
:101BB000FA6B3B671032FA63BA69934200D022E7AE
:101BC00090229C23BA1812689C219446FB181B682B
:101BD000791863440B60B96C8A1A7969BA648C46C7
:101BE0003A6E396962448C463A66FA6D6244FA6527
:101BF0008C22BA1812689A4200DDE5E6D3468822A4
:101C0000BA1812687B6F94467A6D63447B6793427F
:101C100068DA8423FB181B68002B17DC8823B9685B
:101C2000FB188C46BA6B1B68D21ABA63BA6D624451
:101C3000BA657A6BD31A7A687B6394463B6B6344CC
:101C40003B6384E6881803204C2E0320FA6ABB6DA0
:101C500092469B009A44A823FE18A93B99467D6BA7
:101C60007C6F8423FB181B68A8469D4200DD9846C4
:101C7000A422A300BA181360BA6A53447260942273
:101C8000BA1831001268F86F33604346FEF7BEFDA4
:101C9000D822A423BA181268FB1894461B68300097
:101CA00063443360DC23FB181B68736000230493D8
:101CB0004B46039302938C23FB181B6801939423D8
:101CC000FB181B680093FA6E4346F96FFEF752FF4C
:101CD0008423FB181B689C46ED1A7B6D6444A34269
:101CE000BFDC9BE78023FA6C9B029A4206D9BB6F4C
:101CF000002B03D0043B18680EF05CFD80233A6D86
:101D00009B029A4208D98023FB181B68002B03D042
:101D1000043B18680EF04EFDBD462DB0F0BCBB462E
:101D2000B246A946A046F0BD9A0080233A659B02C0
:101D30009A4249D813006A461633DB08DB00D31AEF
:101D40009D4627200F23684498437133FB18186081
:101D50008023FB181B68AA00FB676368FA64002BEA
:101D600000D09DE580239B029A4249D813006A4621
:101D70001633DB08DB00D31A9D4627200F23684467
:101D80009843B867BB6F2A4DFB662B78BFF35B8F18
:101D9000DB0700D58EE5280011F034FD254C002826
:101DA00000D188E58023DB01236080231B0328000A
:101DB0006360A36011F042FD7DE590220423BA1810
:101DC000136099E5110088E5100010300EF0B4FCA6
:101DD0008023FB1818600028BAD00F230100994314
:101DE0000B0010218C46D8609C4423686146584201
:101DF000584180234042F967FB180140196049E5CA
:101E0000100010300EF098FCB8670028BAD00F23ED
:101E1000010099430B0010218C46D86060689C44F7
:101E20004342584161464042F9660140B9673AE58C
:101E3000881803204C2E032030B587B00D4B02AD1F
:101E400000951A68694602929A880400AA809B79D4
:101E50006A46AB71072301930023D3732EF064FC11
:101E60000098A84203D0029901310EF0D7FC20005F
:101E700007B030BDF4330510F0B5DE4657464E4688
:101E80004546E24BE0B51860E14B0D1C1B68E14C88
:101E900098464146E04BE4681960DD4989B04968DD
:101EA000069059608946DB4BDA491F684E68DB4B68
:101EB00089681F605E609960DC60D94B05949A6800
:101EC00058681C68029204910190DB68211C40460E
:101ED00003930EF0DEF90299824648460EF0D9F9D6
:101EE000011C50460EF0BEF9CE4B82461968281CE4
:101EF0009B460EF0CEF9011C50460EF0B3F9CA4BCA
:101F000001991860079040469A460EF0C2F903996D
:101F1000804648460EF0BDF9011C40460EF0A2F97D
:101F20005B4680465968281C0EF0B3F9011C4046F8
:101F30000EF098F9554683466860211C381C0EF057
:101F4000A8F9029A051C111C301C90460EF0A1F94C
:101F5000011C281C0EF086F901998146381C0EF0F0
:101F600098F9039F051C391C301C0EF092F9011CD6
:101F7000281C0EF077F9211C824604980EF089F98E
:101F80004146051C05980EF084F9011C281C0EF032
:101F900069F946460199804604980EF07AF9391C91
:101FA000051C05980EF075F9011C281C0EF05AF955
:101FB0004946071C201C0EF06CF94146051C301CDC
:101FC0000EF067F9011C281C0EF04CF9974E316891
:101FD0000EF048F9964D514604902860201C0EF0F2
:101FE00058F9391C041C02980EF053F9011C201CEE
:101FF0000EF038F971680EF035F9494602906860C4
:1020000001980EF046F9039A4146041C101C9146B3
:102010000EF03FF9011C201C0EF024F9B1680EF0FF
:1020200021F95146041CA86001980EF032F9391CC0
:10203000804648460EF02DF9011C40460EF012F97C
:10204000F1680EF00FF9E8607A4D071C2E680498CD
:10205000311C0EF01EF96D688046291C381C019752
:102060000EF017F9291C824602980EF012F941462B
:102070000EF0F8F8311C0EF00CF9311C071C201C76
:102080000EF007F951460EF0EDF8291C0EF001F99B
:10209000011C381C0EF0E6F8674B19680EF0E2F8E8
:1020A000664B071C1860291C201C0EF0F2F84146F4
:1020B0000EF0D8F8391C0EF0D8F8614980468946F0
:1020C00008600298311C0EF0E4F851460EF0CAF890
:1020D000391C0EF0CAF84946079B071C4860181CBB
:1020E000311C9A460EF0D5F8291C814658460EF050
:1020F000D0F8011C48460EF0B5F8011C06980EF009
:10210000AEF8414681460EF0C4F851460EF0AAF8EA
:102110003F4A391C106048460EF0BBF859460EF095
:10212000A1F83B4A81465060464A311C93464046DE
:102130000EF0AFF85A46011C10680EF090F8311CF2
:102140008246381C0EF0A5F85A46011C50680EF065
:1021500086F8291C061C40460EF09BF85A46011CC6
:1021600090680EF07CF8291C8046381C0EF091F81F
:102170005A46011CD0680EF072F85146051C0498AE
:102180000EF087F8029B4146071C181C9B460EF078
:1021900080F8011C381C0EF065F81E4A311C1060D6
:1021A00004980EF076F8291C071C58460EF071F8BA
:1021B000011C381C0EF056F8164B51465860201C76
:1021C0000EF067F8019B4146071C181C98460EF05C
:1021D00060F8011C381C0EF045F80E4B311C98605D
:1021E000201C0EF056F8291C041C40460EF051F835
:1021F000011C201C0EF036F8064BD860484609B08A
:10220000F0BCBB46B246A946A046F0BDD44F032061
:10221000BC4303207023002094390320B023002006
:10222000D023002088340320CC430320C022002088
:1022300090230020E0430320281603208839032040
:1022400074280020F0230020F0B5DE4657464E46A5
:102250004546E0B56B4B85B059689B460DF0FFFFD6
:10226000694B041C1860694B1A689A46684B111C2C
:102270001D6801920DF0F6FF291C0EF00AF8654B5F
:10228000061C1868011C0DF0EDFF011C301C0DF040
:10229000ECFF614E31680DF0E5FF604B029030605D
:1022A0001868011C0DF0DEFF5D4B061C18688146A6
:1022B000011C301C0DF0EDFF8046011C281C0DF0A8
:1022C000D1FF291C071C40460DF0C9FF554B19686A
:1022D00098460DF0DEFF391C0DF0C7FF494603900C
:1022E00048460DF0BFFF01998146201C0DF0B7FF55
:1022F000011C48460DF0CDFF391C0DF0B6FF011C46
:1023000003980DF0AFFF424602991060071C201C95
:102310000DF0A8FF391C0DF0A5FF434B19680DF017
:10232000B8FF424B1860424B186053461C605B4636
:1023300019680DF094FF3F4B041C18603E4B994602
:102340001B68191C9A460DF08DFF291C0DF0A1FF8A
:102350003A4B80461868011C0DF084FF011C404672
:102360000DF083FF364B984619680DF07BFF42460F
:10237000344B10601A680190111C301C90460DF00F
:1023800088FF8346011C281C0DF06CFF4146061C8B
:1023900040460DF067FF51468046201C0DF05FFF60
:1023A000011C40460DF075FF311C0DF05EFF291C2D
:1023B000804658460DF053FF391C0DF06AFF311C62
:1023C0000DF053FF011C40460DF04CFF1E4B0199D0
:1023D0001860051C201C0DF045FF291C0DF042FF64
:1023E0001A4B19680DF055FF194B1860194B1860FE
:1023F0004B461C6005B0F0BCBB46B246A946A046A1
:10240000F0BDC046BC430320403503208C39032077
:1024100004160020E815002080390320F81500205C
:102420008C28002024350320F0150020304F032095
:10243000204F03204435032090390320EC15002061
:10244000843903209028002028350320F41500202B
:10245000344F0320604F0320F8B5FE250024194BAC
:10246000AD051D60DD609C605C60174B174F1D6003
:10247000DD609C605C60164B1E68164B301C196852
:102480000DF0F3FE144B38601D605C60DD609C60F5
:10249000124B7C601D605E60DD609C60104B1C60B8
:1024A0005D60104B1868011C0DF0F3FE0E4B0F4AD7
:1024B000186012680E4B1A600E4A9C6012685C60CD
:1024C000DA60F8BD702300209023002088340320B8
:1024D0000416002008160020F0230020D02300203E
:1024E000E0430320141600202816032018160320AA
:1024F000C022002014160320F0B5DE4657464E4693
:102500004546E0B50E000168C7688946416805691F
:102510008A4681688DB08B46416980690793069031
:1025200050681368926805910A90291C30680B92D4
:10253000099308950DF093FE0599039070680DF0CE
:102540008EFE0699051CB0680DF089FE8026804637
:10255000360607980DF036FFB446039B00900191B4
:102560006344180051460DF094FE5946061C281C81
:102570000DF08FFE011C301C0DF071FE391C061C85
:10258000404604970DF085FE011C301C0DF067FEDF
:102590000DF018FF0022684B0DF0C3F9009A019B63
:1025A0000DF0BFF9060048460F000DF00BFF0200CA
:1025B0000B0030003900169C0DF08CF90DF0AAFAD2
:1025C0004946206003980DF064FE5946061C4046BB
:1025D0000DF05FFE011C301C0DF044FE0499061C3A
:1025E000281C0DF056FE011C301C0DF038FE0DF0BD
:1025F000E9FE0022504B0DF094F9009A019B0DF07A
:1026000090F9060050460F000DF0DCFE02000B00B2
:10261000300039000DF05EF90DF07CFA494660603B
:10262000281C0DF036FE5146061C40460DF031FECA
:10263000011C301C0DF013FE0499061C03980DF0CC
:1026400028FE011C301C0DF00DFE0DF0BBFE00221B
:10265000394B0DF066F9009A019B0DF062F9060006
:1026600058460F000DF0AEFE02000B00300039009E
:102670000DF030F90DF04EFA4946A06040460DF0DD
:1026800008FE5146061C281C0DF003FE011C301CE0
:102690000DF0E8FD5946051C03980DF0FAFD011CEC
:1026A000281C0DF0DCFD0DF08DFE0022224B0DF0FC
:1026B00038F9009A019B0DF034F9060004980F00D8
:1026C0000DF080FE02000B00300039000DF002F921
:1026D0000DF020FA089B0999E060181C98460DF04F
:1026E000D8FD079D291C0DF0D4FD011C40460DF0BE
:1026F000B6FD059F0A992061381C0DF0CAFD291C02
:102700000DF0C7FD011C381C0DF0A9FD069E0B99AC
:102710006061301C0DF0BDFD291C0DF0BAFD011CDF
:10272000301C0DF09CFDA06100200DB0F0BCBB463C
:10273000B246A946A046F0BD0000E03FF0B5DE4637
:1027400057464E4645468A464168E0B58846C768C2
:10275000816891B0066889464046391C141C049370
:102760000DF097FD4946051C301C0DF092FD0A90B6
:10277000011C281C09950DF072FD0DF023FE0200CE
:102780000B000DF0A7F806900791201C02940DF0A5
:1027900019FE0B00020004000D00069807990DF0C9
:1027A000C0F80DF0B7F95246391C106048460DF0DC
:1027B00070FD83464146301C0DF06BFD5A460E906D
:1027C000011C58460B920DF04DFD0DF0FBFD020073
:1027D0000B000DF07FF802000B00200029000C9286
:1027E0000D930DF09EF80DF095F95446311C606084
:1027F000301C0DF04EFD4146041C40460DF049FDD5
:10280000051C011C201C0DF02AFD49460890484675
:102810000DF03FFD391C8346381C0DF03AFD59463A
:10282000019008980DF01BFD01990DF01BFD029918
:102830000F900DF02EFD53464946986040460DF02E
:1028400028FD391C8046301C0DF023FD81461A9866
:102850000DF0B8FD06001B980F000DF0B3FD0290BF
:102860000391291C201C0DF0FDFC59460DF0F7FCCE
:1028700001990DF0F4FC04990DF00BFD0DF0A2FD93
:1028800004000D00404649460DF0ECFC0DF09AFDA9
:1028900002000B000DF01EF832003B000DF041F875
:1028A00002000B00200029000DF014F8029A039B8F
:1028B00004000D00069807990DF033F802000B0094
:1028C000200029000DF006F80DF024F95346D860D9
:1028D00004980DF077FD04000D00404649460DF0C8
:1028E000BEFC0DF06FFD02000B000CF0F3FF2200A8
:1028F0002B00049405950DF014F804000D000898C1
:1029000059460DF0AFFC01990DF0A9FC1A990DF094
:10291000C0FC0DF057FD02000B00200029000CF058
:10292000D9FF029A039B04000D000C980D990CF03E
:10293000F8FF02000B00200029000CF0CBFF0DF087
:10294000E9F853460A99186109980DF08BFC0DF0CF
:1029500039FD02000B000CF0BDFF049A059B0CF042
:10296000E0FF04000D000B980E990DF078FC0DF0BF
:1029700029FD02000B000CF0ADFF32003B000CF013
:10298000D0FF02000B00200029000CF0A3FF040080
:102990000D000F981B990DF07CFC0DF013FD02004B
:1029A0000B00200029000CF095FF0DF0B3F8534602
:1029B0005861002011B0F0BCBB46B246A946A04603
:1029C000F0BDC046F0B50400DE4657464E464546CB
:1029D0000800E0B545680968AA46856895B0AB4629
:1029E000C5684669876910910E9501695568106838
:1029F0009268049690461A68069711925A689B68E6
:102A000012921393FE239B05236099460DF027FC39
:102A10000DF0D8FC009001911E980DF0D3FC06003B
:102A20000F00009801990022924B0CF07AFF3200BF
:102A30003B000CF076FF0DF06DF804990390E06117
:102A4000281C0DF00CFC0DF0BDFC0022894B0490FD
:102A500005910CF066FF32003B000CF062FF0DF0B8
:102A600059F80699051CA06340460DF0F8FB0DF0DF
:102A7000A9FC00227F4B069007910CF052FF320018
:102A80003B000CF04EFF0DF045F80A906065504693
:102A90000DF098FC0022784B089009910CF041FF52
:102AA00032003B000CF03DFF0DF034F80B90206736
:102AB00058460DF087FC00226F4B0C900D910CF0E6
:102AC00030FF32003B000CF02CFF0DF023F88C237C
:102AD0008246E0500E980DF075FC0022664B0E9079
:102AE0000F910CF01EFF32003B000CF01AFF0DF0AE
:102AF00011F8A8238346E0500022009801995E4B0C
:102B00000CF00FFF32003B000CF00BFF0DF002F851
:102B10004946009060602162002206980799564B52
:102B20000CF0FFFE32003B000CF0FBFE0CF0F2FF5D
:102B3000A5658046E06310980DF044FC00224D4BE3
:102B40000CF0EFFE32003B000CF0EBFE0CF0E2FF6D
:102B500059469023051C60670022E1500C980D999E
:102B6000444B0CF0DEFE32003B000CF0DAFE0CF0C1
:102B7000D1FFAC230022E050049805993E4B0CF0A5
:102B8000D0FE32003B000CF0CCFE0CF0C3FF4946F7
:102B90000A9A83466262009AA0602164E2650E98F8
:102BA0000F990022334B0CF0BCFE32003B000CF0BE
:102BB000B8FE0CF0AFFF94230B99A067E5501C33CF
:102BC000E1504146E1605946A162494621665146BD
:102BD000039BE1676364089809990022254B0CF078
:102BE000A0FE32003B000CF09CFE0CF093FF9823FB
:102BF000E0501C33E55000251E9911982561E562CF
:102C0000A56465660DF045FB011C48460DF027FBE9
:102C10008023E0501C33E5501C33E550343B1E99B3
:102C2000129865612563E564A566E5500DF031FBFA
:102C3000011C48460DF013FBA023E0501C33E55067
:102C4000343BA56165632565E566E5501C33E550B9
:102C50001E9913980DF01DFB011C48460DF0FFFA5C
:102C6000C023E050002015B0F0BCBB46B246A946D8
:102C7000A046F0BD0000E0BF0000E03FF0B5DE463A
:102C800057464E464546E0B59A460B68141C8A687E
:102C90009B464B68C9688BB00500101C88460093A2
:102CA00001920DF08FFB02900391201C0DF08AFB26
:102CB000C02306000F000298039900221B060CF0A7
:102CC00030FE32003B000CF02CFE0CF023FF08908D
:102CD000286040460DF076FB02000B000CF0FAFD78
:102CE00032003B000CF01DFE0CF014FF041CA86128
:102CF00058460DF067FBC02300221B060490059187
:102D00000CF00FFE32003B000CF00BFE0CF002FF4B
:102D1000286300980DF056FB02000B000690079107
:102D20000CF0D8FD32003B000CF0FBFD0CF0F2FE85
:102D3000002190238946A8642966A967E950686044
:102D40000498059902000B000CF0C4FD32003B0012
:102D50000CF0E7FD0CF0DEFE6C630490E861029875
:102D6000039902000B000CF0B5FD32003B000CF0A3
:102D7000D8FD0CF0CFFE49469423E8646966E96704
:102D8000E950C02306980799049A1B06AA600022FE
:102D90000CF0C7FD32003B000CF0C3FD0CF0BAFE96
:102DA000089B4946AB63802328622C65A966E950DD
:102DB0001833E950404614990DF06BFA019F1599AC
:102DC000061C381C0DF065FA5146041C58460DF0DF
:102DD00060FA311C0DF046FA211C06940DF03FFA02
:102DE000011C0DF03FFA51460990E86000980DF083
:102DF00050FA1499041C381C0DF04BFA011C201CCD
:102E00000DF030FA1599041C40460DF042FA011CF1
:102E1000201C0DF027FA011C0DF024FA14990290E1
:102E2000686200980DF035FA1599089058460DF033
:102E300030FA019A8024944624066444071C5146C3
:102E400020000DF026FA08990DF00CFA391C0DF04F
:102E500006FA011C0DF006FA1499E86358460DF0C5
:102E600018FA1599049000980DF013FA80221206B2
:102E70004244041C514610000DF00BFA04990DF069
:102E8000F1F9211C0DF0EEF9011C0DF0EBF94A46A9
:102E90008423EA666865EA501833EA50514628618F
:102EA00001980DF0F6F908990DF0D9F9391C0DF0DB
:102EB000D9F9011C0DF0D6F9071CA8628020029BED
:102EC00000062B64514658440DF0E3F9311C0DF017
:102ED000C6F906990DF0C6F9011C0DF0C3F9882357
:102EE000A86548462867E8501833E85051464046E0
:102EF0006F610DF0CEF904990DF0B1F9211C0DF0C0
:102F0000AEF9011C0DF0AEF9099AE8626A64029B01
:102F10004A46EB654B466B678C230020EA5018331A
:102F2000EA500BB0F0BCBB46B246A946A046F0BD85
:102F30000123F0B5E3214746CE469C46294B804607
:102F400005009946284E80B58900076846444144EB
:102F5000FA0F6F68D2077B005B08346813435A0886
:102F6000624064461C4201D04B465A4004C50436B8
:102F7000A942EDD1E32342469B00C626D458194B03
:102F800001259C46F6004644E20F4C68D2076300D8
:102F90005B08076813435A087A401D4201D0634614
:102FA0005A40043004C1B042EED14246C6214046E8
:102FB0000E4BC900D3581268DB0F52005208DB07D2
:102FC000415813435A084A40DB0701D5054B5A4084
:102FD0004146064BCA5000220433CA50C0BCB94611
:102FE000B046F0BDDFB0089934060000BC0900000F
:102FF000F0B54546DE4657464E46E0B53B4CD72336
:10300000A54434AA944663441B091B018A680593AE
:103010000B68019237921A68049006929A6933916C
:1030200007921A6B38AC08929A6C09921A6E0B923E
:103030009A6F0C9290229A580D925A680E92DA6901
:103040000F925A6B1092DA6C11925A6E1292DA6FDA
:10305000139294229A5814929A6815921A6A1692A8
:103060009A6B17921A6D18929A6E199280229A583A
:103070001A9298229A581B92DA681C925A6A1D92E8
:10308000DA6B1E925A6D1F92DA6E209284229A5841
:1030900021929C229A5822921A6923929A6A249227
:1030A0001A6C25929A6D26921A6F279288229A5846
:1030B0002892A0229A5829925A692A92DA6A2B9267
:1030C0005A6C2C92DA6D2D925A6F2E928C229A584D
:1030D0002F92A4229B5830934B68984638AB32937A
:1030E000C423454643440A9302E0C0469CFDFFFFCB
:1030F000EA68A96991462A69AB6890466A690998A5
:1031000003914946019302920DF0C3F8414682466D
:103110000B980DF0BEF8011C50460DF0A3F8029973
:1031200082460C980DF0B5F8039983460D980DF082
:10313000B0F8011C58460DF095F8011C50460DF0F2
:1031400091F86F688246391C07980DF0A2F8019932
:10315000834608980DF09DF8011C58460DF082F842
:103160002E688346311C06980DF093F8011C5846D2
:103170000DF078F8011C50460DF074F849462060B7
:1031800011980DF086F84146824612980DF081F8AC
:10319000011C50460DF066F80299824613980DF016
:1031A00078F80399834614980DF073F8011C58467B
:1031B0000DF058F8011C50460DF054F8391C8246A9
:1031C0000F980DF066F80199834610980DF061F89C
:1031D000011C58460DF046F8311C83460E980DF040
:1031E00058F8011C58460DF03DF8011C50460DF0F2
:1031F00039F84946606018980DF04BF84146824610
:1032000019980DF046F8011C50460DF02BF8029964
:1032100082461A980DF03DF8039983461B980DF0ED
:1032200038F8011C58460DF01DF8011C50460DF0F1
:1032300019F8391C824616980DF02BF8019983462F
:1032400017980DF026F8011C58460DF00BF8311CAC
:10325000834615980DF01DF8011C58460DF002F834
:10326000011C50460CF0FEFF4946A0601F980DF06F
:1032700010F84146824620980DF00BF8011C50468C
:103280000CF0F0FF0299824621980DF002F80399A4
:10329000834622980CF0FDFF011C58460CF0E2FF1B
:1032A000011C50460CF0DEFF391C82461D980CF0C4
:1032B000F0FF019983461E980CF0EBFF011C584665
:1032C0000CF0D0FF311C83461C980CF0E2FF011C6F
:1032D00058460CF0C7FF011C50460CF0C3FF49468E
:1032E000E06026980CF0D5FF4146824627980CF006
:1032F000D0FF011C50460CF0B5FF02998246289879
:103300000CF0C7FF0399834629980CF0C2FF011CFB
:1033100058460CF0A7FF011C50460CF0A3FF391CC7
:10332000824624980CF0B5FF0199834625980CF04D
:10333000B0FF011C58460CF095FF311C83462398C2
:103340000CF0A7FF011C58460CF08CFF011C5046E6
:103350000CF088FF2D99206148460CF09AFF2E99B9
:10336000814640460CF095FF011C48460CF07AFF60
:103370002F99804602980CF08CFF30998146039873
:103380000CF087FF011C48460CF06CFF011C404606
:103390000CF068FF391C80462B980CF07AFF2C99B2
:1033A000071C01980CF075FF011C381C0CF05AFF2B
:1033B000311C071C2A980CF06CFF011C381C0CF007
:1033C00051FF011C40460CF04DFF0A9B1C3560610B
:1033D0001834AB4200D08BE6379B1A686293089290
:1033E0009A6909921A6B0A929A6C0B921A6E0C9255
:1033F0009A6F0D9290229A580E925A680F92DA693B
:1034000010925A6B1192DA6C12925A6E1392DA6F12
:10341000149294229A5815929A6816921A6A1792E0
:103420009A6B18921A6D19929A6E1A9280229A5873
:103430001B9298229A581C92DA681D925A6A1E9220
:10344000DA6B1F925A6D2092DA6E219284229A587A
:1034500022929C229A5823921A6924929A6A25925F
:103460001A6C26929A6D059C27921A6F2034289226
:1034700088229A58A1462992A0229A582A925A69DB
:103480002B92DA6A2C925A6C2D92DA6D2E925A6F28
:103490002F928C229A583092A4229B5831935CAB85
:1034A00006933EAB0793329B9846434642464146BD
:1034B00040461B6895690193069B146B096E926CDC
:1034C00040CB876F0291101C0B99039206930CF06E
:1034D000E0FE0C99824602980CF0DBFE011C50467F
:1034E0000CF0C0FE0D998246381C0CF0D2FE0E99ED
:1034F0008346301C0CF0CDFE011C58460CF0B2FE89
:10350000011C50460CF0AEFE09998246281C0CF0B6
:10351000C0FE0A998346201C0CF0BBFE011C5846D5
:103520000CF0A0FE0899834601980CF0B2FE011C35
:1035300058460CF097FE011C50460CF093FE4B468B
:103540001299186003980CF0A4FE13998246029811
:103550000CF09FFE011C50460CF084FE149982462C
:10356000381C0CF096FE15998346301C0CF091FE29
:10357000011C58460CF076FE011C50460CF072FE01
:1035800010998246281C0CF084FE11998346201C59
:103590000CF07FFE011C58460CF064FE0F99834628
:1035A00001980CF076FE011C58460CF05BFE011CE5
:1035B00050460CF057FE4B461999586003980CF092
:1035C00068FE1A99824602980CF063FE011C504670
:1035D0000CF048FE1B998246381C0CF05AFE1C99D0
:1035E0008346301C0CF055FE011C58460CF03AFE88
:1035F000011C50460CF036FE17998246281C0CF030
:1036000048FE18998346201C0CF043FE011C5846C6
:103610000CF028FE1699834601980CF03AFE011C26
:1036200058460CF01FFE011C50460CF01BFE4B468A
:103630002099986003980CF02CFE219982460298FC
:103640000CF027FE011C50460CF00CFE229982461D
:10365000381C0CF01EFE23998346301C0CF019FE1A
:10366000011C58460CF0FEFD011C50460CF0FAFD02
:103670001E998246281C0CF00CFE1F998346201CC4
:103680000CF007FE011C58460CF0ECFD1D9983461A
:1036900001980CF0FEFD011C58460CF0E3FD011CE6
:1036A00050460CF0DFFD4B462799D86003980CF08C
:1036B000F0FD2899824602980CF0EBFD011C504663
:1036C0000CF0D0FD29998246381C0CF0E2FD2A99B5
:1036D0008346301C0CF0DDFD011C58460CF0C2FD89
:1036E000011C50460CF0BEFD25998246281C0CF0AA
:1036F000D0FD26998346201C0CF0CBFD011C5846BA
:103700000CF0B0FD2499834601980CF0C2FD011C19
:1037100058460CF0A7FD011C50460CF0A3FD4B468B
:103720002E99186103980CF0B4FD2F9982460298E7
:103730000CF0AFFD011C50460CF094FD3099824610
:10374000381C0CF0A6FD3199071C301C0CF0A1FDB3
:10375000011C381C0CF086FD011C50460CF082FD4B
:103760002C99061C281C0CF094FD2D99051C201C7E
:103770000CF08FFD011C281C0CF074FD2B99041C0F
:1037800001980CF086FD011C201C0CF06BFD011C47
:10379000301C0CF067FD4B46586104239C461433E3
:1037A000E0449C46079BE144984500D07DE6339B6E
:1037B000059DDC68296A20680CF054FD049EA96B05
:1037C000306060680CF04EFD7060A068296D0CF0F0
:1037D00049FDB060E068A96E0CF044FD8023F06004
:1037E0002069E95898460CF03DFD98233061E9586E
:1037F00060690CF037FD7061A069696A0CF032FDF8
:10380000B061E069E96B0CF02DFDF061206A696D33
:103810000CF028FD3062E96E606A0CF023FD84270D
:103820007062A06AE9590CF01DFD9C23B062E95852
:10383000E06A0CF017FDF062206BA96A0CF012FD33
:103840003063606B296C0CF00DFD7063A06BA96D8B
:103850000CF008FDB063E06B296F0CF003FDF06322
:103860008826206CA9590CF0FDFC049B1864A02349
:10387000606CE9580CF0F6FC049BE96A5864A06C93
:103880000CF0F0FC049B696C9864E06C0CF0EAFCB2
:10389000049BE96DD864206D0CF0E4FC049B696F17
:1038A0001865606D0CF0DEFC8C25049A059B506554
:1038B000A06D59590CF0D6FCA423049A9065059A82
:1038C000E06DD1580CF0CEFC049B059AD865116BC5
:1038D000206E0CF0C7FC049B059A1866916C606E14
:1038E0000CF0C0FC049B059A5866A06E116E0CF09B
:1038F000B9FC049B059A9866E06E916F0CF0B2FCDF
:10390000049B059AD8669023206FD1580CF0AAFC2E
:10391000049B059A1867A823606FD1580CF0A2FC8D
:10392000049B059A5867A16F506B0CF09BFC049B9D
:10393000059A9867E16FD06C0CF094FC4146049BAB
:10394000059AD8676158506E0CF08CFC4146049B78
:10395000059A5850E159D06F0CF084FC049BD85163
:103960009423059FA159F8580CF07CFC049B9851B6
:10397000AC236159F8580CF075FC049B58519923FD
:103980009B009D44F0BCBB46B246A946A046F0BD94
:10399000F0B5DE4657464E4645460400E0B503699D
:1039A00087B0580063694008590049080CF05AFC78
:1039B000E368590049080CF055FC6368051C580081
:1039C000A3684008590049080CF04CFC23685900D2
:1039D00049080CF047FC011C281C0CF043FCA36AAE
:1039E000051C5800E36A4008590049080CF03AFCED
:1039F000636A590049080CF035FCE369061C58005D
:103A0000236A4008590049080CF02CFCA3695900AE
:103A100049080CF027FC011C301C0CF023FC236C23
:103A2000071C5800636C4008590049080CF01AFC48
:103A3000E36B590049080CF015FC636B061C580039
:103A4000A36B4008590049080CF00CFC236B59008B
:103A500049080CF007FC011C301C0CF003FC061C90
:103A6000011C381C0CF04CFC002800D13E1C311C01
:103A7000281C0CF045FC002800D12E1CA36D58001A
:103A8000E36D4008590049080CF0ECFB636D5900E8
:103A900049080CF0E7FBE36C051C5800236D400857
:103AA000590049080CF0DEFBA36C590049080CF0E2
:103AB000D9FB011C281C0CF0D5FB236F071C5800F8
:103AC000636F4008590049080CF0CCFBE36E5900C5
:103AD00049080CF0C7FB636E051C5800A36E400834
:103AE000590049080CF0BEFB236E590049080CF040
:103AF000B9FB011C281C0CF0B5FB88238046E0585C
:103B00000433E15840004900490840080CF0AAFB82
:103B10008423E158490049080CF0A4FBE36F051C1D
:103B200058008023E1584008490049080CF09AFBEE
:103B3000A36F590049080CF095FB011C281C0CF0E0
:103B400091FB051C011C40460CF0DAFB002800D15B
:103B50004546291C381C0CF0D3FB002800D13D1C25
:103B6000291C301C0CF0CCFB002800D1351CC023D4
:103B70002100E55001AABA3B02A8A831049302949F
:103B8000FCF76EFE0121C422019B98260B405B428C
:103B90008B430133A354343A9246002250469C276B
:103BA00022509432A1509346923AA2510132E251EE
:103BB0009D32944660469C3A2250A03291469F3AEC
:103BC00090464A4640462300A05048461832A25824
:103BD000903392009A181568255040461060604650
:103BE000B8222058A2588046604692009A1815685C
:103BF000255040461060B422E059A25884469200F5
:103C00009A1810685D46E05160461060B022A258D4
:103C1000A75992009A181068A0511760AC22584614
:103C2000A258265892009A18106860511660A8226F
:103C3000A258554692009B1852461868A2586051E7
:103C40001A60C523E15407B0F0BCBB46B246A94692
:103C5000A046F0BDC023002210B5C250002204339C
:103C6000C2520B68040003604B6843608B6883603A
:103C7000CB68C3600B6903614B6943618B698361E6
:103C8000CB69C3610B6A03624B6A43628B6A8362CE
:103C9000CB6AC3620B6B03634B6B43638B6B8363B6
:103CA000CB6BC3630B6C03644B6C43648B6C83649E
:103CB000CB6CC3640B6D03654B6D43658B6D836586
:103CC000CB6DC3650B6E03664B6E43668B6E83666E
:103CD000CB6EC3660B6F03674B6F43678B6F836756
:103CE000CB6FC3678023CA58C2500433CA58C2502E
:103CF0000433CA58C2500433CA58C250FFF748FEB2
:103D0000200010BDF0B5DE464E4645465746E0B5AC
:103D1000214C9146A5443AAA94460A0031931F4B80
:103D20003B9063441B091B013A919846D3AB13CADD
:103D300013C313CA13C31268D3A91A60184B194AC4
:103D40001B6847A80493184B47AC1B680193174B9B
:103D50001B6805930093049BFEF790FF47ABD3933A
:103D60004B46D49347ABD5933AAA832394468620F7
:103D70001B0163441B68C0004044A2AAD3A9D69388
:103D80000990FFF735F96BAB089343460A934B460E
:103D90003094A1461C000BE014F7FFFF470300001E
:103DA000E81403200AE81C41E0140320E414032073
:103DB0004B464E461B68B76F0493089B494640CB61
:103DC00048464A460893A823896C006E9569126B91
:103DD00006910790E158301C05920CF05AFA8C239A
:103DE0008246E158381C0CF054FA011C50460CF085
:103DF00039FA216F824607980CF04BFA616D8346C1
:103E000006980CF046FA011C58460CF02BFA011CDF
:103E100050460CF027FAA16B824605980CF039FA4F
:103E2000E1698346281C0CF034FA011C58460CF05A
:103E300019FA2168834604980CF02BFA011C5846A5
:103E40000CF010FA011C50460CF00CFA43461860B6
:103E5000AC23301CE1580CF01CFA90238246E15848
:103E6000381C0CF016FA011C50460CF0FBF9616F7F
:103E7000824607980CF00DFAA16D834606980CF067
:103E800008FA011C58460CF0EDF9011C50460CF0E4
:103E9000E9F9E16B824605980CF0FBF9216A83464B
:103EA000281C0CF0F6F9011C58460CF0DBF961688F
:103EB000834604980CF0EDF9011C58460CF0D2F939
:103EC000011C50460CF0CEF943465860B023301C1C
:103ED000E1580CF0DEF994238246E158381C0CF0CE
:103EE000D8F9011C50460CF0BDF9A16F8246079825
:103EF0000CF0CFF9E16D834606980CF0CAF9011C6D
:103F000058460CF0AFF9011C50460CF0ABF9216C8F
:103F1000824605980CF0BDF9616A8346281C0CF0B6
:103F2000B8F9011C58460CF09DF9A1688346049825
:103F30000CF0AFF9011C58460CF094F9011C5046E6
:103F40000CF090F943469860B423301CE1580CF013
:103F5000A0F998238246E158381C0CF09AF9011C0C
:103F600050460CF07FF9E16F824607980CF091F90A
:103F7000216E834606980CF08CF9011C58460CF013
:103F800071F9011C50460CF06DF9616C8246059880
:103F90000CF07FF9A16A8346281C0CF07AF9011C09
:103FA00058460CF05FF9E168834604980CF071F90B
:103FB000011C58460CF056F9011C50460CF052F901
:103FC0004346D860B823301CE1580CF062F99C23BA
:103FD0008246E158381C0CF05CF9011C50460CF08C
:103FE00041F980238246E15807980CF052F9616E3E
:103FF000834606980CF04DF9011C58460CF032F936
:10400000011C50460CF02EF9A16C824605980CF06C
:1040100040F9E16A8346281C0CF03BF9011C584624
:104020000CF020F92169834604980CF032F9011C48
:1040300058460CF017F9011C50460CF013F9434692
:104040001861BC23301CE1580CF023F9A0238246F0
:10405000E158381C0CF01DF9011C50460CF002F917
:1040600084238246E15807980CF013F9A16E834629
:1040700006980CF00EF9011C58460CF0F3F8011CE0
:1040800050460CF0EFF8E16C824605980CF001F90F
:10409000216B8346281C0CF0FCF8011C58460CF0E0
:1040A000E1F86169834604980CF0F3F8011C584666
:1040B0000CF0D8F8011C50460CF0D4F84346E16EE1
:1040C000586106980CF0E5F888238246E158079875
:1040D0000CF0DFF8011C50460CF0C4F8A423824613
:1040E000E158381C0CF0D5F8C023071CE158301CEF
:1040F0000CF0CFF8011C381C0CF0B4F8011C504631
:104100000CF0B0F8616B061C281C0CF0C2F8216D95
:10411000051C05980CF0BDF8011C281C0CF0A2F839
:10412000A169051C04980CF0B4F8011C281C0CF0C3
:1041300099F8011C301C0CF095F843469861042353
:104140009C461833E1449C464DABE0444B4500D0BF
:104150002EE60A9BA146D8249846A427A4004444EE
:10416000BF00474420000999FFF774FD2100902209
:104170003800C8240CF03CFBFC21A4004444890016
:104180004144182220000CF033FBCE208121800016
:10419000C9004144182240440CF02AFB8422D42355
:1041A000D200424412689B0043441A60D523874AD8
:1041B0004546424412889B004344FE211A80002356
:1041C0002268B0359200AA188905116093611363C3
:1041D000936413669367C92292004244126844466E
:1041E0009200AA1813609161136393641366936736
:1041F000CA2292004244126806269200AA1813604E
:1042000093611163936413669367CB2292004244D7
:10421000126806209200AA181360936113639164D8
:1042200013669367CC229200424412689200AA1847
:10423000136093611363936411669367CD229200B8
:10424000424412689200AA18136093611363936446
:104250001366A8235B009B46916742465946E418C3
:1042600020334344A660E6602661535080229200CA
:1042700042444B396260924604933A00062302940A
:10428000FF3901960095FDF7D1FA42465946049B45
:10429000A660E6602661535053464B3963603A008E
:1042A00006230294062001960095FF39FCF722FFB1
:1042B00043461B688C2207934346DB69D3AC0893C3
:1042C00043469B6B099343465B6D0A9343461B6FC2
:1042D0000B9343469B5804320C9343465B681793F9
:1042E00043461B6A18934346DB6B0D9343469B6D15
:1042F0000E9343465B6F0F9343469B5804321093D3
:1043000043469B68119343465B6A129343461B6C7A
:1043100013934346DB6D149343469B6F15934346BB
:104320009B58043216934346DB68199343469B6AB5
:10433000069343465B6C1A9343461B6E1B9343469E
:10434000DB6F1C9343469B58183A1D9343461B69E9
:104350001E934346DB6A1F9343469B6C2093434660
:104360005B6E219343469B581C32229343469B58D5
:10437000183A239343465B69249343461B6B25936A
:104380004346DB6C269343469B6E279343469B58DC
:104390001C32289343469B58183A299343469B69FD
:1043A0002A9343465B6B2B9343461B6D2C934346EA
:1043B000DB6E2D9343469B581C322E9343469B58ED
:1043C000A8462F934B46329302E0C04624040000D7
:1043D00043461F685B6842469946434641469B6890
:1043E000D2680E694D6908984946049305920BF00E
:1043F00050FF0499824609980BF04BFF011C504670
:104400000BF030FF391C824607980BF042FF011C6D
:1044100050460BF027FF311C82460B980BF039FFFA
:10442000291C83460C980BF034FF011C58460BF0F6
:1044300019FF059983460A980BF02BFF011C58467B
:104440000BF010FF011C50460BF00CFF494620609A
:1044500018980BF01EFF049982460D980BF019FF77
:10446000011C50460BF0FEFE391C824617980BF0DB
:1044700010FF011C50460BF0F5FE311C82460F98D0
:104480000BF007FF291C834610980BF002FF011C5C
:1044900058460BF0E7FE059983460E980BF0F9FE9F
:1044A000011C58460BF0DEFE011C50460BF0DAFEF4
:1044B0004946606012980BF0ECFE0499824613980E
:1044C0000BF0E7FE011C50460BF0CCFE391C824677
:1044D00011980BF0DEFE011C50460BF0C3FE311CA0
:1044E000824615980BF0D5FE291C834616980BF0D2
:1044F000D0FE011C58460BF0B5FE05998346149872
:104500000BF0C7FE011C58460BF0ACFE011C5046D8
:104510000BF0A8FE4946A06006980BF0BAFE04997D
:1045200082461A980BF0B5FE011C50460BF09AFE1D
:10453000391C824619980BF0ACFE011C50460BF05A
:1045400091FE311C82461C980BF0A3FE291C834669
:104550001D980BF09EFE011C58460BF083FE05993A
:1045600083461B980BF095FE011C58460BF07AFE13
:10457000011C50460BF076FE4946E0601F980BF098
:1045800088FE0499824620980BF083FE011C504659
:104590000BF068FE391C82461E980BF07AFE011C57
:1045A00050460BF05FFE311C824622980BF071FEE4
:1045B000291C834623980BF06CFE011C58460BF017
:1045C00051FE0599834621980BF063FE011C584665
:1045D0000BF048FE011C50460BF044FE494620619A
:1045E00025980BF056FE0499824626980BF051FE52
:1045F000011C50460BF036FE391C824624980BF005
:1046000048FE011C50460BF02DFE311C82462898B6
:104610000BF03FFE291C834629980BF03AFE011C43
:1046200058460BF01FFE0599834627980BF031FE84
:10463000011C58460BF016FE011C50460BF012FEF2
:10464000494660612B980BF024FE049981462C9812
:104650000BF01FFE011C48460BF004FE391C81467E
:104660002A980BF016FE011C48460BF0FBFD311C8E
:10467000071C2E980BF00DFE291C061C2F980BF022
:1046800008FE011C301C0BF0EDFD0599051C2D9852
:104690000BF0FFFD011C281C0BF0E4FD011C381C75
:1046A0000BF0E0FD18239C46A061FDAB1C34E044F8
:1046B000A34200D08CE6329BD49A9946D39BD599DD
:1046C000D69CD79DD89ED99F06930792DA9BDB9AFA
:1046D00008910994DC99DD9C0A950B96DE9DDF9E7E
:1046E0000C970D93E09FE19B0E92E29A0F9110942C
:1046F00011951296139714931592E399E49CE59DF6
:10470000E69EE79FE89BE99A16911794EA99EB9C3D
:1047100018951996EC9DED9E1A971B93EE9FEF9BB3
:104720001C921D91F09AF1991E94F29C209621976B
:1047300022932392249125941F95F39DF49EF59F37
:10474000F79AF69BF899F99C26952796FA9DFB9E79
:104750002897FC9F2A923A9A29932B912C942D9575
:104760002E962F97D3AB32CA32C332CA32C31168E6
:10477000D3AC1960FD49FE4B09681B680191FD49E6
:10478000FD4A09682000009141A9FDF7D7FF319F3C
:10479000419938680BF063FD4299834678680BF0C5
:1047A0005EFD43998246B8680BF059FD4499041C9C
:1047B000F8680BF054FD4599051C38690BF04FFD66
:1047C0004699061C78690BF04AFD071C011C2A98C3
:1047D0000BF05FFD311C804623980BF05AFD011C45
:1047E00040460BF03FFD291C80461C980BF051FD04
:1047F000011C40460BF036FD211C804615980BF03D
:1048000048FD514604900E980BF043FD011C04989E
:104810000BF028FD5946049007980BF03AFD011C57
:1048200004980BF01FFD011C40460BF01BFD3A9A4B
:1048300051680BF017FD391C04902B980BF029FDE3
:10484000311C804624980BF024FD011C40460BF0DF
:1048500009FD291C80461D980BF01BFD011C4046DC
:104860000BF000FD211C804616980BF012FD5146FE
:1048700005900F980BF00DFD011C05980BF0F2FC54
:104880005946059008980BF004FD011C05980BF0A3
:10489000E9FC011C40460BF0E5FC3A9A91680BF0EC
:1048A000E1FC391C05902C980BF0F3FC311C804680
:1048B00025980BF0EEFC011C40460BF0D3FC291CA4
:1048C00080461E980BF0E5FC011C40460BF0CAFC2C
:1048D000211C804617980BF0DCFC51463190109853
:1048E0000BF0D7FC011C31980BF0BCFC5946319001
:1048F00009980BF0CEFC011C31980BF0B3FC011CA5
:1049000040460BF0AFFC3A9AD1680BF0ABFC391C77
:1049100031902D980BF0BDFC311C804626980BF091
:10492000B8FC011C40460BF09DFC291C80461F98DA
:104930000BF0AFFC011C40460BF094FC211C8046A0
:1049400018980BF0A6FC5146329011980BF0A1FC80
:10495000011C32980BF086FC594632900A980BF0F5
:1049600098FC011C32980BF07DFC011C40460BF0BA
:1049700079FC3A9A11690BF075FC391C32902E982B
:104980000BF087FC311C804627980BF082FC011C41
:1049900040460BF067FC291C804620980BF079FC00
:1049A000011C40460BF05EFC211C804619980BF060
:1049B00070FC5146339012980BF06BFC011C33983D
:1049C0000BF050FC594633900B980BF062FC011C25
:1049D00033980BF047FC011C40460BF043FC3A9A1D
:1049E00051690BF03FFC5146339013980BF051FC8A
:1049F000211C80461A980BF04CFC011C40460BF021
:104A000031FC594680460C980BF043FC011C404693
:104A10000BF028FC311C804628980BF03AFC391C1E
:104A200034902F980BF035FC011C34980BF01AFCD5
:104A3000291C349021980BF02CFC011C34980BF0AD
:104A400011FC011C40460BF00DFC3A9A91690BF0E9
:104A500009FC391C804629980BF01BFC311C071CF3
:104A600022980BF016FC011C381C0BF0FBFB291CD8
:104A7000061C1B980BF00DFC011C301C0BF0F2FB0C
:104A8000211C051C14980BF004FC5146041C0D98C5
:104A90000BF0FFFB011C201C0BF0E4FB5946041C2F
:104AA00006980BF0F6FB011C201C0BF0DBFB011C35
:104AB000281C0BF0D7FB3A9AD3AC11680BF0D2FB51
:104AC0003B9B049A18605A60059A9A60319ADA60A2
:104AD000329A1A61339A5A6142469A614B461B6870
:104AE0004A46A2934B465B68A3934B469B68A493AC
:104AF0004B46DB68A5934B461B69A6934B465B6907
:104B0000A7934B469B69A8934B46DB69A9934B46F9
:104B10001B6AAA934B465B6AAB934B469B6AAC936A
:104B20004B46DB6AAD934B461B6BAE934B465B6BC0
:104B3000AF934B469B6BB0934B46DB6BB1934B46AD
:104B40001B6CB2934B465B6CB3934B469B6CB4931C
:104B50004B46DB6CB5934B461B6DB6934B465B6D7A
:104B6000B7934B469B6DB8934B4607E0E014032088
:104B7000E8140320E41403200AE81C41DB6DB99318
:104B80004B461B6EBA934B465B6EBB934B469B6E7C
:104B9000BC934B46DB6EBD934B461B6FBE934B469F
:104BA0005B6FBF934B469B6FC0934B46DB6FC193CC
:104BB0008023D358C2938423D358C3938823D358D4
:104BC000C4938C23D358C5939023D358C69394236E
:104BD000D358C7939823D358C8939C23D358C993C9
:104BE000A023D358CA93A423D358CB93A823D35834
:104BF000CC93AC23D358CD93B023D358CE93B423C6
:104C0000D358CF93B823D358D093BC23D358D19340
:104C1000C023D358D293309B3092984643461F68A6
:104C20005B6842469946434641469B68D2680E6996
:104C30004D690D984946049305920BF02AFB04999F
:104C4000824614980BF025FB011C50460BF00AFB22
:104C5000391C824606980BF01CFB011C50460BF0D9
:104C600001FB311C824622980BF013FB291C834662
:104C700029980BF00EFB011C58460BF0F3FA05992E
:104C800083461B980BF005FB011C58460BF0EAFA13
:104C9000011C50460BF0E6FA494620600E980BF0D6
:104CA000F8FA0499824615980BF0F3FA011C504665
:104CB0000BF0D8FA391C824607980BF0EAFA011C6F
:104CC00050460BF0CFFA311C824623980BF0E1FAE4
:104CD000291C83462A980BF0DCFA011C58460BF07D
:104CE000C1FA059983461C980BF0D3FA011C58466B
:104CF0000BF0B8FA011C50460BF0B4FA494660605C
:104D00000F980BF0C6FA0499824616980BF0C1FA78
:104D1000011C50460BF0A6FA391C824608980BF08D
:104D2000B8FA011C50460BF09DFA311C82462498BB
:104D30000BF0AFFA291C83462B980BF0AAFA011C42
:104D400058460BF08FFA059983461D980BF0A1FA8F
:104D5000011C58460BF086FA011C50460BF082FAF3
:104D60004946A06010980BF094FA0499824617986F
:104D70000BF08FFA011C50460BF074FA391C824676
:104D800009980BF086FA011C50460BF06BFA311CA7
:104D9000824625980BF07DFA291C83462C980BF04F
:104DA00078FA011C58460BF05DFA059983461E9867
:104DB0000BF06FFA011C58460BF054FA011C5046D8
:104DC0000BF050FA4946E06011980BF062FA049932
:104DD000824618980BF05DFA011C50460BF042FA1F
:104DE000391C82460A980BF054FA011C50460BF00D
:104DF00039FA311C824626980BF04BFA291C83465F
:104E00002D980BF046FA011C58460BF02BFA059929
:104E100083461F980BF03DFA011C58460BF022FA0E
:104E2000011C50460BF01EFA4946206112980BF007
:104E300030FA0499824619980BF02BFA011C50465F
:104E40000BF010FA391C82460B980BF022FA011C69
:104E500050460BF007FA311C824627980BF019FADE
:104E6000291C83462E980BF014FA011C58460BF0AF
:104E7000F9F90599834620980BF00BFA011C584666
:104E80000BF0F0F9011C50460BF0ECF9494660615B
:104E900013980BF0FEF9049981461A980BF0F9F972
:104EA000011C48460BF0DEF9391C81460C980BF0CA
:104EB000F0F9011C48460BF0D5F9311C071C289865
:104EC0000BF0E7F9291C061C2F980BF0E2F9011CE6
:104ED000301C0BF0C7F90599051C21980BF0D9F986
:104EE000011C281C0BF0BEF9011C381C0BF0BAF990
:104EF00018239C46FFABA06114331C34E044A3424A
:104F000000D08BE6309BA2AD99463C93C4234C461F
:104F1000C8464B44089307944246D26843464146EC
:104F2000914642469E694C68096892685F691B69B0
:104F30000491301CFD99069305920BF0AAF9F6999D
:104F40008246381C0BF0A5F9011C50460BF08AF97B
:104F5000EF99824606980BF09CF9E89983464846FB
:104F60000BF097F9011C58460BF07CF9011C5046D8
:104F70000BF078F9E199824605980BF08AF9DA99F5
:104F80008346201C0BF085F9011C58460BF06AF98A
:104F9000D399834604980BF07CF9011C58460BF01A
:104FA00061F9011C50460BF05DF9011C28680BF0FB
:104FB00056F92860FE99301C0BF06BF9F799824680
:104FC000381C0BF066F9011C50460BF04BF9F099B8
:104FD000824606980BF05DF9E999834648460BF046
:104FE00058F9011C58460BF03DF9011C50460BF0D6
:104FF00039F9E299824605980BF04BF9DB99834623
:10500000201C0BF046F9011C58460BF02BF9D499E3
:10501000834604980BF03DF9011C58460BF022F929
:10502000011C50460BF01EF9011C68680BF017F9C3
:10503000FF996860301C0BF02CF9F8998246381CF7
:105040000BF027F9011C50460BF00CF9F199824640
:1050500006980BF01EF9EA99834648460BF019F9B9
:10506000011C58460BF0FEF8011C50460BF0FAF8F4
:10507000E399824605980BF00CF9DC998346201CD5
:105080000BF007F9011C58460BF0ECF8D599834654
:1050900004980BF0FEF8011C58460BF0E3F8011CD5
:1050A00050460BF0DFF8011CA8680BF0D8F8FFABF6
:1050B0005968A860301C04330BF0EBF8F99982466C
:1050C000381C0BF0E6F8011C50460BF0CBF8F299B7
:1050D000824606980BF0DDF8EB99834648460BF0C4
:1050E000D8F8011C58460BF0BDF8011C50460BF0D7
:1050F000B9F8E499824605980BF0CBF8DD99834620
:10510000201C0BF0C6F8011C58460BF0ABF8D699E2
:10511000834604980BF0BDF8011C58460BF0A2F82A
:10512000011C50460BF09EF8011CE8680BF097F844
:10513000FFAB9968E860301C08330BF0AAF8FA99C5
:105140008246381C0BF0A5F8011C50460BF08AF87B
:10515000F399824606980BF09CF8EC9983464846F2
:105160000BF097F8011C58460BF07CF8011C5046D8
:105170000BF078F8E599824605980BF08AF8DE99ED
:105180008346201C0BF085F8011C58460BF06AF88A
:10519000D799834604980BF07CF8011C58460BF015
:1051A00061F8011C50460BF05DF8011C28690BF0FA
:1051B00056F8FFABD9682861301C0C330BF069F846
:1051C000FB998246381C0BF064F8011C50460BF02A
:1051D00049F8F499824606980BF05BF8ED998346FE
:1051E00048460BF056F8011C58460BF03BF8011CE2
:1051F00050460BF037F8E699824605980BF049F8CF
:10520000DF998346201C0BF044F8011C58460BF034
:1052100029F8D899834604980BF03BF8011C5846AE
:105220000BF020F8011C50460BF01CF8011C6869BB
:105230000BF015F8EE99686148460BF02AF8F599DD
:10524000814606980BF025F8011C48460BF00AF839
:10525000FC998146381C0BF01CF8FFAB1969071C40
:10526000301C10330BF015F8011C381C0AF0FAFF43
:10527000011C48460AF0F6FFE099061C201C0BF0C2
:1052800008F8E799041C05980BF003F8011C201C92
:105290000AF0E8FFD999041C04980AF0FAFF011CEF
:1052A000201C0AF0DFFF011C301C0AF0DBFF011C90
:1052B000A8690AF0D4FF1C239C46089BE044A8611F
:1052C0001C35984500D027E6079BA29A99461A609C
:1052D000A39A5A60A49A9A60A59ADA60A69A1A616B
:1052E000A79A5A61A89A9A61A99ADA61AA9A1A6247
:1052F000AB9A5A62AC9A9A62AD9ADA62AE9A1A6323
:10530000AF9A5A63B09A9A63B19ADA63B29A1A64FE
:10531000B39A5A64B49A9A64B59ADA64B69A1A65DA
:10532000B79A5A65B89A9A65B99ADA65BA9A1A66B6
:10533000BB9A5A66BC9A9A66BD9ADA66BE9A1A6792
:10534000BF9A5A67C09A9A67C19ADA674A46802319
:10535000C299D150C3990433D150C4990433D15068
:10536000C5990433D150C6990433D150C799043339
:10537000D150C8990433D150C9990433D150CA9936
:105380000433D150CB990433D150CC990433D1504C
:10539000CD990433D150CE990433D150CF990433F1
:1053A000D150D0990433D150D1990433D150D299EE
:1053B0000433D1503AAA94464F4BA2AA63441B68C7
:1053C00013CB13C24D4BD3AC63441B6807CB07C44C
:1053D0003A9B3B9D00934A4B28006344A2A91B685B
:1053E000D3AAFDF789F82B00D3AA23CB23C213CB72
:1053F00013C23AA91B688C4613603EAA11003E4BAB
:1054000063441B6831CB31C13C4BA2A963441B6888
:1054100031CB31C13A4BD3A963441B6871A80093C7
:10542000A2ABFDF7CFFAD3AB07931C00719B099396
:10543000789B10937F9B1793869B1E938D9B259340
:10544000949B2C939B9B3393729B0A93799B119310
:10545000809B1893879B1F938E9B2693959B2D93E0
:105460009C9B3493739B0B937A9B1293819B199310
:10547000889B20938F9B2793969B2E939D9B359380
:10548000749B0C937B9B1393829B1A93899B219310
:10549000909B2893979B2F939E9B3693759B0D9380
:1054A0007C9B1493839B1B938A9B2293919B2993B0
:1054B000989B30939F9B3793769B0E937D9B159380
:1054C000849B1C938B9B2393929B2A93999B319350
:1054D000A09B3893779B0F937E9B1693859B1D9380
:1054E0008C9B2493939B2B939A9B3293A19B3C9DE3
:1054F00039934B463C9305E028080000380800002B
:105500003C080000E868AE698146A96828692B68F4
:105510006A6880460691301C3399049305920AF01C
:10552000B8FE6F6982462C99381C0AF0B2FE011C45
:1055300050460AF097FE2599824640460AF0A9FE99
:105540001E99834648460AF0A4FE011C58460AF0FC
:1055500089FE011C50460AF085FE1799824606987E
:105560000AF097FE1099834605980AF092FE011CF6
:1055700058460AF077FE0999834604980AF089FE96
:10558000011C58460AF06EFE011C50460AF06AFEE5
:1055900034992060301C0AF07CFE2D998246381C1C
:1055A0000AF077FE011C50460AF05CFE26998246FE
:1055B00040460AF06EFE1F99834648460AF069FE8F
:1055C000011C58460AF04EFE011C50460AF04AFEE5
:1055D0001899824606980AF05CFE11998346059850
:1055E0000AF057FE011C58460AF03CFE0A99834611
:1055F00004980AF04EFE011C58460AF033FE011CC6
:1056000050460AF02FFE35996060301C0AF041FECA
:105610002E998246381C0AF03CFE011C50460AF0C6
:1056200021FE2799824640460AF033FE20998346A0
:1056300048460AF02EFE011C58460AF013FE011CD3
:1056400050460AF00FFE1999824606980AF021FE8C
:105650001299834605980AF01CFE011C58460AF070
:1056600001FE0B99834604980AF013FE011C58466C
:105670000AF0F8FD011C50460AF0F4FD3699A060CE
:10568000301C0AF006FE2F998246381C0AF001FEF3
:10569000011C50460AF0E6FD2899824640460AF071
:1056A000F8FD2199834648460AF0F3FD011C58464F
:1056B0000AF0D8FD011C50460AF0D4FD1A99824622
:1056C00006980AF0E6FD1399834605980AF0E1FD75
:1056D000011C58460AF0C6FD0C99834604980AF04E
:1056E000D8FD011C58460AF0BDFD011C50460AF0C9
:1056F000B9FD3799E060301C0AF0CBFD3099824645
:10570000381C0AF0C6FD011C50460AF0ABFD299971
:10571000824640460AF0BDFD2299834648460AF07B
:10572000B8FD011C58460AF09DFD011C50460AF0C8
:1057300099FD1B99824606980AF0ABFD14998346A1
:1057400005980AF0A6FD011C58460AF08BFD0D993C
:10575000834604980AF09DFD011C58460AF082FD1C
:10576000011C50460AF07EFD38992061301C0AF079
:1057700090FD31998246381C0AF08BFD011C504681
:105780000AF070FD2A99824640460AF082FD23996C
:10579000834648460AF07DFD011C58460AF062FD2A
:1057A000011C50460AF05EFD1C99824606980AF0DC
:1057B00070FD1599834605980AF06BFD011C58464B
:1057C0000AF050FD0E99834604980AF062FD011C10
:1057D00058460AF047FD011C50460AF043FD494671
:1057E000606124980AF055FD414681462B980AF0E5
:1057F00050FD011C48460AF035FD391C80463298A0
:105800000AF047FD311C071C39980AF042FD011CC3
:10581000381C0AF027FD011C40460AF023FD0599BB
:10582000061C16980AF035FD0699071C1D980AF00B
:1058300030FD011C381C0AF015FD0499071C0F9857
:105840000AF027FD011C381C0AF00CFD011C301C5D
:105850000AF008FD089B1C35A0611C349D4200D055
:1058600050E63C9BA2AC9946F6AB0693DAAB0893A4
:105870004B463C943D93079B586D1A688146996B43
:10588000186F0492069A8046059148461E99DD6974
:105890001768D6690AF0FDFC2599824640460AF051
:1058A000F8FC011C50460AF0DDFC2C998246381C9D
:1058B0000AF0EFFC33998346301C0AF0EAFC011C25
:1058C00058460AF0CFFC011C50460AF0CBFC109958
:1058D0008246281C0AF0DDFC1799834605980AF0D9
:1058E000D8FC011C58460AF0BDFC0999834604986F
:1058F0000AF0CFFC011C58460AF0B4FC011C5046CB
:105900000AF0B0FC20601F9948460AF0C2FC2699B4
:10591000824640460AF0BDFC011C50460AF0A2FC3B
:105920002D998246381C0AF0B4FC34998346301C09
:105930000AF0AFFC011C58460AF094FC011C5046CA
:105940000AF090FC11998246281C0AF0A2FC1899D2
:10595000834605980AF09DFC011C58460AF082FC1B
:105960000A99834604980AF094FC011C58460AF0F0
:1059700079FC011C50460AF075FC2099606048468D
:105980000AF087FC2799824640460AF082FC011CF7
:1059900050460AF067FC2E998246381C0AF079FCC2
:1059A00035998346301C0AF074FC011C58460AF0F5
:1059B00059FC011C50460AF055FC12998246281CDD
:1059C0000AF067FC1999834605980AF062FC011CED
:1059D00058460AF047FC0B99834604980AF059FC94
:1059E000011C58460AF03EFC011C50460AF03AFCE5
:1059F0002199A06048460AF04CFC2899824640460E
:105A00000AF047FC011C50460AF02CFC2F998246F4
:105A1000381C0AF03EFC36998346301C0AF039FCEB
:105A2000011C58460AF01EFC011C50460AF01AFCE4
:105A300013998246281C0AF02CFC1A998346059873
:105A40000AF027FC011C58460AF00CFC0C9983460E
:105A500004980AF01EFC011C58460AF003FC011CC5
:105A600050460AF0FFFB2299E06048460AF011FC1C
:105A70002999824640460AF00CFC011C50460AF067
:105A8000F1FB30998246381C0AF003FC37998346B3
:105A9000301C0AF0FEFB011C58460AF0E3FB011C17
:105AA00050460AF0DFFB14998246281C0AF0F1FBED
:105AB0001B99834605980AF0ECFB011C58460AF036
:105AC000D1FB0D99834604980AF0E3FB011C58466C
:105AD0000AF0C8FB011C50460AF0C4FB2399206160
