:020000041000EA
:1000000000B5324B212058609868022188439860DF
:10001000D860186158612E4B002199600221596106
:100020000121F02299502B49196001219960352056
:1000300000F044F80222904214D00621196600F024
:1000400034F8196E01211966002018661A6600F04E
:100050002CF8196E196E196E052000F02FF8012189
:100060000842F9D1002199601B49196000215960AB
:100070001A491B48016001219960EB211966A021F2
:10008000196600F012F800219960164914480160C1
:100090000121996001BC002800D000471248134993
:1000A000086003C880F30888084703B5996A0420EC
:1000B0000142FBD001200142F8D103BD02B5186610
:1000C0001866FFF7F2FF186E186E02BD00000240BE
:1000D000000000180000070000035F00212200005C
:1000E000F4000018222000A00001001008ED00E03C
:1000F00000000000000000000000000074B24E7A12
:1001000000200420F7010010C3010010C5010010F9
:10011000C1010010C1010010C1010010C101001097
:10012000C1010010C1010010C1010010C701001081
:10013000C1010010C1010010C9010010CB01001065
:10014000CD010010CD010010CD010010CD01001037
:10015000CD010010CD010010CD010010CD01001027
:10016000CD010010CD010010CD010010CD01001017
:10017000CD010010CD010010CD010010CD01001007
:10018000CD010010CD010010CD010010CD010010F7
:10019000CD010010CD010010CD010010CD010010E7
:1001A000CD010010CD010010CD010010CD010010D7
:1001B000CD010010CD010010CD010010CD010010C7
:1001C00000BE00BE00BE00BE00BE00BE00F04BF888
:1001D000103800BEF2EB8871CC080610EC0806104F
:1001E0003402001090A31AE700202149086006C8D5
:1001F00081F3088810471F48006800282FD10DA4FC
:100200000ECC002902D000F012F8F9E71A491B4A77
:10021000002000E001C19142FCD1194988471949E9
:1002200088471949884700BEFDE701C901C29A42C3
:10023000FBD37047EC080610C000002064220020A9
:10024000902A06100000042000000420902A0610C6
:1002500000100420001004200000000070470B482C
:100260000FF02CFE0047EFF30580C0B2704700008E
:1002700008ED00E0000000D0702200201C51032097
:1002800079E200100D030010A1E3001057560000A2
:1002900006005250ABB36053984905100600525007
:1002A000861C0302A8490510060052505422A29D44
:1002B000B449051005005250DE65F468902A061016
:1002C000F8B5C04610B5064C2378002B07D1054B76
:1002D000002B02D0044800E000BF0123237010BDB2
:1002E000802700200000000090430510044B10B54B
:1002F000002B03D00349044800E000BF10BDC046F6
:1003000000000000842700209043051070B51920DC
:100310000CF0A8FAD02380221B0692045A622748C8
:1003200011F0B4FB11F002FD254811F0AFFB00F015
:1003300067F8244811F0AAFB07F0C6FF224811F025
:10034000A5FB09F065FF214811F0A0FB08F058FA61
:1003500002F048FC00F050F91D4811F097FB0BF03B
:10036000F9F9002205241B4B1A7007F0CBFA1A4842
:1003700011F08CFB194D013C2100280011F0CAFC42
:10038000FA2080000DF0DCF8002CF4D10A2011F0E6
:100390002DFB0122002112480CF040FD114814F001
:1003A000DDF90122104B114C1A702378012BFCD17E
:1003B0000AF0EAF82378012BFAD0F6E7904305100B
:1003C000A0430510AC430510B8430510C843051001
:1003D000D8430510FE500320E8430510F4430510F0
:1003E000C84F0320CDA70010FD5003200251032069
:1003F00010B5024814F0DAFC10BDC046AC2E032044
:10040000092370B586B0059304330493023B03932C
:10041000013B0293023B324D324C0193324B22009E
:100420003249334800932B0006F02AFF142006F0CF
:1004300023FFFA2080000DF083F82E4E21003200B9
:10044000280007F035F93378682B08D02A4C2000B3
:1004500011F01CFBFA2080000DF072F8F7E77378BA
:100460003D2BF3D101222100280007F045F9234E4E
:1004700032002100280007F079F93378002BF7D1FA
:1004800001222100280006F0F5FF0121200006F0DE
:10049000D3FF0321200006F065FF0321280007F0A9
:1004A0008FF81321200007F0CFF91221200007F068
:1004B00009FA0021200007F0E7F90321200007F0E6
:1004C00071F90221200007F089F95521200006F07A
:1004D00067FF1821280007F00DF806B070BDC04670
:1004E0004C150320A828002040420F00D4150020FE
:1004F000CC150020A45003200844051017510320F8
:10050000F0B5C646334C344D344E2200290030003D
:1005100000B507F0DFF86378DB439B0720D0237832
:100520001B0702D480BCB846F0BD2D4C062200212A
:10053000200011F029F92100300007F09BF800237A
:10054000E05E06F005FF274D28600223E05E06F01E
:10055000FFFE68600423E05E06F0FAFEA860E1E7B3
:10056000214B062298461800002111F00DF91F4F6B
:1005700006220021380011F007F94146280007F053
:100580005BF83900280007F039F843460020185E70
:1005900006F0CAFE4346164D28600220185E06F09B
:1005A000C3FE434668600420185E06F0BDFEA860E6
:1005B0000023F85E06F0C2FE0E4D28600223F85EAE
:1005C00006F0BCFE68600423F85E06F0B7FEA86083
:1005D000A5E7C046BC450320A82800204C150320F1
:1005E00030350320983A0320203503202835032096
:1005F000A4330320C8330320F0B5C64600B511F07C
:1006000095FB254925480DF06FFD03211A200CF0BC
:10061000F9F803211B200CF0F5F8002201211A2023
:100620000CF008F9002201211B200CF003F91C48F2
:100630000CF086FF1B4C1C4E23781C4DDB070ED4A0
:100640001B4B01279846210030880BF0DFFD434605
:10065000287018680CF074FF23781F42F3D030889C
:100660000BF0B2FB0221287030880BF003FD14213F
:10067000287030880BF036FC1421287030880BF07D
:100680009FFD287030880BF003FC2870094811F09A
:10069000FDF980BCB846F0BD801A0600EC160020BB
:1006A000B80B000018510320DC1500200551032071
:1006B000E01500201C440510F0B55746DE464E46B6
:1006C0004546E0B58BB00891924619000590099314
:1006D000DA1703238C46134063449B109B00984613
:1006E000002B00DC90E05246159B00249B000193F8
:1006F000149B9B1A159A9B1A089A9B0002935368A5
:100700001268190194460491069251469A00039288
:1007100052468D000021013A92000792002289463C
:100720005900DE00CB189B009B46130042466544EF
:100730000092019A94469C44039B1A199F195346B0
:10074000002B1EDD069B059819196346804600980C
:100750009B00434480460094086818600098081A7B
:10076000845804315C6084599C60C059D86010334F
:100770008D42F1D143460799009363468C4604337A
:100780009C440421029B5A4463448C461400049AFE
:100790003E00E1449446009A5E4465444A45C8DC04
:1007A0001A00009B9846099B434526DD1499159C29
:1007B000089B0D1B514609CB6D1A00291DDD4146D2
:1007C0009E004B439B00C01853469C00059B474628
:1007D0009C46099BAB469846159B994600234A4484
:1007E00091006144C558CD5004339C42FAD1524423
:1007F00001375A448019B845F0D10BB0F0BCBB4664
:10080000B246A946A046F0BD0022CCE7F0B5474667
:10081000CE4680B51F00002B1DDD002A1BDD930096
:10082000C0180B68002498464B689100D2004942DA
:1008300052428C4691469B00614645182900A20011
:1008400042441668D21840C18142FAD14A46013466
:10085000A81AA742F0D1C0BCB946B046F0BDC04608
:10086000F0B5DE464E46574645460023E0B51360D8
:1008700083688BB0049305239B4600235E46099250
:1008800002680293013B07900691039208930523A7
:10089000049C9B1B5C439846029BA4009C46039BC4
:1008A00064449C46644423685D0063686D085F008F
:1008B0007F08291C381C10F0DDFC002800D1CCE09A
:1008C0003D1C0127731C9A46022B37D9A368291CAB
:1008D0005B005B08181C994610F0CCFC002801D086
:1008E0004D4602275346032B28D0E368291C5B00A2
:1008F0005B08181C994610F0BDFC002801D04D463D
:1009000003275346042B19D02369281C5B005B087E
:10091000191C994610F0A0FC002801D04D46042770
:100920005346062B0AD16469281C64006408211C04
:1009300010F092FC002801D00527251C069B029A86
:10094000474400219F50281C10F07EFC002800D155
:1009500085E0089B013300D1FEE0062347469B1B40
:100960009C46079A05939268574367440492BF00D8
:100970000599049B0C009A005C43029B00929C46E4
:10098000039BA5001A0065448C4691469B469246FF
:1009900090463B1D6444A400994404335D445C4488
:1009A0009A44BB4404331037944698443B000027D4
:1009B000634401935B462968186810F016FC011C1B
:1009C000206810F0F8FB2060012E2DD94B462868D6
:1009D000196810F00AFC011C606810F0ECFB606004
:1009E000022E21D053462868196810F0FEFB011C26
:1009F000A06810F0E0FBA060032E15D043462868E5
:100A0000196810F0F2FB011CE06810F0D4FBE06004
:100A1000052E09D1019B2968186810F0E6FB011C1E
:100A2000206910F0C8FB2061009B01379C4665449B
:100A30006444BE42BED1029B013E04330293059B37
:100A4000052B00D023E71A00069B5A610BB0F0BCBF
:100A5000BB46B246A946A046F0BD002732E747454F
:100A600030D0039902988C46BF0067448446079AA9
:100A70003C6892680B5892000C5061443B608918A6
:100A8000BB1808681C680C60186089189B180868F7
:100A90001C680C60186089189B1808681C680C603A
:100AA000186089189B1808681C680C601860891801
:100AB0009B1818680A6808601A60099A13680093FE
:100AC000013313604746079B039A9B685F43049377
:100AD0000623991B43468C46FB189B0067449C5891
:100AE000BF00D51928680591211C10F06AFB286009
:100AF000012E00D83CE7039B3D1D9C4665442868B9
:100B0000211C10F05EFB2860022E00D130E7039B11
:100B10003D009C46083565442868211C10F051FBB7
:100B20002860032E00D123E7039B3D009C460C3533
:100B300065442868211C10F044FB2860042E00D175
:100B400016E7039A3D009446103565442868211C39
:100B500010F037FB28600BE7062347469B1B9C469B
:100B600005934346079A0893926857436744049253
:100B7000BF00FDE6F0B55746DE464E464546E0B5B9
:100B800099B01493249B8246259C26985D1C00D125
:100B9000229B651C00D1229C239DEE170325354026
:100BA000239EB4466544AD10AF000725229E0E97E4
:100BB000AE4335000096149E002E00DC88E29B00B8
:100BC0001693230110930301D31817936B1EDB08B0
:100BD00001330391D9015B010F93A3007C432018DB
:100BE00080001193131815930023D3461391089393
:100BF0000E9B002B00DCC2E10F9A039B94466344DA
:100C00001293179BD8460193002302930298434600
:100C100001000CCB089C5943A4466144890051183B
:100C20000991411C59436144890051180A91811C62
:100C300059436144890051180B91C11C4B436344D3
:100C40009B00D318019E0C93009B3400002B00DC0A
:100C500045E2039B0025994600234C46AA46AB4635
:100C6000A946069504952F1C059507950D932568B3
:100C70003168281C10F0B9FA594610F09FFA7168D3
:100C80008346281C10F0B1FA514610F097FAB1686B
:100C90008246281C10F0A9FA079910F08FFAF16823
:100CA0000790281C10F0A1FA059910F087FA05901A
:100CB00065683169281C10F098FA391C10F07EFA2A
:100CC0007169071C281C10F090FA049910F076FA4C
:100CD000B1690490281C10F088FA069910F06EFA99
:100CE000F1690690281C10F080FA494610F066FA67
:100CF0008146A568316A281C10F077FA594610F031
:100D00005DFA716A8346281C10F06FFA514610F0A4
:100D100055FAB16A8246281C10F067FA079910F05C
:100D20004DFAF16A0790281C10F05FFA059910F04F
:100D300045FA0590E568316B281C10F056FA391C0D
:100D400010F03CFA716B071C281C10F04EFA049945
:100D500010F034FAB16B0490281C10F046FA069992
:100D600010F02CFAF16B0690281C10F03EFA494660
:100D700010F024FA81462569316C281C10F035FAF0
:100D8000594610F01BFA716C8346281C10F02DFA9E
:100D9000514610F013FAB16C8246281C10F025FA67
:100DA000079910F00BFAF16C0790281C10F01DFA4F
:100DB000059910F003FA05906569316D281C10F053
:100DC00014FA391C10F0FAF9716D071C281C10F088
:100DD0000CFA049910F0F2F9B16D0490281C10F08F
:100DE00004FA069910F0EAF9F16D0690281C10F04B
:100DF000FCF9494610F0E2F98146A569316E281CDC
:100E000010F0F3F9594610F0D9F9716E8346281C99
:100E100010F0EBF9514610F0D1F9B16E8246281C62
:100E200010F0E3F9079910F0C9F9F16E0790281C4A
:100E300010F0DBF9059910F0C1F90590E569316F03
:100E4000281C10F0D2F9391C10F0B8F9716F071C8A
:100E5000281C10F0CAF9049910F0B0F9B16F049091
:100E6000281C10F0C2F9069910F0A8F9F16F06904D
:100E7000281C10F0BAF9494610F0A0F981468036D6
:100E800020340D9B009A08330D939A4200DDEEE664
:100E9000139B019C9C46051C5946381C644410F069
:100EA0008DF95146071C049810F088F90799061C23
:100EB000069810F083F905998146281C10F07EF9F8
:100EC000129B051C9A46229A009B9A4230DDAB4643
:100ED0000493534620CB2168281C9A4610F085F9CC
:100EE000011C381C10F06AF96168071C281C10F0FE
:100EF0007CF9011C301C10F061F9A168061C281C4B
:100F000010F073F9011C484610F058F9E168814669
:100F1000281C10F06AF9011C584610F04FF983465E
:100F2000049B229A0133103404939A42D1D1051CB8
:100F3000311C0A9E306810F03EF9391C099F041CD0
:100F4000386810F038F9291C0C9D38603460286826
:100F500010F031F90B9E4946041C306810F02BF953
:100F60001099019A8C46029B624401920E9A0433B6
:100F7000306002932C609A4200DD47E6C3460F9A28
:100F8000039B944663440E9A0293239B9246159DBD
:100F9000934200DC90E05B465C6853465C43089BF0
:100FA0002F009C465B461B6864449C46009BA40043
:100FB0006444002B00DC99E00023039F99463B002A
:100FC000A04600262F001C003968206810F00DF99B
:100FD000311C10F0F3F8061C7968606810F005F910
:100FE000311C10F0EBF8061CB968A06810F0FDF891
:100FF000311C10F0E3F8061CF968E06810F0F5F811
:10100000311C10F0DBF8061C3969206910F0EDF88E
:10101000311C10F0D3F8061C7969606910F0E5F80E
:10102000311C10F0CBF8061CB969A06910F0DDF88E
:10103000311C10F0C3F8061CF969E06910F0D5F80E
:10104000311C10F0BBF8061C2037203408239C46C6
:10105000009BE1444B45B7DC44460F9BEF18029BD5
:101060000193229A009B9A4217DD994600239846E5
:1010700043464246F958019B985810F0B6F8011CB7
:10108000301C10F09BF8061C01239C460333E144FE
:101090009C46229BE0444B45EAD12068311C10F06D
:1010A0008AF801239C46119BE2449C46239B2060C6
:1010B0006544534500D06EE71699039A8C46089B09
:1010C00062440392149A013308939A4200D08FE548
:1010D00019B0F0BCBB46B246A946A046F0BD0025FB
:1010E000039BA9469A462E1C2F1CECE6039B002668
:1010F0000193B6E7F0B55746DE464E4645469C247A
:10110000E0B5BDB006AF3C19FB6384232060982492
:10111000BA6694225B003C19FB1821601C68BA185F
:101120002369FB67A3681360834202DD9423FB18E5
:10113000186094239821FB187918FA6F1B680D68C2
:10114000534355432268002A00D1DBE29B007B66B3
:101150008C23FB181A6090220023BA18136063686E
:10116000AA003A66002B00D1ECE28822BB6700237C
:10117000BA181360C84D2B78BFF35B8FDB0700D420
:10118000FDE2C64CA4220423BA1813609433FB1862
:101190001B686068002B18DD9C237A1DFB18FF324A
:1011A0001B6812681900934200DAFFE209010EF091
:1011B000DFFE0323C2171340A4221B189B109B00C1
:1011C000BA181360042B00DAEBE29C23FB181C68AE
:1011D000002C00DC72E2FB6BFD6F18006A4250438A
:1011E000F86118008021661B7043F866180001330F
:1011F0005A4392007918BA61621E0E601100594379
:1012000089008846B96E1B018C46E04441467964EA
:10121000A90049423961A1007C1CFF3424685B426B
:10122000A446A42461443964791DFF313C1909683E
:101230002468FB606143B962B02183005B42791886
:101240000B600300921B5043DB43AC229B00BA1897
:101250001360C4227B1DFF331B68BA189B007861A2
:101260001360A022FB6FBA1813609C22BA18126890
:10127000934202DDA023FB181A609823FB181B6819
:10128000002B00DC9FE1A023FB181A68002A00DC79
:1012900099E19823FB181B68396C3B65A423FB1864
:1012A0001B6853439B00FB62BB6FFB649300CB1A2C
:1012B00079697B628C46FB6EB82163447B630023B3
:1012C00079180B60D021BB643B679C33FB181B680B
:1012D00079189B1ABB60130079600321013B043A23
:1012E0008B43D31A3B63A422BA183B6D1268FB658B
:1012F000934200DDFA65B822BA181268FB6D944675
:10130000C8226344BA1813609C237A6AFB18944677
:101310001B6884227B673B6FBA189B0063443B6267
:101320007B6B7B657B6CBB65A023FB181B68136024
:101330008423B422FB181B68BA181360042B03DD46
:10134000B4220423BA1813608423FB181B68002BF3
:1013500000DCA5E0B422C820B824BA187B6F11685D
:1013600038183C19006824685A1ABA63A04200DC95
:101370009CE094464E1EB96E9B008A46043B9B46F9
:101380007B6D791C63449B00FF3109689A44BB6CF8
:1013900063448C46A8219B00634479180B6093003A
:1013A000C0225B42BA181360BC22BB6DBA1813602E
:1013B000BC23FE20FB181B68800519680FF001FF95
:1013C000CC23FB181860A823FB181C68B823FB1853
:1013D0001B68B1461E00C023FB181B685A4698467E
:1013E000A04443469958CC23FB1818680FF0FDFE23
:1013F00043465A4698504B46051C002B22DD534667
:1014000019680FF0F2FE011C20680FF0D4FE4B4665
:101410002060012B16D05346281C59680FF0E5FEBA
:10142000011C60680FF0C7FE4B466060022B09D0BC
:101430005346281C99680FF0D8FE011CA0680FF0D5
:10144000BAFEA060C423FB181B6801369C46C82363
:10145000FB181B6864449E42BDD1AC22BC23BA1861
:101460001268FB189446BC221B68BA1863441360C8
:101470000423B0225B429C46BA181268E3449446A7
:10148000B4224E46BA181268731EE244961BB2424A
:101490000CDD1E008CE7C046FC180320C02E032084
:1014A000B422BA187B6F12689B1ABB638423B422E0
:1014B000BD6BBA18AC46FB1810681B687A1CFF326B
:1014C00012681C1A3B6F7968634494469B0063441E
:1014D0000B607B1DFF331B6880464B60A02301948B
:1014E000FB181E6802000096FB6DF86C9B4689464F
:1014F0008246FFF7E1F8002C2ADD2B00BA68494646
:101500009446FD6BBA6E6B438C20634494464D60E9
:101510004D469B003818006863440B604246230028
:101520008146FFF773F929007B1DFF333D6A1B6875
:101530000D604B600D005B46039646460193524694
:10154000230049462800049402960096FFF712FBF8
:1015500084238422F968FB188C46B0211B68BA18D2
:10156000043B13607A6F7918043A09687A67BA6D98
:1015700062448C46BA657A6D62447A653A6B9342EE
:1015800000D0D5E6A422B823BA181268B821944630
:10159000FB181B68791863440B60396D8A1AF96A65
:1015A0003A658C46FA6CB96A62448C46FA643A6FC2
:1015B00062443A67BA6C6244BA649822BA181268F4
:1015C0009A4200DD8FE680239C22FB181B68BA1824
:1015D0001360002B72DD9423FB181B68002B00DCCA
:1015E000FEE78023BA6EFB1892461D68FB6E00244E
:1015F0009B009A44D023FE1800239B46013B99464A
:101600009423FB181B68A8469D4200DD9846CC2217
:10161000A300BA181360FA6B8C207260A0225344A6
:10162000BA18381831001268006833604346FFF773
:10163000EDF87A1CCC23FF321268FB1894461B6825
:101640008C21634433607B1DFF331B687918736002
:101650005B4604934B46039302939823FB181B6845
:1016600030000193A023FB181B680093BA6F434618
:101670000968FFF77FFA9423FB181B689C46ED1A54
:101680008023FB181B686444A342B9DCFA69FB6E33
:101690009446BA6963449446FB663A697B6C63443A
:1016A00094467B643B6CFA6F63443B648023FB1875
:1016B0001B689B1A8022BA181360D2E580233A6E09
:1016C0009B029A4208D98823FB181B68002B03D081
:1016D000043B186810F040F880237A6E9B029A420F
:1016E00008D99023FB181B68002B03D0043B186813
:1016F00010F032F8BD4637B0F0BCBB46B246A94642
:10170000A046F0BD9A0080237A669B029A424FD889
:1017100013006A461633DB08DB00D31A9D462720E8
:101720000F23684498438133FB18186090238C2260
:10173000FB181B68BA1813606368AA003A66002B8E
:1017400000D012E580239B029A424FD813006A46CC
:101750001633DB08DB00D31A9D4627200F2368448D
:1017600098437933FB1818608823FB181B682D4DAC
:10177000BB672B78BFF35B8FDB0700D501E5280043
:1017800013F012F8284C002800D1FBE48023DB0181
:10179000236080231B0328006360A36013F020F8FC
:1017A000F0E4A4220423BA1813600EE51100FDE44E
:1017B000100010300FF092FF9023FB18021E1860EB
:1017C000B4D00F23010099430B0010218C468C20CC
:1017D0009C446146DA6023683818016058425841D9
:1017E000902340420140FB181960B8E4100010300B
:1017F0000FF074FF8823FB1818600028B4D00F2363
:10180000010099430B0010218C46D86060689C440D
:1018100043425841614688234042B967FB18014062
:101820001960A7E4FC180320C02E0320F0B557462A
:10183000DE464E464546E0B5B3B006AF8C24BB62EB
:10184000E023FA6288223C19FB1821601C68BA1850
:101850002369786513608422A368BA1813608342F1
:1018600002DD8423FB181860842388228C21FB1856
:10187000BA18791812681B680D68534355432268DB
:10188000002A00D150E29B00FA6780223B650023CA
:10189000BA1813606368AA00FA64002B00D161E2F1
:1018A000FB660023BB67E74D2B78BFF35B8FDB073D
:1018B00000D470E2E44C90220423BA1813608833F9
:1018C000FB181B686068002B16DDDC22BA187B6DE4
:1018D00012681900934200DA74E209010EF048FB25
:1018E0000323C217134090221B189B109B00BA18A9
:1018F0001360042B00DA60E27B6D002B00DCF1E169
:101900008822B96ABA1808001268BB6350439B1A50
:10191000B86098207B634B1C99001B01FB61DC23A2
:101920004A43381801607A609020DC22FB181B685B
:10193000BA189B009B46FB6A38183B630023126869
:101940000068BB6542437A610A1F3A627B67942252
:10195000BB6BBA1813608822BA181268934202DD72
:101960009423FB181A608C23FB181B68002B00DCE7
:1019700045E19423FB181A68002A00DC3FE18C2320
:101980009021FB181B687918BB6413000968DA46BC
:101990004B43D821791809689B008C463B61FB6E4C
:1019A0009C21FB657B6F79189B006344FB600023DF
:1019B0000B60A8213B667918130039600321013BB5
:1019C000043A8B43D31ABB619022BA18BB6C1268DD
:1019D000BB66934200DDBA669C22BA181268BB6EE1
:1019E0009446FA68634494469B463B6E9B0063446E
:1019F000FB633B6B3B647B6F7B66BB6D7B649423BB
:101A0000FB181B683B679423FB181A683B6FD21ABC
:101A10007A62A022BA181360042B03DDA0220423EB
:101A2000BA1813603B6F002B58DD9C23FB181B6812
:101A30009B4553DDA023A422FB181B68BA18013B69
:101A40009946FB6B13603B6C98464B46002B2EDD92
:101A5000A423FB181C689C23FB181E6843462568BA
:101A60005968281C0FF0C1FB011C60680FF0A3FB34
:101A70004B466060012B16D04346281C99680FF036
:101A8000B4FB011CA0680FF096FB4B46A060022B34
:101A900009D04346281CD9680FF0A7FB011CE06859
:101AA0000FF089FBE060013654445E45D6D14B46C9
:101AB0005A1E9823FB181B68A4219C46A423FB18DC
:101AC0001B68791804330B60A023FB1819684B4678
:101AD000E044CB1A994201DD9146B6E7A022BA183C
:101AE0001468D8223B6F796E3E6E8C461D1B330006
:101AF000BA1810686344844639689B0063440B60DD
:101B0000DC23FB181B6822004B607B6A884601932C
:101B10009423FB1818680090BB6EF86DFEF7CCFD9F
:101B2000002D36DD7B6E41469C46786C2200644475
:101B30000319F86A9B008446B86A63444860A02091
:101B400038180260F86F0B602B00C1468046FEF724
:101B50005DFED822BA18331914689B00A4464C467F
:101B600063442360DC23FB1819687B6A616004937B
:101B70009423FB181E68A0230396FB181A6841469D
:101B80000292BB6E0092019348462B00FA6DFEF75D
:101B9000F1FF396A7A6C8C46F96962448C467A6442
:101BA0007A6E3B6F04327A663A6C043B62443A6464
:101BB000FA6B3B671032FA63BA69934200D022E7AE
:101BC00090229C23BA1812689C219446FB181B682B
:101BD000791863440B60B96C8A1A7969BA648C46C7
:101BE0003A6E396962448C463A66FA6D6244FA6527
:101BF0008C22BA1812689A4200DDE5E6D3468822A4
:101C0000BA1812687B6F94467A6D63447B6793427F
:101C100068DA8423FB181B68002B17DC8823B9685B
:101C2000FB188C46BA6B1B68D21ABA63BA6D624451
:101C3000BA657A6BD31A7A687B6394463B6B6344CC
:101C40003B6384E6FC180320C02E0320FA6ABB6DB8
:101C500092469B009A44A823FE18A93B99467D6BA7
:101C60007C6F8423FB181B68A8469D4200DD9846C4
:101C7000A422A300BA181360BA6A53447260942273
:101C8000BA1831001268F86F33604346FEF7BEFDA4
:101C9000D822A423BA181268FB1894461B68300097
:101CA00063443360DC23FB181B68736000230493D8
:101CB0004B46039302938C23FB181B6801939423D8
:101CC000FB181B680093FA6E4346F96FFEF752FF4C
:101CD0008423FB181B689C46ED1A7B6D6444A34269
:101CE000BFDC9BE78023FA6C9B029A4206D9BB6F4C
:101CF000002B03D0043B18680FF02EFD80233A6DB3
:101D00009B029A4208D98023FB181B68002B03D042
:101D1000043B18680FF020FDBD462DB0F0BCBB465B
:101D2000B246A946A046F0BD9A0080233A659B02C0
:101D30009A4249D813006A461633DB08DB00D31AEF
:101D40009D4627200F23684498437133FB18186081
:101D50008023FB181B68AA00FB676368FA64002BEA
:101D600000D09DE580239B029A4249D813006A4621
:101D70001633DB08DB00D31A9D4627200F23684467
:101D80009843B867BB6F2A4DFB662B78BFF35B8F18
:101D9000DB0700D58EE5280012F006FD254C002853
:101DA00000D188E58023DB01236080231B0328000A
:101DB0006360A36012F014FD7DE590220423BA183D
:101DC000136099E5110088E5100010300FF086FCD3
:101DD0008023FB1818600028BAD00F230100994314
:101DE0000B0010218C46D8609C4423686146584201
:101DF000584180234042F967FB180140196049E5CA
:101E0000100010300FF06AFCB8670028BAD00F231A
:101E1000010099430B0010218C46D86060689C44F7
:101E20004342584161464042F9660140B9673AE58C
:101E3000FC180320C02E032030B587B00D4B02AD37
:101E400000951A68694602929A880400AA809B79D4
:101E50006A46AB71072301930023D3732FF036FC3E
:101E60000098A84203D0029901310FF0A9FC20008C
:101E700007B030BD24440510F0B5DE4657464E4647
:101E80004546E0B51F1CFE4B8FB01D68FD4B07900B
:101E900018680A91011C00920FF090F9FA4B19682A
:101EA0000FF0A3F9291C0FF0A0F9F84B19680FF0F7
:101EB00088F9011CFE2080050FF07DF9F44B814666
:101EC0001860F44B1E68301C0FF042FAF24B041CF1
:101ED0001B68301C98460FF04DFAF04B8346211CCE
:101EE00040461E680FF081F959468246301C0FF0BB
:101EF0007CF9011C50460FF061F9291C0FF075F9AF
:101F0000E74B8246186080231B0643441800391CA7
:101F10000FF06BF900998046301C0FF066F9011C38
:101F200040460FF04BF9DF4B80461968201C0FF03C
:101F30005CF918990FF059F9011C40460FF03EF971
:101F4000291C0FF052F9D84B1899186080231B06F2
:101F50008046F0180FF049F9291C0FF046F9D34BD1
:101F600000901860391C281C0FF03FF9211C0FF05D
:101F700028F9CF4CCF4B2668CF4C18602768CF4B41
:101F800083461968381C0FF030F9CD4C311C256898
:101F9000041C48460FF029F9011C201C0FF00EF913
:101FA000C84B041C1968281C0FF01FF9011C201CC9
:101FB0000FF004F941460FF001F9C34B0C90186083
:101FC000C24B381C1C68C24B19680FF00EF9211C5B
:101FD0008046301C0FF009F9011C40460FF0EEF866
:101FE000291C804650460FF000F9011C40460FF0B6
:101FF000E5F800990FF0E2F8B64B08901860B64B80
:10200000301C19680FF0F1F8B44B061C1968381C25
:102010000FF0EBF8011C301C0FF0D0F8B04B061C91
:102020001968281C0FF0E1F8011C301C0FF0C6F8ED
:1020300059460FF0C3F8AB4EAB4B356818604946B4
:10204000099048460FF0D1F8291C0FF0CEF8A74BA5
:1020500019680FF0B3F8A64BA64A186012680D90E5
:10206000211C484690460FF0C0F8291C0FF0BDF81F
:10207000A14F061C3F684846391C00970FF0B5F881
:10208000011C301C0FF09AF85146061C48460FF010
:10209000ACF841460FF0A9F8011C301C0FF08EF887
:1020A000964B41460190186048460FF09EF8944BBD
:1020B00002901860291C201C0FF097F8914D924E49
:1020C00029680FF07BF83768051C391C50460FF063
:1020D0008CF8011C281C0FF071F8061C011C4846E6
:1020E0000FF083F8894B8A4A18608A4B12681B6884
:1020F000039005930492884D50462D68291C06953F
:102100000FF073F84146051C201C0FF06EF8834B4E
:1021100019680FF053F8291C0FF050F8311C834652
:10212000201C0FF062F80099061C201C0FF05DF8CF
:10213000011C301C0FF042F805990FF03FF8049B8A
:10214000061C191C504698460FF04FF8011C301C15
:102150000FF034F85946061C50460FF046F8011CA3
:10216000301C0FF02BF86E4B5E4619680FF026F806
:102170006C4B009018606C4B391C1E6048460FF089
:1021800034F86A4B04901860391C201C0FF02DF8AD
:1021900041460FF013F8291C0FF010F8644B041C93
:1021A0001860644B196806980FF008F8624B08999C
:1021B000071C186007980EF0FEFF604B0999069007
:1021C00018600A980EF0F7FF5D4B079018605D4BA2
:1021D000059819680EF0F2FF5B4B061C1860584614
:1021E0005A4B059718605A4B381C1C60594B19689C
:1021F0000EF0E4FF584B071C1860011C301C0EF059
:10220000F4FF211C051C58460EF0EFFF011C281C92
:102210000EF0D1FF051C011C381C0EF0D2FF4F4BF5
:10222000071C186080231B065B44291C18000EF055
:10223000C8FF4B4B8146186080231B06E018291C01
:102240000EF0BFFF474B82461860291C301C0EF071
:10225000B8FF454B80461860391C01980A970EF06C
:10226000C4FF029E5146051C301C0EF0BEFF011C2F
:10227000281C0EF0A3FF3D4B071C1860494677E071
:1022800008160020E4150020CC16032010160020AC
:10229000D83503204C16002050160020541600207C
:1022A000E83503200416002020500320245003208A
:1022B00008170320285003200C170320DC350320C7
:1022C00010170320E035032014170320E435032002
:1022D000FC15002018170320EC350320F0350320EF
:1022E00000160020141600201C1703202C160020B6
:1022F00018160020B4440320AC440320B04403204B
:10230000B8440320BC440320CC440320C044032031
:10231000D44403201C16002024160020C4440320AB
:102320003016002020160020C8440320D04403208B
:10233000D84403203416002028160020C43503207A
:10234000C8350320381600208C4F0320904F0320FF
:10235000944F03203C160020984F03209C4F0320ED
:10236000A04F0320A44F0320A84F0320BC28002027
:1023700001980EF03AFF4146051C301C0EF035FF67
:10238000011C281C0EF01AFF914B061C0A991860BC
:1023900000980EF02AFF5146051C58460EF025FF06
:1023A000011C281C0EF00AFF8A4B494618600B904E
:1023B00000980EF01AFF4146051C58460EF015FF16
:1023C000011C281C0EF0FAFE834B051C0A991860AC
:1023D000201C0EF00AFF51460A9005980EF005FFEA
:1023E000011C0A980EF0EAFE7C4B824618604946B2
:1023F000201C0EF0FAFE4146814605980EF0F5FECF
:10240000011C48460EF0DAFE754B81461860391CF7
:1024100006980EF0EAFE0C990EF0D0FE311C8046B4
:1024200007980EF0E2FE011C40460EF0C7FE6D4B11
:102430000B99186006980EF0D8FE08990EF0BEFEB3
:10244000291C804607980EF0D0FE011C40460EF075
:10245000B5FE654B5146186006980EF0C6FE099908
:102460000EF0ACFE4946804607980EF0BEFE011CF9
:1024700040460EF0A3FE5D4B391C186003980EF029
:10248000B4FE011C0D980EF096FE311C8046049897
:102490000EF0ABFE011C40460EF08DFE544B391C75
:1024A000186000980EF0A1FE011C01980EF083FE4A
:1024B000311C8046201C0EF098FE011C40460EF098
:1024C0007AFE4C4B391C186058460EF08EFE011CEB
:1024D00002980EF070FE059B071C311C181C9846D4
:1024E0000EF083FE011C381C0EF065FE424B0B996A
:1024F0001860FE2080050EF05EFE061C011C03988D
:102500000EF073FE291C071C04980EF06EFE011CD1
:10251000381C0EF050FE394B311C186000980EF03C
:1025200064FE291C071C201C0EF05FFE011C381CD9
:102530000EF041FE324B311C186058460EF055FE2D
:10254000291C061C40460EF050FE011C301C0EF0EB
:1025500032FE2C4B49461860FE2080050EF02BFE03
:10256000051C011C04980EF040FE5146061C039801
:102570000EF03BFE011C301C0EF01DFE224B291CF0
:102580001860201C0EF031FE5146041C00980EF01D
:102590002CFE011C201C0EF00EFE1C4B291C18608A
:1025A00040460EF022FE5146041C58460EF01DFE19
:1025B000011C201C0EF0FFFD154B1860FE2080054D
:1025C0000FB0F0BCBB46B246A946A046F0BDC0461F
:1025D000C0280020C4280020C8280020CC280020C3
:1025E000D0280020081703200C1703201017032001
:1025F00014160020AC440320B4440320BC44032040
:102600001C160020C4440320CC440320D4440320DF
:1026100024160020F0B5DE4657464E464546E24BAE
:10262000E0B51860E14B0D1C1B68E14C9846414633
:10263000E04BE4681960DD4989B04968069059604B
:102640008946DB4BDA491F684E68DB4B89681F609F
:102650005E609960DC60D94B05949A6858681C6884
:10266000029204910190DB68211C404603930EF016
:10267000BCFD0299824648460EF0B7FD011C50464B
:102680000EF09CFDCE4B82461968281C9B460EF02E
:10269000ACFD011C50460EF091FDCA4B019918602B
:1026A000079040469A460EF0A0FD039980464846A2
:1026B0000EF09BFD011C40460EF080FD5B468046FF
:1026C0005968281C0EF091FD011C40460EF076FD65
:1026D000554683466860211C381C0EF086FD029A20
:1026E000051C111C301C90460EF07FFD011C281C9F
:1026F0000EF064FD01998146381C0EF076FD039FB3
:10270000051C391C301C0EF070FD011C281C0EF03D
:1027100055FD211C824604980EF067FD4146051CBC
:1027200005980EF062FD011C281C0EF047FD464680
:102730000199804604980EF058FD391C051C059837
:102740000EF053FD011C281C0EF038FD4946071CF5
:10275000201C0EF04AFD4146051C301C0EF045FDC4
:10276000011C281C0EF02AFD974E31680EF026FD44
:10277000964D514604902860201C0EF036FD391C01
:10278000041C02980EF031FD011C201C0EF016FDF9
:1027900071680EF013FD49460290686001980EF0D2
:1027A00024FD039A4146041C101C91460EF01DFDA9
:1027B000011C201C0EF002FDB1680EF0FFFC51461A
:1027C000041CA86001980EF010FD391C8046484694
:1027D0000EF00BFD011C40460EF0F0FCF1680EF00F
:1027E000EDFCE8607A4D071C2E680498311C0EF051
:1027F000FCFC6D688046291C381C01970EF0F5FC26
:10280000291C824602980EF0F0FC41460EF0D6FCE0
:10281000311C0EF0EAFC311C071C201C0EF0E5FCFC
:1028200051460EF0CBFC291C0EF0DFFC011C381CBD
:102830000EF0C4FC674B19680EF0C0FC664B071C19
:102840001860291C201C0EF0D0FC41460EF0B6FC8E
:10285000391C0EF0B6FC6149804689460860029832
:10286000311C0EF0C2FC51460EF0A8FC391C0EF0D3
:10287000A8FC4946079B071C4860181C311C9A4657
:102880000EF0B3FC291C814658460EF0AEFC011C2C
:1028900048460EF093FC011C06980EF08CFC414655
:1028A00081460EF0A2FC51460EF088FC3F4A391CCE
:1028B000106048460EF099FC59460EF07FFC3B4AEA
:1028C00081465060464A311C934640460EF08DFCCE
:1028D0005A46011C10680EF06EFC311C8246381CF2
:1028E0000EF083FC5A46011C50680EF064FC291C53
:1028F000061C40460EF079FC5A46011C90680EF00A
:102900005AFC291C8046381C0EF06FFC5A46011CEC
:10291000D0680EF050FC5146051C04980EF065FC82
:10292000029B4146071C181C9B460EF05EFC011CD6
:10293000381C0EF043FC1E4A311C106004980EF047
:1029400054FC291C071C58460EF04FFC011C381C77
:102950000EF034FC164B51465860201C0EF045FC1E
:10296000019B4146071C181C98460EF03EFC011CBA
:10297000381C0EF023FC0E4B311C9860201C0EF00E
:1029800034FC291C041C40460EF02FFC011C201CAA
:102990000EF014FC064BD860484609B0F0BCBB46AC
:1029A000B246A946A046F0BDDC500320684403208F
:1029B000B02300203C3A0320F02300201024002004
:1029C000103503207844032000230020D02300206A
:1029D0008C440320881603202C3A0320B4280020BE
:1029E00030240020F0B5DE4657464E464546E0B559
:1029F000674B83B059689A460EF0DDFB654B051CAA
:102A00001860654B1B689B46644B59461C680EF06A
:102A1000D5FB211C0EF0E9FB614B061C1868011C5C
:102A20000EF0CCFB011C301C0EF0CBFB5D4E316870
:102A30000EF0C4FB5C4B009030601868011C0EF077
:102A4000BDFB5A4B061C1A68111C91460EF0CDFBBB
:102A50008046011C201C0EF0B1FB211C071C4046C7
:102A60000EF0A9FB524A116890460EF0BEFB391CCD
:102A70000EF0A7FB4946019048460EF09FFB5946D1
:102A80008146281C0EF097FB011C48460EF0ADFB5A
:102A9000391C0EF096FB011C01980EF08FFB42468C
:102AA00000991060071C281C0EF088FB391C0EF0E2
:102AB00085FB404B19680EF098FB3F4B18603F4B6D
:102AC0001860534619680EF076FB3D4B051C1860E4
:102AD0003C4B1B68191C9A460EF070FB211C0EF033
:102AE00084FB394B80461868011C0EF067FB011C03
:102AF00040460EF066FB354B994619680EF05EFBBA
:102B00004B461860324B80461B68301C191C994696
:102B10000EF06BFB8346011C201C0EF04FFB494658
:102B2000061C48460EF04AFB51468146281C0EF012
:102B300042FB011C48460EF058FB311C0EF041FBD5
:102B4000211C814658460EF036FB391C0EF04DFB19
:102B5000311C0EF036FB011C48460EF02FFB1D4BBE
:102B600041461860041C281C0EF028FB211C0EF0A6
:102B700025FB194B19680EF038FB184B1860184BE1
:102B8000186003B0F0BCBB46B246A946A046F0BDF3
:102B900068440320D0350320343A03200C1600206B
:102BA000E8150020243A0320F8150020E42800202E
:102BB000AC350320F01500202C5003201C500320BE
:102BC000D4350320383A0320EC150020283A03209E
:102BD000E8280020B0350320F415002030500320F1
:102BE0005C500320F8B5FE250024194BAD051D608F
:102BF000DD609C605C60174B174F1D60DD609C6062
:102C00005C60164B1E68164B301C19680EF0D9FA22
:102C1000144B38601D605C60DD609C60124B7C6012
:102C20001D605E60DD609C60104B1C605D60104B41
:102C30001868011C0EF0D9FA0E4B0F4A1860126882
:102C40000E4B1A600E4A9C6012685C60DA60F8BD38
:102C5000B0230020D0230020103503200C160020C4
:102C60001016002030240020102400208C44032063
:102C70004816002088160320781603200023002021
:102C800074160320F0B5DE4657464E464546E0B57D
:102C90000E000168C7688946416805698A468168EF
:102CA0008DB08B4641698069079306905068136820
:102CB000926805910A90291C30680B920993089537
:102CC0000EF079FA0599039070680EF074FA06997F
:102CD000051CB0680EF06FFA80268046360607980D
:102CE0000EF01CFBB446039B009001916344180056
:102CF00051460EF07AFA5946061C281C0EF075FA59
:102D0000011C301C0EF057FA391C061C4046049773
:102D10000EF06BFA011C301C0EF04DFA0EF0FEFAAC
:102D20000022684B0DF0A3FB009A019B0DF09FFB66
:102D3000060048460F000EF0F1FA02000B003000CA
:102D40003900169C0DF06CFB0DF08AFC49462060A2
:102D500003980EF04AFA5946061C40460EF045FA12
:102D6000011C301C0EF02AFA0499061C281C0EF0D7
:102D70003CFA011C301C0EF01EFA0EF0CFFA0022B5
:102D8000504B0DF074FB009A019B0DF070FB060098
:102D900050460F000EF0C2FA02000B00300039005E
:102DA0000DF03EFB0DF05CFC49466060281C0EF007
:102DB0001CFA5146061C40460EF017FA011C301C46
:102DC0000EF0F9F90499061C03980EF00EFA011C96
:102DD000301C0EF0F3F90EF0A1FA0022394B0DF081
:102DE00046FB009A019B0DF042FB060058460F007F
:102DF0000EF094FA02000B00300039000DF010FBC9
:102E00000DF02EFC4946A06040460EF0EEF951460A
:102E1000061C281C0EF0E9F9011C301C0EF0CEF93E
:102E20005946051C03980EF0E0F9011C281C0EF011
:102E3000C2F90EF073FA0022224B0DF018FB009A33
:102E4000019B0DF014FB060004980F000EF066FACB
:102E500002000B00300039000DF0E2FA0DF000FC2A
:102E6000089B0999E060181C98460EF0BEF9079D72
:102E7000291C0EF0BAF9011C40460EF09CF9059F82
:102E80000A992061381C0EF0B0F9291C0EF0ADF93A
:102E9000011C381C0EF08FF9069E0B996061301CE6
:102EA0000EF0A3F9291C0EF0A0F9011C301C0EF045
:102EB00082F9A06100200DB0F0BCBB46B246A94625
:102EC000A046F0BD0000E03FF0B5DE4657464E4656
:102ED00045468A464168E0B58846C768816891B032
:102EE000066889464046391C141C04930EF07DF98F
:102EF0004946051C301C0EF078F90A90011C281C6C
:102F000009950EF058F90EF009FA02000B000DF0C9
:102F100087FA06900791201C02940EF0FFF90B002F
:102F2000020004000D00069807990DF0A0FA0DF0BC
:102F300097FB5246391C106048460EF056F98346FE
:102F40004146301C0EF051F95A460E90011C58466D
:102F50000B920EF033F90EF0E1F902000B000DF0C8
:102F60005FFA02000B00200029000C920D930DF077
:102F70007EFA0DF075FB5446311C6060301C0EF07B
:102F800034F94146041C40460EF02FF9051C011C83
:102F9000201C0EF010F94946089048460EF025F91D
:102FA000391C8346381C0EF020F9594601900898C8
:102FB0000EF001F901990EF001F902990F900EF04F
:102FC00014F953464946986040460EF00EF9391CF4
:102FD0008046301C0EF009F981461A980EF09EF9D1
:102FE00006001B980F000EF099F902900391291C1E
:102FF000201C0EF0E3F859460EF0DDF801990EF0B2
:10300000DAF804990EF0F1F80EF088F904000D00DA
:10301000404649460EF0D2F80EF080F902000B004F
:103020000DF0FEF932003B000DF021FA02000B001A
:10303000200029000DF0F4F9029A039B04000D0012
:10304000069807990DF013FA02000B0020002900E2
:103050000DF0E6F90DF004FB5346D86004980EF02D
:103060005DF904000D00404649460EF0A4F80EF04C
:1030700055F902000B000DF0D3F922002B00049447
:1030800005950DF0F4F904000D00089859460EF06E
:1030900095F801990EF08FF81A990EF0A6F80EF037
:1030A0003DF902000B00200029000DF0B9F9029A49
:1030B000039B04000D000C980D990DF0D8F9020047
:1030C0000B00200029000DF0ABF90DF0C9FA5346B2
:1030D0000A99186109980EF071F80EF01FF90200B4
:1030E0000B000DF09DF9049A059B0DF0C0F904004A
:1030F0000D000B980E990EF05EF80EF00FF902001D
:103100000B000DF08DF932003B000DF0B0F902001C
:103110000B00200029000DF083F904000D000F982A
:103120001B990EF062F80EF0F9F802000B00200077
:1031300029000DF075F90DF093FA534658610020FF
:1031400011B0F0BCBB46B246A946A046F0BDC04691
:10315000F0B50400DE4657464E4645460800E0B549
:1031600045680968AA46856895B0AB46C568466952
:10317000876910910E9501695568106892680496E8
:1031800090461A68069711925A689B681292139398
:10319000FE239B05236099460EF00DF80EF0BEF855
:1031A000009001911E980EF0B9F806000F000098EB
:1031B00001990022924B0DF05AF932003B000DF0BC
:1031C00056F90DF04DFA04990390E061281C0DF0BA
:1031D000F2FF0EF0A3F80022894B049005910DF048
:1031E00046F932003B000DF042F90DF039FA06992C
:1031F000051CA06340460DF0DEFF0EF08FF80022A4
:103200007F4B069007910DF032F932003B000DF034
:103210002EF90DF025FA0A90606550460EF07EF802
:103220000022784B089009910DF021F932003B0003
:103230000DF01DF90DF014FA0B90206758460EF0B2
:103240006DF800226F4B0C900D910DF010F93200CB
:103250003B000DF00CF90DF003FA8C238246E05090
:103260000E980EF05BF80022664B0E900F910DF059
:10327000FEF832003B000DF0FAF80DF0F1F9A8234A
:103280008346E0500022009801995E4B0DF0EFF864
:1032900032003B000DF0EBF80DF0E2F949460090EA
:1032A00060602162002206980799564B0DF0DFF806
:1032B00032003B000DF0DBF80DF0D2F9A565804639
:1032C000E06310980EF02AF800224D4B0DF0CFF875
:1032D00032003B000DF0CBF80DF0C2F959469023B7
:1032E000051C60670022E1500C980D99444B0DF0CD
:1032F000BEF832003B000DF0BAF80DF0B1F9AC2386
:103300000022E050049805993E4B0DF0B0F83200D1
:103310003B000DF0ACF80DF0A3F949460A9A83463C
:103320006262009AA0602164E2650E980F99002203
:10333000334B0DF09CF832003B000DF098F80DF087
:103340008FF994230B99A067E5501C33E150414657
:10335000E1605946A162494621665146039BE167F7
:103360006364089809990022254B0DF080F832001B
:103370003B000DF07CF80DF073F99823E0501C33FE
:10338000E55000251E9911982561E562A5646566E2
:103390000DF02BFF011C48460DF00DFF8023E0507F
:1033A0001C33E5501C33E550343B1E99129865617F
:1033B0002563E564A566E5500DF017FF011C48463E
:1033C0000DF0F9FEA023E0501C33E550343BA5611D
:1033D00065632565E566E5501C33E5501E99139835
:1033E0000DF003FF011C48460DF0E5FEC023E05040
:1033F000002015B0F0BCBB46B246A946A046F0BDC1
:103400000000E0BF0000E03FF0B5DE4657464E4604
:103410004546E0B59A460B68141C8A689B464B6883
:10342000C9688BB00500101C8846009301920DF00E
:1034300075FF02900391201C0DF070FFC023060061
:103440000F000298039900221B060DF010F83200BD
:103450003B000DF00CF80DF003F908902860404691
:103460000DF05CFF02000B000CF0DAFF32003B00B5
:103470000CF0FDFF0DF0F4F8041CA86158460DF0A7
:103480004DFFC02300221B06049005910CF0EFFFB6
:1034900032003B000CF0EBFF0DF0E2F828630098DF
:1034A0000DF03CFF02000B00069007910CF0B8FFF6
:1034B00032003B000CF0DBFF0DF0D2F8002190232E
:1034C0008946A8642966A967E95068600498059947
:1034D00002000B000CF0A4FF32003B000CF0C7FF11
:1034E0000DF0BEF86C630490E86102980399020045
:1034F0000B000CF095FF32003B000CF0B8FF0DF014
:10350000AFF849469423E8646966E967E950C02347
:1035100006980799049A1B06AA6000220CF0A7FFE0
:1035200032003B000CF0A3FF0DF09AF8089B4946CF
:10353000AB63802328622C65A966E9501833E950F3
:10354000404614990DF051FE019F1599061C381C38
:103550000DF04BFE5146041C58460DF046FE311C42
:103560000DF02CFE211C06940DF025FE011C0DF023
:1035700025FE51460990E86000980DF036FE14993A
:10358000041C381C0DF031FE011C201C0DF016FE31
:103590001599041C40460DF028FE011C201C0DF05E
:1035A0000DFE011C0DF00AFE14990290686200984D
:1035B0000DF01BFE1599089058460DF016FE019A65
:1035C0008024944624066444071C514620000DF0D4
:1035D0000CFE08990DF0F2FD391C0DF0ECFD011CFC
:1035E0000DF0ECFD1499E86358460DF0FEFD1599B9
:1035F000049000980DF0F9FD802212064244041C4C
:10360000514610000DF0F1FD04990DF0D7FD211C7D
:103610000DF0D4FD011C0DF0D1FD4A468423EA666D
:103620006865EA501833EA505146286101980DF058
:10363000DCFD08990DF0BFFD391C0DF0BFFD011C2C
:103640000DF0BCFD071CA8628020029B00062B64C5
:10365000514658440DF0C9FD311C0DF0ACFD0699E2
:103660000DF0ACFD011C0DF0A9FD8823A8654846AE
:103670002867E8501833E850514640466F610DF016
:10368000B4FD04990DF097FD211C0DF094FD011C73
:103690000DF094FD099AE8626A64029B4A46EB6564
:1036A0004B466B678C230020EA501833EA500BB06E
:1036B000F0BCBB46B246A946A046F0BD0123F0B51A
:1036C000E3214746CE469C46294B80460500994655
:1036D000284E80B58900076846444144FA0F6F6858
:1036E000D2077B005B08346813435A086240644683
:1036F0001C4201D04B465A4004C50436A942EDD1C4
:10370000E32342469B00C626D458194B01259C460C
:10371000F6004644E20F4C68D20763005B08076876
:1037200013435A087A401D4201D063465A40043080
:1037300004C1B042EED14246C62140460E4BC900FC
:10374000D3581268DB0F52005208DB07415813436D
:103750005A084A40DB0701D5054B5A404146064B03
:10376000CA5000220433CA50C0BCB946B046F0BDAE
:10377000DFB0089934060000BC090000F0B54546EA
:10378000DE4657464E46E0B53B4CD723A54434AA07
:10379000944663441B091B018A6805930B680192D8
:1037A00037921A68049006929A69339107921A6BBD
:1037B00038AC08929A6C09921A6E0B929A6F0C921E
:1037C00090229A580D925A680E92DA690F925A6BAB
:1037D0001092DA6C11925A6E1292DA6F139294224E
:1037E0009A5814929A6815921A6A16929A6B1792BE
:1037F0001A6D18929A6E199280229A581A929822EB
:103800009A581B92DA681C925A6A1D92DA6B1E92C1
:103810005A6D1F92DA6E209284229A5821929C222D
:103820009A5822921A6923929A6A24921A6C2592C3
:103830009A6D26921A6F279288229A582892A0226F
:103840009A5829925A692A92DA6A2B925A6C2C92C7
:10385000DA6D2D925A6F2E928C229A582F92A422B2
:103860009B5830934B68984638AB3293C4234546F7
:1038700043440A9302E0C0469CFDFFFFEA68A96941
:1038800091462A69AB6890466A690998039149464E
:10389000019302920DF0A9FC414682460B980DF06F
:1038A000A4FC011C50460DF089FC029982460C983C
:1038B0000DF09BFC039983460D980DF096FC011CBE
:1038C00058460DF07BFC011C50460DF077FC6F68EC
:1038D0008246391C07980DF088FC019983460898A8
:1038E0000DF083FC011C58460DF068FC2E688346E1
:1038F000311C06980DF079FC011C58460DF05EFC59
:10390000011C50460DF05AFC4946206011980DF0FC
:103910006CFC4146824612980DF067FC011C504633
:103920000DF04CFC0299824613980DF05EFC039951
:10393000834614980DF059FC011C58460DF03EFCCE
:10394000011C50460DF03AFC391C82460F980DF0D0
:103950004CFC0199834610980DF047FC011C584619
:103960000DF02CFC311C83460E980DF03EFC011C22
:1039700058460DF023FC011C50460DF01FFC494633
:10398000606018980DF031FC4146824619980DF0A0
:103990002CFC011C50460DF011FC029982461A982D
:1039A0000DF023FC039983461B980DF01EFC011CAF
:1039B00058460DF003FC011C50460DF0FFFB391C6E
:1039C000824616980DF011FC0199834617980DF068
:1039D0000CFC011C58460DF0F1FB311C8346159878
:1039E0000DF003FC011C58460DF0E8FB011C50468D
:1039F0000DF0E4FB4946A0601F980DF0F6FB414630
:103A0000824620980DF0F1FB011C50460DF0D6FBCC
:103A10000299824621980DF0E8FB0399834622988B
:103A20000DF0E3FB011C58460DF0C8FB011C50468D
:103A30000DF0C4FB391C82461D980DF0D6FB019990
:103A400083461E980DF0D1FB011C58460DF0B6FBC5
:103A5000311C83461C980DF0C8FB011C58460DF024
:103A6000ADFB011C50460DF0A9FB4946E0602698CD
:103A70000DF0BBFB4146824627980DF0B6FB011CBA
:103A800050460DF09BFB0299824628980DF0ADFB45
:103A90000399834629980DF0A8FB011C58460DF0A8
:103AA0008DFB011C50460DF089FB391C8246249881
:103AB0000DF09BFB0199834625980DF096FB011CA8
:103AC00058460DF07BFB311C834623980DF08DFB8F
:103AD000011C58460DF072FB011C50460DF06EFBA8
:103AE0002D99206148460DF080FB2E998146404675
:103AF0000DF07BFB011C48460DF060FB2F998046C2
:103B000002980DF072FB3099814603980DF06DFB21
:103B1000011C48460DF052FB011C40460DF04EFBC7
:103B2000391C80462B980DF060FB2C99071C0198DE
:103B30000DF05BFB011C381C0DF040FB311C071C19
:103B40002A980DF052FB011C381C0DF037FB011CAC
:103B500040460DF033FB0A9B1C3560611834AB42C4
:103B600000D08BE6379B1A68629308929A69099293
:103B70001A6B0A929A6C0B921A6E0C929A6F0D92B3
:103B800090229A580E925A680F92DA6910925A6BE4
:103B90001192DA6C12925A6E1392DA6F1492942286
:103BA0009A5815929A6816921A6A17929A6B1892F6
:103BB0001A6D19929A6E1A9280229A581B92982224
:103BC0009A581C92DA681D925A6A1E92DA6B1F92FA
:103BD0005A6D2092DA6E219284229A5822929C2267
:103BE0009A5823921A6924929A6A25921A6C2692FC
:103BF0009A6D059C27921A6F2034289288229A5831
:103C0000A1462992A0229A582A925A692B92DA6ADE
:103C10002C925A6C2D92DA6D2E925A6F2F928C2222
:103C20009A583092A4229B5831935CAB06933EABDA
:103C30000793329B984643464246414640461B689E
:103C400095690193069B146B096E926C40CB876F4C
:103C50000291101C0B99039206930DF0C6FA0C9971
:103C6000824602980DF0C1FA011C50460DF0A6FAEA
:103C70000D998246381C0DF0B8FA0E998346301C17
:103C80000DF0B3FA011C58460DF098FA011C50468D
:103C90000DF094FA09998246281C0DF0A6FA0A99AB
:103CA0008346201C0DF0A1FA011C58460DF086FA3F
:103CB0000899834601980DF098FA011C58460DF0BA
:103CC0007DFA011C50460DF079FA4B4612991860A6
:103CD00003980DF08AFA1399824602980DF085FA3E
:103CE000011C50460DF06AFA14998246381C0DF0FA
:103CF0007CFA15998346301C0DF077FA011C584662
:103D00000DF05CFA011C50460DF058FA10998246ED
:103D1000281C0DF06AFA11998346201C0DF065FAF3
:103D2000011C58460DF04AFA0F99834601980DF090
:103D30005CFA011C58460DF041FA011C50460DF08A
:103D40003DFA4B461999586003980DF04EFA1A99AE
:103D5000824602980DF049FA011C50460DF02EFAE9
:103D60001B998246381C0DF040FA1C998346301C82
:103D70000DF03BFA011C58460DF020FA011C50468C
:103D80000DF01CFA17998246281C0DF02EFA18998E
:103D90008346201C0DF029FA011C58460DF00EFA3E
:103DA0001699834601980DF020FA011C58460DF033
:103DB00005FA011C50460DF001FA4B462099986017
:103DC00003980DF012FA2199824602980DF00DFA2F
:103DD000011C50460DF0F2F922998246381C0DF074
:103DE00004FA23998346301C0DF0FFF9011C584654
:103DF0000DF0E4F9011C50460DF0E0F91E998246E1
:103E0000281C0DF0F2F91F998346201C0DF0EDF9E6
:103E1000011C58460DF0D2F91D99834601980DF00A
:103E2000E4F9011C58460DF0C9F9011C50460DF08B
:103E3000C5F94B462799D86003980DF0D6F9289913
:103E4000824602980DF0D1F9011C50460DF0B6F9EA
:103E500029998246381C0DF0C8F92A998346301CEE
:103E60000DF0C3F9011C58460DF0A8F9011C50468D
:103E70000DF0A4F925998246281C0DF0B6F9269973
:103E80008346201C0DF0B1F9011C58460DF096F93F
:103E90002499834601980DF0A8F9011C58460DF0AD
:103EA0008DF9011C50460DF089F94B462E99186189
:103EB00003980DF09AF92F99824602980DF095F922
:103EC000011C50460DF07AF930998246381C0DF0ED
:103ED0008CF93199071C301C0DF087F9011C381C36
:103EE0000DF06CF9011C50460DF068F92C99061C78
:103EF000281C0DF07AF92D99051C201C0DF075F980
:103F0000011C281C0DF05AF92B99041C01980DF086
:103F10006CF9011C201C0DF051F9011C301C0DF036
:103F20004DF94B46586104239C461433E0449C46AB
:103F3000079BE144984500D07DE6339B059DDC68F6
:103F4000296A20680DF03AF9049EA96B3060606818
:103F50000DF034F97060A068296D0DF02FF9B06094
:103F6000E068A96E0DF02AF98023F0602069E95815
:103F700098460DF023F998233061E95860690DF0F7
:103F80001DF97061A069696A0DF018F9B061E06906
:103F9000E96B0DF013F9F061206A696D0DF00EF90F
:103FA0003062E96E606A0DF009F984277062A06AD8
:103FB000E9590DF003F99C23B062E958E06A0DF06D
:103FC000FDF8F062206BA96A0DF0F8F83063606BC1
:103FD000296C0DF0F3F87063A06BA96D0DF0EEF88D
:103FE000B063E06B296F0DF0E9F8F0638826206C70
:103FF000A9590DF0E3F8049B1864A023606CE958FC
:104000000DF0DCF8049BE96A5864A06C0DF0D6F85A
:10401000049B696C9864E06C0DF0D0F8049BE96D2A
:10402000D864206D0DF0CAF8049B696F1865606D47
:104030000DF0C4F88C25049A059B5065A06D595964
:104040000DF0BCF8A423049A9065059AE06DD15850
:104050000DF0B4F8049B059AD865116B206E0DF035
:10406000ADF8049B059A1866916C606E0DF0A6F889
:10407000049B059A5866A06E116E0DF09FF8049B84
:10408000059A9866E06E916F0DF098F8049B059A7A
:10409000D8669023206FD1580DF090F8049B059AB4
:1040A0001867A823606FD1580DF088F8049B059A13
:1040B0005867A16F506B0DF081F8049B059A9867C3
:1040C000E16FD06C0DF07AF84146049B059AD867F1
:1040D0006158506E0DF072F84146049B059A585095
:1040E000E159D06F0DF06AF8049BD8519423059FD5
:1040F000A159F8580DF062F8049B9851AC2361590E
:10410000F8580DF05BF8049B585199239B009D448F
:10411000F0BCBB46B246A946A046F0BDF0B5DE46AF
:1041200057464E4645460400E0B5036987B058003F
:1041300063694008590049080DF040F8E3685900E8
:1041400049080DF03BF86368051C5800A368400857
:10415000590049080DF032F82368590049080DF05C
:104160002DF8011C281C0DF029F8A36A051C580025
:10417000E36A4008590049080DF020F8636A5900C5
:1041800049080DF01BF8E369061C5800236A400833
:10419000590049080DF012F8A369590049080DF0BB
:1041A0000DF8011C301C0DF009F8236C071C580099
:1041B000636C4008590049080DF000F8E36B5900A2
:1041C00049080CF0FBFF636B061C5800A36B40080A
:1041D000590049080CF0F2FF236B590049080CF014
:1041E000EDFF011C301C0CF0E9FF061C011C381C03
:1041F0000DF032F8002800D13E1C311C281C0DF0B7
:104200002BF8002800D12E1CA36D5800E36D400848
:10421000590049080CF0D2FF636D590049080CF0B1
:10422000CDFFE36C051C5800236D40085900490878
:104230000CF0C4FFA36C590049080CF0BFFF011C2F
:10424000281C0CF0BBFF236F071C5800636F40084D
:10425000590049080CF0B2FFE36E590049080CF010
:10426000ADFF636E051C5800A36E40085900490855
:104270000CF0A4FF236E590049080CF09FFF011CAD
:10428000281C0CF09BFF88238046E0580433E1583B
:1042900040004900490840080CF090FF8423E15891
:1042A000490049080CF08AFFE36F051C5800802381
:1042B000E1584008490049080CF080FFA36F5900FD
:1042C00049080CF07BFF011C281C0CF077FF051C33
:1042D000011C40460CF0C0FF002800D14546291CB7
:1042E000381C0CF0B9FF002800D13D1C291C301CE3
:1042F0000CF0B2FF002800D1351CC0232100E5508E
:1043000001AABA3B02A8A83104930294FCF7A8FAC8
:104310000121C422019B98260B405B428B43013351
:10432000A354343A9246002250469C27225094329D
:10433000A1509346923AA2510132E2519D329446E5
:1043400060469C3A2250A03291469F3A90464A4697
:1043500040462300A05048461832A258903392009D
:104360009A1815682550404610606046B8222058BB
:10437000A2588046604692009A181568255040461B
:104380001060B422E059A258844692009A1810682E
:104390005D46E05160461060B022A258A7599200D5
:1043A0009A181068A0511760AC225846A258265897
:1043B00092009A18106860511660A822A2585546BB
:1043C00092009B1852461868A25860511A60C52383
:1043D000E15407B0F0BCBB46B246A946A046F0BDCA
:1043E000C023002210B5C25000220433C2520B6811
:1043F000040003604B6843608B688360CB68C360D4
:104400000B6903614B6943618B698361CB69C3614C
:104410000B6A03624B6A43628B6A8362CB6AC36234
:104420000B6B03634B6B43638B6B8363CB6BC3631C
:104430000B6C03644B6C43648B6C8364CB6CC36404
:104440000B6D03654B6D43658B6D8365CB6DC365EC
:104450000B6E03664B6E43668B6E8366CB6EC366D4
:104460000B6F03674B6F43678B6F8367CB6FC367BC
:104470008023CA58C2500433CA58C2500433CA58A1
:10448000C2500433CA58C250FFF748FE200010BD86
:10449000F0B5DE464E4645465746E0B5214C9146BE
:1044A000A5443AAA94460A0031931F4B3B906344BB
:1044B0001B091B013A919846D3AB13CA13C313CA05
:1044C00013C31268D3A91A60184B194A1B6847A86E
:1044D0000493184B47AC1B680193174B1B6805935B
:1044E0000093049BFEF790FF47ABD3934B46D493C6
:1044F00047ABD5933AAA8323944686201B01634495
:104500001B68C0004044A2AAD3A9D6930990FFF724
:1045100035F96BAB089343460A934B463094A1465A
:104520001C000BE014F7FFFF4703000048150320B1
:104530000AE81C4140150320441503204B464E4613
:104540001B68B76F0493089B494640CB48464A46D0
:104550000893A823896C006E9569126B06910790E9
:10456000E158301C05920CF040FE8C238246E15845
:10457000381C0CF03AFE011C50460CF01FFE216F57
:10458000824607980CF031FE616D834606980CF068
:104590002CFE011C58460CF011FE011C50460CF07C
:1045A0000DFEA16B824605980CF01FFEE169834663
:1045B000281C0CF01AFE011C58460CF0FFFD216867
:1045C000834604980CF011FE011C58460CF0F6FDD1
:1045D000011C50460CF0F2FD43461860AC23301C21
:1045E000E1580CF002FE90238246E158381C0CF092
:1045F000FCFD011C50460CF0E1FD616F82460798FE
:104600000CF0F3FDA16D834606980CF0EEFD011C45
:1046100058460CF0D3FD011C50460CF0CFFDE16B69
:10462000824605980CF0E1FD216A8346281C0CF0B7
:10463000DCFD011C58460CF0C1FD616883460498FE
:104640000CF0D3FD011C58460CF0B8FD011C50467F
:104650000CF0B4FD43465860B023301CE1580CF018
:10466000C4FD94238246E158381C0CF0BEFD011CA9
:1046700050460CF0A3FDA16F824607980CF0B5FDE3
:10468000E16D834606980CF0B0FD011C58460CF015
:1046900095FD011C50460CF091FD216C8246059859
:1046A0000CF0A3FD616A8346281C0CF09EFD011CE2
:1046B00058460CF083FDA168834604980CF095FDE4
:1046C000011C58460CF07AFD011C50460CF076FD9A
:1046D00043469860B423301CE1580CF086FD9823C3
:1046E0008246E158381C0CF080FD011C50460CF04D
:1046F00065FDE16F824607980CF077FD216E8346D9
:1047000006980CF072FD011C58460CF057FD011C78
:1047100050460CF053FD616C824605980CF065FD27
:10472000A16A8346281C0CF060FD011C58460CF061
:1047300045FDE168834604980CF057FD011C58467E
:104740000CF03CFD011C50460CF038FD4346D8608F
:10475000B823301CE1580CF048FD9C238246E158F8
:10476000381C0CF042FD011C50460CF027FD802344
:104770008246E15807980CF038FD616E8346069832
:104780000CF033FD011C58460CF018FD011C50467E
:104790000CF014FDA16C824605980CF026FDE16A30
:1047A0008346281C0CF021FD011C58460CF006FD28
:1047B0002169834604980CF018FD011C58460CF042
:1047C000FDFC011C50460CF0F9FC43461861BC236B
:1047D000301CE1580CF009FDA0238246E158381C3A
:1047E0000CF003FD011C50460CF0E8FC84238246CB
:1047F000E15807980CF0F9FCA16E834606980CF07E
:10480000F4FC011C58460CF0D9FC011C50460CF07D
:10481000D5FCE16C824605980CF0E7FC216B8346E1
:10482000281C0CF0E2FC011C58460CF0C7FC616926
:10483000834604980CF0D9FC011C58460CF0BEFCD1
:10484000011C50460CF0BAFC4346E16E58610698D4
:104850000CF0CBFC88238246E15807980CF0C5FC8D
:10486000011C50460CF0AAFCA4238246E158381CD7
:104870000CF0BBFCC023071CE158301C0CF0B5FC4D
:10488000011C381C0CF09AFC011C50460CF096FCE4
:10489000616B061C281C0CF0A8FC216D051C0598FA
:1048A0000CF0A3FC011C281C0CF088FCA169051C61
:1048B00004980CF09AFC011C281C0CF07FFC011CD5
:1048C000301C0CF07BFC4346986104239C46183353
:1048D000E1449C464DABE0444B4500D02EE60A9B9C
:1048E000A146D8249846A427A4004444BF004744C6
:1048F00020000999FFF774FD210090223800C82498
:104900000CF048FFFC21A4004444890041441822D3
:1049100020000CF03FFFCE2081218000C9004144DF
:10492000182240440CF036FF8422D423D2004244A3
:1049300012689B0043441A60D523874A4546424487
:1049400012889B004344FE211A8000232268B03560
:104950009200AA188905116093611363936413662A
:104960009367C92292004244126844469200AA18F2
:10497000136091611363936413669367CA22920074
:104980004244126806269200AA18136093611163CC
:10499000936413669367CB22920042441268062008
:1049A0009200AA181360936113639164136693676E
:1049B000CC229200424412689200AA1813609361BC
:1049C0001363936411669367CD2292004244126888
:1049D0009200AA1813609361136393641366A8236B
:1049E0005B009B46916742465946E4182033434496
:1049F000A660E660266153508022920042444B3903
:104A00006260924604933A0006230294FF390196AD
:104A10000095FCF70BFF42465946049BA660E660F2
:104A20002661535053464B3963603A000623029483
:104A3000062001960095FF39FCF75CFB43461B6896
:104A40008C2207934346DB69D3AC089343469B6BA8
:104A5000099343465B6D0A9343461B6F0B93434692
:104A60009B5804320C9343465B68179343461B6A7A
:104A700018934346DB6B0D9343469B6D0E93434661
:104A80005B6F0F9343469B580432109343469B68D9
:104A9000119343465B6A129343461B6C1393434640
:104AA000DB6D149343469B6F159343469B5804322A
:104AB00016934346DB68199343469B6A0693434625
:104AC0005B6C1A9343461B6E1B934346DB6F1C9330
:104AD00043469B58183A1D9343461B691E93434611
:104AE000DB6A1F9343469B6C209343465B6E219386
:104AF00043469B581C32229343469B58183A2393B3
:104B000043465B69249343461B6B25934346DB6C0A
:104B1000269343469B6E279343469B581C3228930B
:104B200043469B58183A299343469B692A93434628
:104B30005B6B2B9343461B6D2C934346DB6E2D938F
:104B400043469B581C322E9343469B58A8462F93AE
:104B50004B46329302E0C0462404000043461F68DF
:104B60005B6842469946434641469B68D2680E6957
:104B70004D6908984946049305920CF036FB049958
:104B8000824609980CF031FB011C50460CF016FBD4
:104B9000391C824607980CF028FB011C50460CF08B
:104BA0000DFB311C82460B980CF01FFB291C834621
:104BB0000C980CF01AFB011C58460CF0FFFA0599F2
:104BC00083460A980CF011FB011C58460CF0F6FACB
:104BD000011C50460CF0F2FA4946206018980CF07F
:104BE00004FB049982460D980CF0FFFA011C504614
:104BF0000CF0E4FA391C824617980CF0F6FA011C06
:104C000050460CF0DBFA311C82460F980CF0EDFA9E
:104C1000291C834610980CF0E8FA011C58460CF049
:104C2000CDFA059983460E980CF0DFFA011C584620
:104C30000CF0C4FA011C50460CF0C0FA4946606002
:104C400012980CF0D2FA0499824613980CF0CDFA1F
:104C5000011C50460CF0B2FA391C824611980CF037
:104C6000C4FA011C50460CF0A9FA311C8246159872
:104C70000CF0BBFA291C834616980CF0B6FA011CFE
:104C800058460CF09BFA0599834614980CF0ADFA3F
:104C9000011C58460CF092FA011C50460CF08EFA9A
:104CA0004946A06006980CF0A0FA049982461A982A
:104CB0000CF09BFA011C50460CF080FA391C82461D
:104CC00019980CF092FA011C50460CF077FA311C3E
:104CD00082461C980CF089FA291C83461D980CF01A
:104CE00084FA011C58460CF069FA059983461B9812
:104CF0000CF07BFA011C58460CF060FA011C50467F
:104D00000CF05CFA4946E0601F980CF06EFA0499CA
:104D1000824620980CF069FA011C50460CF04EFABD
:104D2000391C82461E980CF060FA011C50460CF0AB
:104D300045FA311C824622980CF057FA291C83460A
:104D400023980CF052FA011C58460CF037FA0599DA
:104D5000834621980CF049FA011C58460CF02EFAB3
:104D6000011C50460CF02AFA4946206125980CF0A7
:104D70003CFA0499824626980CF037FA011C5046FA
:104D80000CF01CFA391C824624980CF02EFA011CF7
:104D900050460CF013FA311C824628980CF025FA84
:104DA000291C834629980CF020FA011C58460CF067
:104DB00005FA0599834627980CF017FA011C584606
:104DC0000CF0FCF9011C50460CF0F8F94946606102
:104DD0002B980CF00AFA049981462C980CF005FAED
:104DE000011C48460CF0EAF9391C81462A980CF05F
:104DF000FCF9011C48460CF0E1F9311C071C2E9807
:104E00000CF0F3F9291C061C2F980CF0EEF9011C8C
:104E1000301C0CF0D3F90599051C2D980CF0E5F920
:104E2000011C281C0CF0CAF9011C381C0CF0C6F936
:104E300018239C46A061FDAB1C34E044A34200D083
:104E40008CE6329BD49A9946D39BD599D69CD79D14
:104E5000D89ED99F06930792DA9BDB9A0891099412
:104E6000DC99DD9C0A950B96DE9DDF9E0C970D93D9
:104E7000E09FE19B0E92E29A0F9110941195129689
:104E8000139714931592E399E49CE59DE69EE79FA2
:104E9000E89BE99A16911794EA99EB9C1895199654
:104EA000EC9DED9E1A971B93EE9FEF9B1C921D911C
:104EB000F09AF1991E94F29C2096219722932392C6
:104EC000249125941F95F39DF49EF59FF79AF69BE8
:104ED000F899F99C26952796FA9DFB9E2897FC9FAA
:104EE0002A923A9A29932B912C942D952E962F97AE
:104EF000D3AB32CA32C332CA32C31168D3AC1960E1
:104F0000FD49FE4B09681B680191FD49FD4A09688E
:104F10002000009141A9FDF7D7FF319F41993868E2
:104F20000CF049F94299834678680CF044F94399AA
:104F30008246B8680CF03FF94499041CF8680CF0FC
:104F40003AF94599051C38690CF035F94699061C63
:104F500078690CF030F9071C011C2A980CF045F90F
:104F6000311C804623980CF040F9011C40460CF09F
:104F700025F9291C80461C980CF037F9011C404685
:104F80000CF01CF9211C804615980CF02EF95146A6
:104F900004900E980CF029F9011C04980CF00EF9FD
:104FA0005946049007980CF020F9011C04980CF065
:104FB00005F9011C40460CF001F93A9A51680CF0D1
:104FC000FDF8391C04902B980CF00FF9311C804629
:104FD00024980CF00AF9011C40460CF0EFF8291C4B
:104FE00080461D980CF001F9011C40460CF0E6F8D3
:104FF000211C804616980CF0F8F8514605900F9841
:105000000CF0F3F8011C05980CF0D8F859460590FF
:1050100008980CF0EAF8011C05980CF0CFF8011C78
:1050200040460CF0CBF83A9A91680CF0C7F8391C5E
:1050300005902C980CF0D9F8311C804625980CF07E
:10504000D4F8011C40460CF0B9F8291C80461E9883
:105050000CF0CBF8011C40460CF0B0F8211C804647
:1050600017980CF0C2F85146319010980CF0BDF82A
:10507000011C31980CF0A2F85946319009980CF0B7
:10508000B4F8011C31980CF099F8011C40460CF062
:1050900095F83A9AD1680CF091F8391C31902D9816
:1050A0000CF0A3F8311C804626980CF09EF8011CE9
:1050B00040460CF083F8291C80461F980CF095F8A8
:1050C000011C40460CF07AF8211C804618980CF020
:1050D0008CF85146329011980CF087F8011C3298E8
:1050E0000CF06CF8594632900A980CF07EF8011CCE
:1050F00032980CF063F8011C40460CF05FF83A9AC5
:1051000011690CF05BF8391C32902E980CF06DF898
:10511000311C804627980CF068F8011C40460CF0C2
:105120004DF8291C804620980CF05FF8011C404681
:105130000CF044F8211C804619980CF056F85146A2
:10514000339012980CF051F8011C33980CF036F89B
:10515000594633900B980CF048F8011C33980CF02A
:105160002DF8011C40460CF029F83A9A51690CF0D0
:1051700025F85146339013980CF037F8211C8046DF
:105180001A980CF032F8011C40460CF017F85946FA
:1051900080460C980CF029F8011C40460CF00EF8E3
:1051A000311C804628980CF020F8391C34902F9838
:1051B0000CF01BF8011C34980CF000F8291C3490FA
:1051C00021980CF012F8011C34980BF0F7FF011C29
:1051D00040460BF0F3FF3A9A91690BF0EFFF391C50
:1051E000804629980CF001F8311C071C22980BF01E
:1051F000FCFF011C381C0BF0E1FF291C061C1B984E
:105200000BF0F3FF011C301C0BF0D8FF211C051C18
:1052100014980BF0EAFF5146041C0D980BF0E5FFC3
:10522000011C201C0BF0CAFF5946041C06980BF009
:10523000DCFF011C201C0BF0C1FF011C281C0BF023
:10524000BDFF3A9AD3AC11680BF0B8FF3B9B049AB0
:1052500018605A60059A9A60319ADA60329A1A6137
:10526000339A5A6142469A614B461B684A46A2935A
:105270004B465B68A3934B469B68A4934B46DB6805
:10528000A5934B461B69A6934B465B69A7934B4678
:105290009B69A8934B46DB69A9934B461B6AAA936B
:1052A0004B465B6AAB934B469B6AAC934B46DB6ABF
:1052B000AD934B461B6BAE934B465B6BAF934B462C
:1052C0009B6BB0934B46DB6BB1934B461B6CB2931D
:1052D0004B465B6CB3934B469B6CB4934B46DB6C79
:1052E000B5934B461B6DB6934B465B6DB7934B46E0
:1052F0009B6DB8934B4607E04015032048150320EB
:10530000441503200AE81C41DB6DB9934B461B6E24
:10531000BA934B465B6EBB934B469B6EBC934B461E
:10532000DB6EBD934B461B6FBE934B465B6FBF93CB
:105330004B469B6FC0934B46DB6FC1938023D35882
:10534000C2938423D358C3938823D358C4938C2304
:10535000D358C5939023D358C6939423D358C79357
:105360009823D358C8939C23D358C993A023D358C8
:10537000CA93A423D358CB93A823D358CC93AC235C
:10538000D358CD93B023D358CE93B423D358CF93CF
:10539000B823D358D093BC23D358D193C023D35828
:1053A000D293309B3092984643461F685B684246D2
:1053B0009946434641469B68D2680E694D690D98EF
:1053C0004946049305920BF010FF04998246149805
:1053D0000BF00BFF011C50460BF0F0FE391C82460F
:1053E00006980BF002FF011C50460BF0E7FE311C43
:1053F000824622980BF0F9FE291C834629980BF06F
:10540000F4FE011C58460BF0D9FE059983461B9803
:105410000BF0EBFE011C58460BF0D0FE011C504671
:105420000BF0CCFE494620600E980BF0DEFE04998E
:10543000824615980BF0D9FE011C50460BF0BEFEBB
:10544000391C824607980BF0D0FE011C50460BF029
:10545000B5FE311C824623980BF0C7FE291C8346FB
:105460002A980BF0C2FE011C58460BF0A7FE0599C6
:1054700083461C980BF0B9FE011C58460BF09EFEAB
:10548000011C50460BF09AFE494660600F980BF0E5
:10549000ACFE0499824616980BF0A7FE011C5046FC
:1054A0000BF08CFE391C824608980BF09EFE011C06
:1054B00050460BF083FE311C824624980BF095FE7B
:1054C000291C83462B980BF090FE011C58460BF0CC
:1054D00075FE059983461D980BF087FE011C584602
:1054E0000BF06CFE011C50460BF068FE4946A060B4
:1054F00010980BF07AFE0499824617980BF075FE0F
:10550000011C50460BF05AFE391C824609980BF0DC
:105510006CFE011C50460BF051FE311C8246259852
:105520000BF063FE291C83462C980BF05EFE011CD9
:1055300058460BF043FE059983461E980BF055FE26
:10554000011C58460BF03AFE011C50460BF036FE8B
:105550004946E06011980BF048FE0499824618987D
:105560000BF043FE011C50460BF028FE391C82460E
:105570000A980BF03AFE011C50460BF01FFE311C3E
:10558000824626980BF031FE291C83462D980BF09D
:105590002CFE011C58460BF011FE059983461F98FE
:1055A0000BF023FE011C58460BF008FE011C504670
:1055B0000BF004FE4946206112980BF016FE049988
:1055C000824619980BF011FE011C50460BF0F6FDB7
:1055D000391C82460B980BF008FE011C50460BF05C
:1055E000EDFD311C824627980BF0FFFD291C8346F8
:1055F0002E980BF0FAFD011C58460BF0DFFD0599C3
:10560000834620980BF0F1FD011C58460BF0D6FDA7
:10561000011C50460BF0D2FD4946606113980BF017
:10562000E4FD049981461A980BF0DFFD011C484601
:105630000BF0C4FD391C81460C980BF0D6FD011C03
:1056400048460BF0BBFD311C071C28980BF0CDFD24
:10565000291C061C2F980BF0C8FD011C301C0BF0F8
:10566000ADFD0599051C21980BF0BFFD011C281C00
:105670000BF0A4FD011C381C0BF0A0FD18239C4668
:10568000FFABA06114331C34E044A34200D08BE68E
:10569000309BA2AD99463C93C4234C46C8464B442C
:1056A000089307944246D268434641469146424693
:1056B0009E694C68096892685F691B690491301C97
:1056C000FD99069305920BF090FDF6998246381CE1
:1056D0000BF08BFD011C50460BF070FDEF998246DC
:1056E00006980BF082FDE899834648460BF07DFD55
:1056F000011C58460BF062FD011C50460BF05EFD8C
:10570000E199824605980BF070FDDA998346201CDA
:105710000BF06BFD011C58460BF050FDD3998346EE
:1057200004980BF062FD011C58460BF047FD011C6C
:1057300050460BF043FD011C28680BF03CFD28602F
:10574000FE99301C0BF051FDF7998246381C0BF086
:105750004CFD011C50460BF031FDF0998246069835
:105760000BF043FDE999834648460BF03EFD011CD2
:1057700058460BF023FD011C50460BF01FFDE2992B
:10578000824605980BF031FDDB998346201C0BF017
:105790002CFD011C58460BF011FDD499834604984A
:1057A0000BF023FD011C58460BF008FD011C504670
:1057B0000BF004FD011C68680BF0FDFCFF996860AC
:1057C000301C0BF012FDF8998246381C0BF00DFDD1
:1057D000011C50460BF0F2FCF199824606980BF042
:1057E00004FDEA99834648460BF0FFFC011C58462D
:1057F0000BF0E4FC011C50460BF0E0FCE399824600
:1058000005980BF0F2FCDC998346201C0BF0EDFCB4
:10581000011C58460BF0D2FCD599834604980BF036
:10582000E4FC011C58460BF0C9FC011C50460BF06F
:10583000C5FC011CA8680BF0BEFCFFAB5968A86052
:10584000301C04330BF0D1FCF9998246381C0BF064
:10585000CCFC011C50460BF0B1FCF2998246069834
:105860000BF0C3FCEB99834648460BF0BEFC011CD1
:1058700058460BF0A3FC011C50460BF09FFCE4992A
:10588000824605980BF0B1FCDD998346201C0BF095
:10589000ACFC011C58460BF091FCD6998346049849
:1058A0000BF0A3FC011C58460BF088FC011C504671
:1058B0000BF084FC011CE8680BF07DFCFFAB9968E1
:1058C000E860301C08330BF090FCFA998246381CD3
:1058D0000BF08BFC011C50460BF070FCF3998246D8
:1058E00006980BF082FCEC99834648460BF07DFC51
:1058F000011C58460BF062FC011C50460BF05EFC8C
:10590000E599824605980BF070FCDE998346201CD1
:105910000BF06BFC011C58460BF050FCD7998346EA
:1059200004980BF062FC011C58460BF047FC011C6C
:1059300050460BF043FC011C28690BF03CFCFFAB0C
:10594000D9682861301C0C330BF04FFCFB99824660
:10595000381C0BF04AFC011C50460BF02FFCF4994C
:10596000824606980BF041FCED99834648460BF0C1
:105970003CFC011C58460BF021FC011C50460BF06E
:105980001DFCE699824605980BF02FFCDF998346B3
:10599000201C0BF02AFC011C58460BF00FFCD89978
:1059A000834604980BF021FC011C58460BF006FCC2
:1059B000011C50460BF002FC011C68690BF0FBFB5C
:1059C000EE99686148460BF010FCF59981460698FF
:1059D0000BF00BFC011C48460BF0F0FBFC998146D8
:1059E000381C0BF002FCFFAB1969071C301C10338C
:1059F0000BF0FBFB011C381C0BF0E0FB011C4846C4
:105A00000BF0DCFBE099061C201C0BF0EEFBE79989
:105A1000041C05980BF0E9FB011C201C0BF0CEFBCD
:105A2000D999041C04980BF0E0FB011C201C0BF01E
:105A3000C5FB011C301C0BF0C1FB011CA8690BF05D
:105A4000BAFB1C239C46089BE044A8611C35984582
:105A500000D027E6079BA29A99461A60A39A5A603B
:105A6000A49A9A60A59ADA60A69A1A61A79A5A61CE
:105A7000A89A9A61A99ADA61AA9A1A62AB9A5A62AA
:105A8000AC9A9A62AD9ADA62AE9A1A63AF9A5A6386
:105A9000B09A9A63B19ADA63B29A1A64B39A5A6462
:105AA000B49A9A64B59ADA64B69A1A65B79A5A653E
:105AB000B89A9A65B99ADA65BA9A1A66BB9A5A661A
:105AC000BC9A9A66BD9ADA66BE9A1A67BF9A5A67F6
:105AD000C09A9A67C19ADA674A468023C299D15020
