:020000041000EA
:1000000000B5324B212058609868022188439860DF
:10001000D860186158612E4B002199600221596106
:100020000121F02299502B49196001219960352056
:1000300000F044F80222904214D00621196600F024
:1000400034F8196E01211966002018661A6600F04E
:100050002CF8196E196E196E052000F02FF8012189
:100060000842F9D1002199601B49196000215960AB
:100070001A491B48016001219960EB211966A021F2
:10008000196600F012F800219960164914480160C1
:100090000121996001BC002800D000471248134993
:1000A000086003C880F30888084703B5996A0420EC
:1000B0000142FBD001200142F8D103BD02B5186610
:1000C0001866FFF7F2FF186E186E02BD00000240BE
:1000D000000000180000070000035F00212200005C
:1000E000F4000018222000A00001001008ED00E03C
:1000F00000000000000000000000000074B24E7A12
:1001000000200420F7010010C3010010C5010010F9
:10011000C1010010C1010010C1010010C101001097
:10012000C1010010C1010010C1010010C701001081
:10013000C1010010C1010010C9010010CB01001065
:10014000CD010010CD010010CD010010CD01001037
:10015000CD010010CD010010CD010010CD01001027
:10016000CD010010CD010010CD010010CD01001017
:10017000CD010010CD010010CD010010CD01001007
:10018000CD010010CD010010CD010010CD010010F7
:10019000CD010010CD010010CD010010CD010010E7
:1001A000CD010010CD010010CD010010CD010010D7
:1001B000CD010010CD010010CD010010CD010010C7
:1001C00000BE00BE00BE00BE00BE00BE00F04BF888
:1001D000103800BEF2EB88719CEA0510BCEA0510ED
:1001E0003402001090A31AE700202149086006C8D5
:1001F00081F3088810471F48006800282FD10DA4FC
:100200000ECC002902D000F012F8F9E71A491B4A77
:10021000002000E001C19142FCD1194988471949E9
:1002200088471949884700BEFDE701C901C29A42C3
:10023000FBD37047BCEA0510C00000201422002048
:10024000100C06100000042000000420100C061002
:1002500000100420001004200000000070470B482C
:100260000DF070FE0047EFF30580C0B2704700004C
:1002700008ED00E0000000D020220020104F0320F5
:1002800001C300100D03001029C4001057560000D0
:1002900006005250ABB36053682B05100600525055
:1002A000861C0302782B0510060052505422A29D92
:1002B000842B051005005250DE65F468100C061002
:1002C000F8B5C04610B5064C2378002B07D1054B76
:1002D000002B02D0044800E000BF0123237010BDB2
:1002E000282700200000000048260510044B10B508
:1002F000002B03D00349044800E000BF10BDC046F6
:10030000000000002C2700204826051070B5192099
:100310000AF084FDD02380221B0692045A622548ED
:100320000FF054FD0FF0A2FE23480FF04FFD00F038
:1003300063F822480FF04AFD07F05AF920480FF001
:1003400045FD08F00BFF1F480FF040FD07F0E0FBF4
:100350001D480FF03BFD0AF01DF9002205241B4B40
:100360001A7006F065FC1A480FF030FD194D013C7B
:10037000210028000FF06EFEFA2080000BF0BCFB7D
:10038000002CF4D10A200FF0D1FC012200211248E8
:100390000BF020F8114812F081FB0122104B114C98
:1003A0001A702378012BFCD109F094F82378012BE3
:1003B000FAD0F6E7482605105826051064260510E1
:1003C000702605108026051090260510F84E032093
:1003D000A0260510AC260510CC4D0320199700105F
:1003E000F74E0320FC4E032010B5024812F07EFEAB
:1003F00010BDC046382D0320092370B586B0059383
:1004000004330493023B0393013B0293023B324DBE
:10041000324C0193324B22003249334800932B0077
:1004200006F0C4F8142006F0BDF8FA2080000BF0A6
:1004300063FB2E4E21003200280006F0CFFA3378FD
:10044000682B08D02A4C20000FF0C0FCFA20800056
:100450000BF052FBF7E773783D2BF3D1012221001B
:10046000280006F0DFFA234E32002100280006F0B3
:1004700013FB3378002BF7D101222100280006F06E
:100480008FF90121200006F06DF90321200006F00C
:10049000FFF80321280006F029FA1321200006F0B6
:1004A00069FB1221200006F0A3FB0021200006F0CA
:1004B00081FB0321200006F00BFB0221200006F047
:1004C00023FB5521200006F001F91821280006F031
:1004D000A7F906B070BDC046E414032058280020D8
:1004E00040420F00D4150020CC150020AC4E032054
:1004F000C02605100E4F0320F0B5C646334C344DD0
:10050000344E22002900300000B506F079FA6378F5
:10051000DB439B0720D023781B0702D480BCB8465E
:10052000F0BD2D4C0622002120000FF0CDFA210055
:10053000300006F035FA0023E05E06F09FF8274D04
:1005400028600223E05E06F099F868600423E05E0C
:1005500006F094F8A860E1E7214B062298461800BF
:1005600000210FF0B1FA1F4F0622002138000FF0D2
:10057000ABFA4146280006F0F5F93900280006F0EC
:10058000D3F943460020185E06F064F84346164D42
:1005900028600220185E06F05DF84346686004207B
:1005A000185E06F057F8A8600023F85E06F05CF8C5
:1005B0000E4D28600223F85E06F056F868600423AA
:1005C000F85E06F051F8A860A5E7C046E0430320B6
:1005D00058280020E4140320A8330320EC3803201B
:1005E00098330320A03303203032032050320320FD
:1005F000F0B55746DE464E464546E0B58BB008910D
:100600009246190005900993DA1703238C4613408C
:1006100063449B109B009846002B00DC90E0524600
:10062000159B00249B000193149B9B1A159A9B1AFF
:10063000089A9B000293536812681901944604912A
:10064000069251469A00039252468D000021013ACB
:1006500092000792002289465900DE00CB189B00C9
:100660009B461300424665440092019A94469C447E
:10067000039B1A199F195346002B1EDD069B0598F4
:1006800019196346804600989B00434480460094B5
:10069000086818600098081A845804315C6084590E
:1006A0009C60C059D86010338D42F1D14346079900
:1006B000009363468C4604339C440421029B5A44B5
:1006C00063448C461400049A3E00E1449446009A28
:1006D0005E4465444A45C8DC1A00009B9846099B65
:1006E000434526DD1499159C089B0D1B514609CBEB
:1006F0006D1A00291DDD41469E004B439B00C0182A
:1007000053469C00059B47469C46099BAB46984632
:10071000159B994600234A4491006144C558CD5029
:1007200004339C42FAD1524401375A448019B845E7
:10073000F0D10BB0F0BCBB46B246A946A046F0BD16
:100740000022CCE7F0B54746CE4680B51F00002B0F
:100750001DDD002A1BDD9300C0180B68002498469D
:100760004B689100D200494252428C4691469B0010
:10077000614645182900A20042441668D21840C1BB
:100780008142FAD14A460134A81AA742F0D1C0BC2E
:10079000B946B046F0BDC046F0B5DE464E465746B7
:1007A00045460023E0B5136083688BB004930523AE
:1007B0009B4600235E46099202680293013B079024
:1007C0000691039208930523049C9B1B5C43984667
:1007D000029BA4009C46039B64449C46644423689B
:1007E0005D0063686D085F007F08291C381C0EF0EF
:1007F00007FF002800D1CCE03D1C0127731C9A465E
:10080000022B37D9A368291C5B005B08181C99468A
:100810000EF0F6FE002801D04D4602275346032B6A
:1008200028D0E368291C5B005B08181C99460EF071
:10083000E7FE002801D04D4603275346042B19D06C
:100840002369281C5B005B08191C99460EF0CAFE40
:10085000002801D04D4604275346062B0AD164696F
:10086000281C64006408211C0EF0BCFE002801D086
:100870000527251C069B029A474400219F50281CEF
:100880000EF0A8FE002800D185E0089B013300D1BE
:10089000FEE0062347469B1B9C46079A05939268F9
:1008A000574367440492BF000599049B0C009A00CB
:1008B0005C43029B00929C46039BA5001A00654482
:1008C0008C4691469B46924690463B1D6444A4004C
:1008D000994404335D445C449A44BB440433103768
:1008E000944698443B000027634401935B46296883
:1008F00018680EF040FE011C20680EF022FE2060F9
:10090000012E2DD94B46286819680EF034FE011CC3
:1009100060680EF016FE6060022E21D053462868F3
:1009200019680EF028FE011CA0680EF00AFEA060F7
:10093000032E15D04346286819680EF01CFE011CD2
:10094000E0680EF0FEFDE060052E09D1019B2968EC
:1009500018680EF010FE011C20690EF0F2FD2061F7
:10096000009B01379C4665446444BE42BED1029B55
:10097000013E04330293059B052B00D023E71A00A8
:10098000069B5A610BB0F0BCBB46B246A946A046D6
:10099000F0BD002732E7474530D0039902988C46D6
:1009A000BF0067448446079A3C6892680B589200DF
:1009B0000C5061443B608918BB1808681C680C60C7
:1009C000186089189B1808681C680C6018608918E2
:1009D0009B1808681C680C60186089189B180868C8
:1009E0001C680C60186089189B1818680A680860F1
:1009F0001A60099A13680093013313604746079BF6
:100A0000039A9B685F4304930623991B43468C46D5
:100A1000FB189B0067449C58BF00D51928680591B6
:100A2000211C0EF094FD2860012E00D83CE7039BAA
:100A30003D1D9C4665442868211C0EF088FD2860F9
:100A4000022E00D130E7039B3D009C4608356544EB
:100A50002868211C0EF07BFD2860032E00D123E7BF
:100A6000039B3D009C460C3565442868211C0EF014
:100A70006EFD2860042E00D116E7039A3D009446CF
:100A8000103565442868211C0EF061FD28600BE7D5
:100A9000062347469B1B9C4605934346079A0893AB
:100AA0009268574367440492BF00FDE6F0B557468D
:100AB000DE464E464546E0B599B01493249B8246E7
:100AC000259C26985D1C00D1229B651C00D1229C90
:100AD000239DEE1703253540239EB4466544AD1093
:100AE000AF000725229E0E97AE4335000096149E58
:100AF000002E00DC88E29B00169323011093030173
:100B0000D31817936B1EDB0801330391D9015B01E6
:100B10000F93A3007C4320188000119313181593A2
:100B20000023D346139108930E9B002B00DCC2E1F7
:100B30000F9A039B944663441293179BD8460193E4
:100B4000002302930298434601000CCB089C5943B2
:100B5000A4466144890051180991411C59436144DC
:100B6000890051180A91811C594361448900511828
:100B70000B91C11C4B4363449B00D318019E0C9303
:100B8000009B3400002B00DC45E2039B00259946C6
:100B900000234C46AA46AB46A946069504952F1C51
:100BA000059507950D9325683168281C0EF0E3FC28
:100BB00059460EF0C9FC71688346281C0EF0DBFC18
:100BC00051460EF0C1FCB1688246281C0EF0D3FCE1
:100BD00007990EF0B9FCF1680790281C0EF0CBFCC9
:100BE00005990EF0B1FC059065683169281C0EF07E
:100BF000C2FC391C0EF0A8FC7169071C281C0EF001
:100C0000BAFC04990EF0A0FCB1690490281C0EF007
:100C1000B2FC06990EF098FCF1690690281C0EF0C3
:100C2000AAFC49460EF090FC8146A568316A281C52
:100C30000EF0A1FC59460EF087FC716A8346281C11
:100C40000EF099FC51460EF07FFCB16A8246281CDA
:100C50000EF091FC07990EF077FCF16A0790281CC2
:100C60000EF089FC05990EF06FFC0590E568316B7C
:100C7000281C0EF080FC391C0EF066FC716B071C02
:100C8000281C0EF078FC04990EF05EFCB16B049009
:100C9000281C0EF070FC06990EF056FCF16B0690C5
:100CA000281C0EF068FC49460EF04EFC8146256972
:100CB000316C281C0EF05FFC59460EF045FC716C3F
:100CC0008346281C0EF057FC51460EF03DFCB16CDB
:100CD0008246281C0EF04FFC07990EF035FCF16C93
:100CE0000790281C0EF047FC05990EF02DFC05908E
:100CF0006569316D281C0EF03EFC391C0EF024FC99
:100D0000716D071C281C0EF036FC04990EF01CFCBB
:100D1000B16D0490281C0EF02EFC06990EF014FC08
:100D2000F16D0690281C0EF026FC49460EF00CFCD6
:100D30008146A569316E281C0EF01DFC59460EF047
:100D400003FC716E8346281C0EF015FC51460EF014
:100D5000FBFBB16E8246281C0EF00DFC07990EF0CD
:100D6000F3FBF16E0790281C0EF005FC05990EF0C0
:100D7000EBFB0590E569316F281C0EF0FCFB391C7C
:100D80000EF0E2FB716F071C281C0EF0F4FB0499B7
:100D90000EF0DAFBB16F0490281C0EF0ECFB069904
:100DA0000EF0D2FBF16F0690281C0EF0E4FB4946D2
:100DB0000EF0CAFB8146803620340D9B009A083322
:100DC0000D939A4200DDEEE6139B019C9C46051CA8
:100DD0005946381C64440EF0B7FB5146071C049872
:100DE0000EF0B2FB0799061C06980EF0ADFB0599B4
:100DF0008146281C0EF0A8FB129B051C9A46229ADD
:100E0000009B9A4230DDAB460493534620CB2168C9
:100E1000281C9A460EF0AFFB011C381C0EF094FB08
:100E20006168071C281C0EF0A6FB011C301C0EF08C
:100E30008BFBA168061C281C0EF09DFB011C48467C
:100E40000EF082FBE1688146281C0EF094FB011C29
:100E500058460EF079FB8346049B229A01331034E6
:100E600004939A42D1D1051C311C0A9E30680EF0C1
:100E700068FB391C099F041C38680EF062FB291CB2
:100E80000C9D3860346028680EF05BFB0B9E494671
:100E9000041C30680EF055FB1099019A8C46029B99
:100EA000624401920E9A0433306002932C609A429D
:100EB00000DD47E6C3460F9A039B944663440E9AAF
:100EC0000293239B9246159D934200DC90E05B4683
:100ED0005C6853465C43089B2F009C465B461B683E
:100EE00064449C46009BA4006444002B00DC99E011
:100EF0000023039F99463B00A04600262F001C00BC
:100F0000396820680EF037FB311C0EF01DFB061C03
:100F1000796860680EF02FFB311C0EF015FB061C83
:100F2000B968A0680EF027FB311C0EF00DFB061C03
:100F3000F968E0680EF01FFB311C0EF005FB061C83
:100F4000396920690EF017FB311C0EF0FDFA061C02
:100F5000796960690EF00FFB311C0EF0F5FA061C82
:100F6000B969A0690EF007FB311C0EF0EDFA061C02
:100F7000F969E0690EF0FFFA311C0EF0E5FA061C83
:100F80002037203408239C46009BE1444B45B7DCC6
:100F900044460F9BEF18029B0193229A009B9A42B2
:100FA00017DD99460023984643464246F958019B6F
:100FB00098580EF0E0FA011C301C0EF0C5FA061C21
:100FC00001239C460333E1449C46229BE0444B456D
:100FD000EAD12068311C0EF0B4FA01239C46119B23
:100FE000E2449C46239B20606544534500D06EE755
:100FF0001699039A8C46089B62440392149A013313
:1010000008939A4200D08FE519B0F0BCBB46B246B7
:10101000A946A046F0BD0025039BA9469A462E1C72
:101020002F1CECE6039B00260193B6E7F0B557466C
:10103000DE464E4645469C24E0B5BDB006AF3C19A1
:10104000FB63842320609824BA6694225B003C19D9
:10105000FB1821601C68BA182369FB67A36813603A
:10106000834202DD9423FB18186094239821FB1817
:101070007918FA6F1B680D68534355432268002A9C
:1010800000D1DBE29B007B668C23FB181A60902268
:101090000023BA1813606368AA003A66002B00D1D7
:1010A000ECE28822BB670023BA181360C84D2B7886
:1010B000BFF35B8FDB0700D4FDE2C64CA422042300
:1010C000BA1813609433FB181B686068002B18DD96
:1010D0009C237A1DFB18FF321B681268190093428B
:1010E00000DAFFE209010CF087FF0323C217134067
:1010F000A4221B189B109B00BA181360042B00DA63
:10110000EBE29C23FB181C68002C00DC72E2FB6BFA
:10111000FD6F18006A425043F86118008021661B79
:101120007043F866180001335A4392007918BA6187
:10113000621E0E601100594389008846B96E1B017A
:101140008C46E04441467964A90049423961A100D6
:101150007C1CFF3424685B42A446A42461443964A7
:10116000791DFF313C1909682468FB606143B9624D
:10117000B02183005B4279180B600300921B50433F
:10118000DB43AC229B00BA181360C4227B1DFF33E3
:101190001B68BA189B0078611360A022FB6FBA1815
:1011A00013609C22BA181268934202DDA023FB1838
:1011B0001A609823FB181B68002B00DC9FE1A0231A
:1011C000FB181A68002A00DC99E19823FB181B68B9
:1011D000396C3B65A423FB181B6853439B00FB62DF
:1011E000BB6FFB649300CB1A79697B628C46FB6E04
:1011F000B82163447B63002379180B60D021BB6462
:101200003B679C33FB181B6879189B1ABB60130063
:1012100079600321013B043A8B43D31A3B63A42238
:10122000BA183B6D1268FB65934200DDFA65B8227F
:10123000BA181268FB6D9446C8226344BA1813604A
:101240009C237A6AFB1894461B6884227B673B6F59
:10125000BA189B0063443B627B6B7B657B6CBB6510
:10126000A023FB181B6813608423B422FB181B689F
:10127000BA181360042B03DDB4220423BA181360D8
:101280008423FB181B68002B00DCA5E0B422C820D7
:10129000B824BA187B6F116838183C1900682468A4
:1012A0005A1ABA63A04200DC9CE094464E1EB96E06
:1012B0009B008A46043B9B467B6D791C63449B00E4
:1012C000FF3109689A44BB6C63448C46A8219B009B
:1012D000634479180B609300C0225B42BA18136014
:1012E000BC22BB6DBA181360BC23FE20FB181B6820
:1012F000800519680EF02BF9CC23FB181860A82381
:10130000FB181C68B823FB181B68B1461E00C023DD
:10131000FB181B685A469846A04443469958CC236C
:10132000FB1818680EF027F943465A4698504B466A
:10133000051C002B22DD534619680EF01CF9011C18
:1013400020680EF0FEF84B462060012B16D0534665
:10135000281C59680EF00FF9011C60680EF0F1F8B6
:101360004B466060022B09D05346281C99680EF04A
:1013700002F9011CA0680EF0E4F8A060C423FB1879
:101380001B6801369C46C823FB181B6864449E42B8
:10139000BDD1AC22BC23BA181268FB189446BC22FB
:1013A0001B68BA18634413600423B0225B429C4656
:1013B000BA181268E3449446B4224E46BA1812682A
:1013C000731EE244961BB2420CDD1E008CE7C04641
:1013D000881703204C2D0320B422BA187B6F1268A3
:1013E0009B1ABB638423B422BD6BBA18AC46FB18AE
:1013F00010681B687A1CFF3212681C1A3B6F7968F0
:10140000634494469B0063440B607B1DFF331B6861
:1014100080464B60A0230194FB181E6802000096D2
:10142000FB6DF86C9B4689468246FFF7E1F8002C7D
:101430002ADD2B00BA6849469446FD6BBA6E6B43B1
:101440008C20634494464D604D469B0038180068DC
:1014500063440B60424623008146FFF773F929007D
:101460007B1DFF333D6A1B680D604B600D005B46C2
:1014700003964646019352462300494628000494A9
:1014800002960096FFF712FB84238422F968FB186A
:101490008C46B0211B68BA18043B13607A6F791828
:1014A000043A09687A67BA6D62448C46BA657A6D07
:1014B00062447A653A6B934200D0D5E6A422B82301
:1014C000BA181268B8219446FB181B68791863444F
:1014D0000B60396D8A1AF96A3A658C46FA6CB96AFA
:1014E00062448C46FA643A6F62443A67BA6C62446A
:1014F000BA649822BA1812689A4200DD8FE68023F7
:101500009C22FB181B68BA181360002B72DD942311
:10151000FB181B68002B00DCFEE78023BA6EFB186B
:1015200092461D68FB6E00249B009A44D023FE184F
:1015300000239B46013B99469423FB181B68A84651
:101540009D4200DD9846CC22A300BA181360FA6BC6
:101550008C207260A0225344BA18381831001268E7
:10156000006833604346FFF7EDF87A1CCC23FF3266
:101570001268FB1894461B688C21634433607B1D02
:10158000FF331B68791873605B4604934B460393E3
:1015900002939823FB181B6830000193A023FB18CB
:1015A0001B680093BA6F43460968FFF77FFA9423DC
:1015B000FB181B689C46ED1A8023FB181B686444CB
:1015C000A342B9DCFA69FB6E9446BA696344944657
:1015D000FB663A697B6C634494467B643B6CFA6FB0
:1015E00063443B648023FB181B689B1A8022BA1853
:1015F0001360D2E580233A6E9B029A4208D9882371
:10160000FB181B68002B03D0043B18680EF044FA4B
:1016100080237A6E9B029A4208D99023FB181B689C
:10162000002B03D0043B18680EF036FABD4637B0E5
:10163000F0BCBB46B246A946A046F0BD9A00802346
:101640007A669B029A424FD813006A461633DB082B
:10165000DB00D31A9D4627200F236844984381332B
:10166000FB18186090238C22FB181B68BA181360B3
:101670006368AA003A66002B00D012E580239B0223
:101680009A424FD813006A461633DB08DB00D31AA0
:101690009D4627200F23684498437933FB18186030
:1016A0008823FB181B682D4DBB672B78BFF35B8F1E
:1016B000DB0700D501E5280011F016FA284C0028B8
:1016C00000D1FBE48023DB01236080231B0328007F
:1016D0006360A36011F024FAF0E4A4220423BA1892
:1016E00013600EE51100FDE4100010300EF096F9C5
:1016F0009023FB18021E1860B4D00F2301009943F9
:101700000B0010218C468C209C446146DA602368D3
:101710003818016058425841902340420140FB185C
:101720001960B8E4100010300EF078F98823FB1827
:1017300018600028B4D00F23010099430B0010213A
:101740008C46D86060689C44434258416146882377
:101750004042B967FB1801401960A7E488170320CD
:101760004C2D0320F0B55746DE464E464546E0B5C3
:10177000B3B006AF8C24BB62E023FA6288223C1926
:10178000FB1821601C68BA182369786513608422ED
:10179000A368BA181360834202DD8423FB18186023
:1017A000842388228C21FB18BA18791812681B68C8
:1017B0000D68534355432268002A00D150E29B0034
:1017C000FA6780223B650023BA1813606368AA0099
:1017D000FA64002B00D161E2FB660023BB67E74D92
:1017E0002B78BFF35B8FDB0700D470E2E44C9022D0
:1017F0000423BA1813608833FB181B686068002B39
:1018000016DDDC22BA187B6D12681900934200DAEB
:1018100074E209010CF0F0FB0323C217134090227D
:101820001B189B109B00BA181360042B00DA60E2AF
:101830007B6D002B00DCF1E18822B96ABA18080040
:101840001268BB6350439B1AB86098207B634B1CA3
:1018500099001B01FB61DC234A43381801607A6060
:101860009020DC22FB181B68BA189B009B46FB6A81
:1018700038183B63002312680068BB6542437A61F5
:101880000A1F3A627B679422BB6BBA1813608822E6
:10189000BA181268934202DD9423FB181A608C2355
:1018A000FB181B68002B00DC45E19423FB181A6829
:1018B000002A00DC3FE18C239021FB181B6879187B
:1018C000BB6413000968DA464B43D82179180968CC
:1018D0009B008C463B61FB6E9C21FB657B6F7918FE
:1018E0009B006344FB6000230B60A8213B667918D2
:1018F000130039600321013B043A8B43D31ABB61C7
:101900009022BA18BB6C1268BB66934200DDBA66BF
:101910009C22BA181268BB6E9446FA6863449446D7
:101920009B463B6E9B006344FB633B6B3B647B6F5E
:101930007B66BB6D7B649423FB181B683B67942319
:10194000FB181A683B6FD21A7A62A022BA18136089
:10195000042B03DDA0220423BA1813603B6F002B75
:1019600058DD9C23FB181B689B4553DDA023A42254
:10197000FB181B68BA18013B9946FB6B13603B6C64
:1019800098464B46002B2EDDA423FB181C689C2395
:10199000FB181E68434625685968281C0DF0EBFDAE
:1019A000011C60680DF0CDFD4B466060012B16D028
:1019B0004346281C99680DF0DEFD011CA0680DF05F
:1019C000C0FD4B46A060022B09D04346281CD968B5
:1019D0000DF0D1FD011CE0680DF0B3FDE0600136B3
:1019E00054445E45D6D14B465A1E9823FB181B68BB
:1019F000A4219C46A423FB181B68791804330B60B0
:101A0000A023FB1819684B46E044CB1A994201DD2C
:101A10009146B6E7A022BA181468D8223B6F796EB7
:101A20003E6E8C461D1B3300BA1810686344844612
:101A300039689B0063440B60DC23FB181B682200A1
:101A40004B607B6A884601939423FB1818680090CA
:101A5000BB6EF86DFEF7CCFD002D36DD7B6E41468A
:101A60009C46786C220064440319F86A9B00844603
:101A7000B86A63444860A02038180260F86F0B60B1
:101A80002B00C1468046FEF75DFED822BA183319F6
:101A900014689B00A4464C4663442360DC23FB1877
:101AA00019687B6A616004939423FB181E68A02365
:101AB0000396FB181A6841460292BB6E009201938E
:101AC00048462B00FA6DFEF7F1FF396A7A6C8C46B6
:101AD000F96962448C467A647A6E3B6F04327A66A6
:101AE0003A6C043B62443A64FA6B3B671032FA6327
:101AF000BA69934200D022E790229C23BA18126858
:101B00009C219446FB181B68791863440B60B96CE0
:101B10008A1A7969BA648C463A6E396962448C468D
:101B20003A66FA6D6244FA658C22BA1812689A42D3
:101B300000DDE5E6D3468822BA1812687B6F94462A
:101B40007A6D63447B67934268DA8423FB181B68D1
:101B5000002B17DC8823B968FB188C46BA6B1B680E
:101B6000D21ABA63BA6D6244BA657A6BD31A7A68CC
:101B70007B6394463B6B63443B6384E68817032096
:101B80004C2D0320FA6ABB6D92469B009A44A82311
:101B9000FE18A93B99467D6B7C6F8423FB181B685C
:101BA000A8469D4200DD9846A422A300BA181360FF
:101BB000BA6A534472609422BA1831001268F86FFE
:101BC00033604346FEF7BEFDD822A423BA1812683C
:101BD000FB1894461B68300063443360DC23FB1819
:101BE0001B687360002304934B46039302938C237A
:101BF000FB181B6801939423FB181B680093FA6E73
:101C00004346F96FFEF752FF8423FB181B689C467E
:101C1000ED1A7B6D6444A342BFDC9BE78023FA6C22
:101C20009B029A4206D9BB6F002B03D0043B186875
:101C30000DF032FF80233A6D9B029A4208D980232F
:101C4000FB181B68002B03D0043B18680DF024FF21
:101C5000BD462DB0F0BCBB46B246A946A046F0BD7D
:101C60009A0080233A659B029A4249D813006A463B
:101C70001633DB08DB00D31A9D4627200F23684468
:101C800098437133FB1818608023FB181B68AA0067
:101C9000FB676368FA64002B00D09DE580239B02FC
:101CA0009A4249D813006A461633DB08DB00D31A80
:101CB0009D4627200F2368449843B867BB6F2A4D81
:101CC000FB662B78BFF35B8FDB0700D58EE5280022
:101CD00010F00AFF254C002800D188E58023DB01A5
:101CE000236080231B0328006360A36010F018FFAB
:101CF0007DE590220423BA18136099E5110088E568
:101D0000100010300DF08AFE8023FB1818600028A8
:101D1000BAD00F23010099430B0010218C46D860E4
:101D20009C44236861465842584180234042F967E9
:101D3000FB180140196049E5100010300DF06EFEEF
:101D4000B8670028BAD00F23010099430B00102177
:101D50008C46D86060689C4443425841614640428A
:101D6000F9660140B9673AE5881703204C2D032036
:101D700030B587B00D4B02AD00951A6869460292E6
:101D80009A880400AA809B796A46AB710723019365
:101D90000023D3732DF03AFE0098A84203D0029995
:101DA00001310DF0ADFE200007B030BDD426051086
:101DB000F0B5DE4657464E464546E0B5674B83B024
:101DC00059689A460DF0BDFB654B051C1860654BC4
:101DD0001B689B46644B59461C680DF0B5FB211CE3
:101DE0000DF0C9FB614B061C1868011C0DF0ACFB23
:101DF000011C301C0DF0ABFB5D4E31680DF0A4FBF7
:101E00005C4B009030601868011C0DF09DFB5A4B34
:101E1000061C1A68111C91460DF0ADFB8046011C92
:101E2000201C0DF091FB211C071C40460DF089FB86
:101E3000524A116890460DF09EFB391C0DF087FB4D
:101E40004946019048460DF07FFB59468146281CC3
:101E50000DF077FB011C48460DF08DFB391C0DF091
:101E600076FB011C01980DF06FFB42460099106053
:101E7000071C281C0DF068FB391C0DF065FB404B5E
:101E800019680DF078FB3F4B18603F4B18605346C4
:101E900019680DF056FB3D4B051C18603C4B1B6848
:101EA000191C9A460DF050FB211C0DF064FB394BB8
:101EB00080461868011C0DF047FB011C40460DF0E0
:101EC00046FB354B994619680DF03EFB4B461860B2
:101ED000324B80461B68301C191C99460DF04BFB99
:101EE0008346011C201C0DF02FFB4946061C48466A
:101EF0000DF02AFB51468146281C0DF022FB011CE7
:101F000048460DF038FB311C0DF021FB211C8146A9
:101F100058460DF016FB391C0DF02DFB311C0DF051
:101F200016FB011C48460DF00FFB1D4B4146186087
:101F3000041C281C0DF008FB211C0DF005FB194B9F
:101F400019680DF018FB184B1860184B186003B097
:101F5000F0BCBB46B246A946A046F0BDBC42032039
:101F60004034032080380320FC150020E0150020B9
:101F700074380320F0150020742800202434032036
:101F8000E8150020344E0320244E0320443403205F
:101F900084380320E41500207838032078280020B6
:101FA00028340320EC150020384E0320644E032013
:101FB000F0B5DE4657464E464546E0B50E00016890
:101FC000C7688946416805698A4681688DB08B4635
:101FD000416980690793069050681368926805917B
:101FE0000A90291C30680B92099308950DF0A9FA04
:101FF0000599039070680DF0A4FA0699051CB06865
:102000000DF09FFA80268046360607980DF04CFBAF
:10201000B446039B009001916344180051460DF0B3
:10202000AAFA5946061C281C0DF0A5FA011C301C02
:102030000DF087FA391C061C404604970DF09BFAF8
:10204000011C301C0DF07DFA0DF02EFB0022684BB8
:102050000CF051FA009A019B0CF04DFA060048462C
:102060000F000DF021FB02000B0030003900169C20
:102070000CF01AFA0CF044FB4946206003980DF06E
:102080007AFA5946061C40460DF075FA011C301CC0
:102090000DF05AFA0499061C281C0DF06CFA011C6C
:1020A000301C0DF04EFA0DF0FFFA0022504B0CF0F0
:1020B00022FA009A019B0CF01EFA060050460F000F
:1020C0000DF0F2FA02000B00300039000CF0ECF9D0
:1020D0000CF016FB49466060281C0DF04CFA514686
:1020E000061C40460DF047FA011C301C0DF029FA81
:1020F0000499061C03980DF03EFA011C301C0DF0EB
:1021000023FA0DF0D1FA0022394B0CF0F4F9009AC1
:10211000019B0CF0F0F9060058460F000DF0C4FAD0
:1021200002000B00300039000CF0BEF90CF0E8FAA8
:102130004946A06040460DF01EFA5146061C281C78
:102140000DF019FA011C301C0DF0FEF95946051C62
:1021500003980DF010FA011C281C0DF0F2F90DF097
:10216000A3FA0022224B0CF0C6F9009A019B0CF056
:10217000C2F9060004980F000DF096FA02000B0059
:10218000300039000CF090F90CF0BAFA089B09996C
:10219000E060181C98460DF0EEF9079D291C0DF023
:1021A000EAF9011C40460DF0CCF9059F0A9920611F
:1021B000381C0DF0E0F9291C0DF0DDF9011C381C6C
:1021C0000DF0BFF9069E0B996061301C0DF0D3F93C
:1021D000291C0DF0D0F9011C301C0DF0B2F9A061E2
:1021E00000200DB0F0BCBB46B246A946A046F0BDEB
:1021F0000000E03FF0B5DE4657464E4645468A466B
:102200004168E0B58846C768816891B0066889462C
:102210004046391C141C04930DF0ADF94946051CC9
:10222000301C0DF0A8F90A90011C281C09950DF02E
:1022300088F90DF039FA02000B000CF035F9069020
:102240000791201C02940DF02FFA0B0002000400ED
:102250000D00069807990CF04EF90CF051FA524611
:10226000391C106048460DF086F983464146301C03
:102270000DF081F95A460E90011C58460B920DF054
:1022800063F90DF011FA02000B000CF00DF90200D9
:102290000B00200029000C920D930CF02CF90CF08F
:1022A0002FFA5446311C6060301C0DF064F9414631
:1022B000041C40460DF05FF9051C011C201C0DF0AC
:1022C00040F94946089048460DF055F9391C8346B7
:1022D000381C0DF050F95946019008980DF031F96D
:1022E00001990DF031F902990F900DF044F9534620
:1022F0004946986040460DF03EF9391C8046301C36
:102300000DF039F981461A980DF0CEF906001B98A8
:102310000F000DF0C9F902900391291C201C0DF04B
:1023200013F959460DF00DF901990DF00AF90499C8
:102330000DF021F90DF0B8F904000D0040464946B2
:102340000DF002F90DF0B0F902000B000CF0ACF842
:1023500032003B000CF0CFF802000B0020002900F7
:102360000CF0A2F8029A039B04000D00069807994E
:102370000CF0C1F802000B00200029000CF094F8CA
:102380000CF0BEF95346D86004980DF08DF90400A6
:102390000D00404649460DF0D4F80DF085F90200D5
:1023A0000B000CF081F822002B00049405950CF032
:1023B000A2F804000D00089859460DF0C5F80199DF
:1023C0000DF0BFF81A990DF0D6F80DF06DF9020076
:1023D0000B00200029000CF067F8029A039B040010
:1023E0000D000C980D990CF086F802000B002000EF
:1023F00029000CF059F80CF083F953460A9918613A
:1024000009980DF0A1F80DF04FF902000B000CF047
:102410004BF8049A059B0CF06EF804000D000B9825
:102420000E990DF08EF80DF03FF902000B000CF044
:102430003BF832003B000CF05EF802000B0020007D
:1024400029000CF031F804000D000F981B990DF0D5
:1024500092F80DF029F902000B00200029000CF081
:1024600023F80CF04DF953465861002011B0F0BC30
:10247000BB46B246A946A046F0BDC046F0B5040032
:10248000DE4657464E4645460800E0B545680968B1
:10249000AA46856895B0AB46C568466987691091BC
:1024A0000E950169556810689268049690461A68FE
:1024B000069711925A689B6812921393FE239B050C
:1024C000236099460DF03DF80DF0EEF80090019173
:1024D0001E980DF0E9F806000F00009801990022FF
:1024E000924B0CF008F832003B000CF004F80CF0B2
:1024F00007F904990390E061281C0DF022F80DF013
:10250000D3F80022894B049005910BF0F4FF3200C0
:102510003B000BF0F0FF0CF0F3F80699051CA063EC
:1025200040460DF00EF80DF0BFF800227F4B0690EC
:1025300007910BF0E0FF32003B000BF0DCFF0CF0EA
:10254000DFF80A90606550460DF0AEF80022784B37
:10255000089009910BF0CFFF32003B000BF0CBFF4E
:102560000CF0CEF80B90206758460DF09DF8002235
:102570006F4B0C900D910BF0BEFF32003B000BF047
:10258000BAFF0CF0BDF88C238246E0500E980DF097
:102590008BF80022664B0E900F910BF0ACFF3200CF
:1025A0003B000BF0A8FF0CF0ABF8A8238346E050EB
:1025B0000022009801995E4B0BF09DFF32003B001A
:1025C0000BF099FF0CF09CF8494600906060216286
:1025D000002206980799564B0BF08DFF32003B0006
:1025E0000BF089FF0CF08CF8A5658046E06310982D
:1025F0000DF05AF800224D4B0BF07DFF32003B00EE
:102600000BF079FF0CF07CF859469023051C6067AD
:102610000022E1500C980D99444B0BF06CFF3200F6
:102620003B000BF068FF0CF06BF8AC230022E0508D
:10263000049805993E4B0BF05EFF32003B000BF017
:102640005AFF0CF05DF849460A9A83466262009A86
:10265000A0602164E2650E980F990022334B0BF0C5
:102660004AFF32003B000BF046FF0CF049F8942380
:102670000B99A067E5501C33E1504146E160594693
:10268000A162494621665146039BE167636408984D
:1026900009990022254B0BF02EFF32003B000BF076
:1026A0002AFF0CF02DF89823E0501C33E55000254C
:1026B0001E9911982561E562A56465660CF05BFFC3
:1026C000011C48460CF03DFF8023E0501C33E550D0
:1026D0001C33E550343B1E99129865612563E5640F
:1026E000A566E5500CF047FF011C48460CF029FF99
:1026F000A023E0501C33E550343BA561656325659C
:10270000E566E5501C33E5501E9913980CF033FF35
:10271000011C48460CF015FFC023E050002015B006
:10272000F0BCBB46B246A946A046F0BD0000E0BFE3
:102730000000E03FF0B5DE4657464E464546E0B560
:102740009A460B68141C8A689B464B68C9688BB014
:102750000500101C8846009301920CF0A5FF029022
:102760000391201C0CF0A0FFC02306000F0002986C
:10277000039900221B060BF0BEFE32003B000BF05B
:10278000BAFE0BF0BDFF0890286040460CF08CFFAD
:1027900002000B000BF088FE32003B000BF0ABFE9A
:1027A0000BF0AEFF041CA86158460CF07DFFC0235F
:1027B00000221B06049005910BF09DFE32003B00A9
:1027C0000BF099FE0BF09CFF286300980CF06CFF57
:1027D00002000B00069007910BF066FE32003B00F2
:1027E0000BF089FE0BF08CFF002190238946A86432
:1027F0002966A967E95068600498059902000B00F2
:102800000BF052FE32003B000BF075FE0BF078FF30
:102810006C630490E8610298039902000B000BF0CE
:1028200043FE32003B000BF066FE0BF069FF4946A9
:102830009423E8646966E967E950C023069807991C
:10284000049A1B06AA6000220BF055FE32003B00E2
:102850000BF051FE0BF054FF089B4946AB638023FD
:1028600028622C65A966E9501833E950404614994E
:102870000CF081FE019F1599061C381C0CF07BFEA4
:102880005146041C58460CF076FE311C0CF05CFEE0
:10289000211C06940CF055FE011C0CF055FE51460F
:1028A0000990E86000980CF066FE1499041C381C2E
:1028B0000CF061FE011C201C0CF046FE1599041C56
:1028C00040460CF058FE011C201C0CF03DFE011C83
:1028D0000CF03AFE14990290686200980CF04BFEDE
:1028E0001599089058460CF046FE019A80249446AB
:1028F00024066444071C514620000CF03CFE089955
:102900000CF022FE391C0CF01CFE011C0CF01CFE0D
:102910001499E86358460CF02EFE1599049000981F
:102920000CF029FE802212064244041C514610007D
:102930000CF021FE04990CF007FE211C0CF004FEA3
:10294000011C0CF001FE4A468423EA666865EA50E1
:102950001833EA505146286101980CF00CFE089992
:102960000CF0EFFD391C0CF0EFFD011C0CF0ECFD40
:10297000071CA8628020029B00062B645146584425
:102980000CF0F9FD311C0CF0DCFD06990CF0DCFDBF
:10299000011C0CF0D9FD8823A86548462867E8503B
:1029A0001833E850514640466F610CF0E4FD04993D
:1029B0000CF0C7FD211C0CF0C4FD011C0CF0C4FD83
:1029C000099AE8626A64029B4A46EB654B466B676C
:1029D0008C230020EA501833EA500BB0F0BCBB4601
:1029E000B246A946A046F0BD0123F0B5E321474613
:1029F000CE469C46294B804605009946284E80B518
:102A00008900076846444144FA0F6F68D2077B008B
:102A10005B08346813435A08624064461C4201D084
:102A20004B465A4004C50436A942EDD1E323424641
:102A30009B00C626D458194B01259C46F6004644F7
:102A4000E20F4C68D20763005B08076813435A081B
:102A50007A401D4201D063465A40043004C1B0425E
:102A6000EED14246C62140460E4BC900D3581268EB
:102A7000DB0F52005208DB07415813435A084A4003
:102A8000DB0701D5054B5A404146064BCA50002290
:102A90000433CA50C0BCB946B046F0BDDFB0089997
:102AA00034060000BC090000F0B54546DE46574636
:102AB0004E46E0B53B4CD723A54434AA9446634424
:102AC0001B091B018A6805930B68019237921A68EB
:102AD000049006929A69339107921A6B38AC089267
:102AE0009A6C09921A6E0B929A6F0C9290229A58D5
:102AF0000D925A680E92DA690F925A6B1092DA6C44
:102B000011925A6E1292DA6F139294229A5814927A
:102B10009A6815921A6A16929A6B17921A6D189201
:102B20009A6E199280229A581A9298229A581B9259
:102B3000DA681C925A6A1D92DA6B1E925A6D1F92C5
:102B4000DA6E209284229A5821929C229A582292DC
:102B50001A6923929A6A24921A6C25929A6D269287
:102B60001A6F279288229A582892A0229A5829925E
:102B70005A692A92DA6A2B925A6C2C92DA6D2D924B
:102B80005A6F2E928C229A582F92A4229B583093DF
:102B90004B68984638AB3293C423454643440A9366
:102BA00002E0C0469CFDFFFFEA68A96991462A69D8
:102BB000AB6890466A69099803914946019302926D
:102BC0000CF0D9FC414682460B980CF0D4FC011C59
:102BD00050460CF0B9FC029982460C980CF0CBFCE4
:102BE000039983460D980CF0C6FC011C58460CF066
:102BF000ABFC011C50460CF0A7FC6F688246391CE8
:102C000007980CF0B8FC0199834608980CF0B3FCC7
:102C1000011C58460CF098FC2E688346311C06981F
:102C20000CF0A9FC011C58460CF08EFC011C50460F
:102C30000CF08AFC4946206011980CF09CFC41463F
:102C4000824612980CF097FC011C50460CF07CFC5C
:102C50000299824613980CF08EFC039983461498CF
:102C60000CF089FC011C58460CF06EFC011C50460F
:102C70000CF06AFC391C82460F980CF07CFC019920
:102C8000834610980CF077FC011C58460CF05CFC55
:102C9000311C83460E980CF06EFC011C58460CF05B
:102CA00053FC011C50460CF04FFC494660601898DC
:102CB0000CF061FC4146824619980CF05CFC011C4A
:102CC00050460CF041FC029982461A980CF053FCD5
:102CD000039983461B980CF04EFC011C58460CF0DF
:102CE00033FC011C50460CF02FFC391C8246169810
:102CF0000CF041FC0199834617980CF03CFC011C38
:102D000058460CF021FC311C834615980CF033FC1E
:102D1000011C58460CF018FC011C50460CF014FC29
:102D20004946A0601F980CF026FC41468246209838
:102D30000CF021FC011C50460CF006FC0299824666
:102D400021980CF018FC0399834622980CF013FC90
:102D5000011C58460CF0F8FB011C50460CF0F4FB2B
:102D6000391C82461D980CF006FC019983461E987A
:102D70000CF001FC011C58460CF0E6FB311C8346AC
:102D80001C980CF0F8FB011C58460CF0DDFB011CF4
:102D900050460CF0D9FB4946E06026980CF0EBFB5E
:102DA0004146824627980CF0E6FB011C50460CF089
:102DB000CBFB0299824628980CF0DDFB03998346F1
:102DC00029980CF0D8FB011C58460CF0BDFB011CE7
:102DD00050460CF0B9FB391C824624980CF0CBFB12
:102DE0000199834625980CF0C6FB011C58460CF04F
:102DF000ABFB311C834623980CF0BDFB011C5846ED
:102E00000CF0A2FB011C50460CF09EFB2D9920619A
:102E100048460CF0B0FB2E99814640460CF0ABFBC7
:102E2000011C48460CF090FB2F99804602980CF04C
:102E3000A2FB3099814603980CF09DFB011C48468B
:102E40000CF082FB011C40460CF07EFB391C8046D6
:102E50002B980CF090FB2C99071C01980CF08BFB25
:102E6000011C381C0CF070FB311C071C2A980CF05C
:102E700082FB011C381C0CF067FB011C40460CF067
:102E800063FB0A9B1C3560611834AB4200D08BE6B3
:102E9000379B1A68629308929A6909921A6B0A9290
:102EA0009A6C0B921A6E0C929A6F0D9290229A580D
:102EB0000E925A680F92DA6910925A6B1192DA6C7C
:102EC00012925A6E1392DA6F149294229A581592B3
:102ED0009A6816921A6A17929A6B18921A6D19923A
:102EE0009A6E1A9280229A581B9298229A581C9293
:102EF000DA681D925A6A1E92DA6B1F925A6D2092FE
:102F0000DA6E219284229A5822929C229A58239215
:102F10001A6924929A6A25921A6C26929A6D059CD7
:102F200027921A6F2034289288229A58A146299213
:102F3000A0229A582A925A692B92DA6A2C925A6CD9
:102F40002D92DA6D2E925A6F2F928C229A583092CF
:102F5000A4229B5831935CAB06933EAB0793329B04
:102F6000984643464246414640461B689569019350
:102F7000069B146B096E926C40CB876F0291101CFC
:102F80000B99039206930CF0F6FA0C99824602987C
:102F90000CF0F1FA011C50460CF0D6FA0D9982465D
:102FA000381C0CF0E8FA0E998346301C0CF0E3FA5A
:102FB000011C58460CF0C8FA011C50460CF0C4FA2B
:102FC00009998246281C0CF0D6FA0A998346201CDF
:102FD0000CF0D1FA011C58460CF0B6FA0899834659
:102FE00001980CF0C8FA011C58460CF0ADFA011C0F
:102FF00050460CF0A9FA4B461299186003980CF051
:10300000BAFA1399824602980CF0B5FA011C5046A0
:103010000CF09AFA14998246381C0CF0ACFA159907
:103020008346301C0CF0A7FA011C58460CF08CFAB1
:10303000011C50460CF088FA10998246281C0CF0AE
:103040009AFA11998346201C0CF095FA011C5846F7
:103050000CF07AFA0F99834601980CF08CFA011C57
:1030600058460CF071FA011C50460CF06DFA4B46B4
:103070001999586003980CF07EFA1A9982460298C2
:103080000CF079FA011C50460CF05EFA1B9982464E
:10309000381C0CF070FA1C998346301C0CF06BFA4B
:1030A000011C58460CF050FA011C50460CF04CFA2A
:1030B00017998246281C0CF05EFA18998346201C4A
:1030C0000CF059FA011C58460CF03EFA169983464A
:1030D00001980CF050FA011C58460CF035FA011C0E
:1030E00050460CF031FA4B462099986003980CF04A
:1030F00042FA2199824602980CF03DFA011C504692
:103100000CF022FA22998246381C0CF034FA2399EA
:103110008346301C0CF02FFA011C58460CF014FAB0
:10312000011C50460CF010FA1E998246281C0CF027
:1031300022FA1F998346201C0CF01DFA011C5846E8
:103140000CF002FA1D99834601980CF014FA011C48
:1031500058460CF0F9F9011C50460CF0F5F94B46B5
:103160002799D86003980CF006FA289982460298AD
:103170000CF001FA011C50460CF0E6F92999824640
:10318000381C0CF0F8F92A998346301C0CF0F3F93E
:10319000011C58460CF0D8F9011C50460CF0D4F92B
:1031A00025998246281C0CF0E6F926998346201CB6
:1031B0000CF0E1F9011C58460CF0C6F9249983463D
:1031C00001980CF0D8F9011C58460CF0BDF9011C0F
:1031D00050460CF0B9F94B462E99186103980CF043
:1031E000CAF92F99824602980CF0C5F9011C504685
:1031F0000CF0AAF930998246381C0CF0BCF93199D0
:10320000071C301C0CF0B7F9011C381C0CF09CF9A1
:10321000011C50460CF098F92C99061C281C0CF047
:10322000AAF92D99051C201C0CF0A5F9011C281CDD
:103230000CF08AF92B99041C01980CF09CF9011CE4
:10324000201C0CF081F9011C301C0CF07DF94B4660
:10325000586104239C461433E0449C46079BE14498
:10326000984500D07DE6339B059DDC68296A20687F
:103270000CF06AF9049EA96B306060680CF064F988
:103280007060A068296D0CF05FF9B060E068A96E0D
:103290000CF05AF98023F0602069E95898460CF048
:1032A00053F998233061E95860690CF04DF9706169
:1032B000A069696A0CF048F9B061E069E96B0CF04B
:1032C00043F9F061206A696D0CF03EF93062E96EF5
:1032D000606A0CF039F984277062A06AE9590CF031
:1032E00033F99C23B062E958E06A0CF02DF9F062E2
:1032F000206BA96A0CF028F93063606B296C0CF024
:1033000023F97063A06BA96D0CF01EF9B063E06B3C
:10331000296F0CF019F9F0638826206CA9590CF07C
:1033200013F9049B1864A023606CE9580CF00CF9A5
:10333000049BE96A5864A06C0CF006F9049B696C64
:103340009864E06C0CF000F9049BE96DD864206D82
:103350000CF0FAF8049B696F1865606D0CF0F4F8D6
:103360008C25049A059B5065A06D59590CF0ECF81A
:10337000A423049A9065059AE06DD1580CF0E4F806
:10338000049B059AD865116B206E0CF0DDF8049B48
:10339000059A1866916C606E0CF0D6F8049B059A3D
:1033A0005866A06E116E0CF0CFF8049B059A9866D3
:1033B000E06E916F0CF0C8F8049B059AD8669023D4
:1033C000206FD1580CF0C0F8049B059A1867A82309
:1033D000606FD1580CF0B8F8049B059A5867A16F3C
:1033E000506B0CF0B1F8049B059A9867E16FD06CB4
:1033F0000CF0AAF84146049B059AD8676158506EB4
:103400000CF0A2F84146049B059A5850E159D06F40
:103410000CF09AF8049BD8519423059FA159F858B1
:103420000CF092F8049B9851AC236159F8580CF0B9
:103430008BF8049B585199239B009D44F0BCBB46DC
:10344000B246A946A046F0BDF0B5DE4657464E4608
:1034500045460400E0B5036987B058006369400839
:10346000590049080CF070F8E368590049080CF05D
:103470006BF86368051C5800A368400859004908A8
:103480000CF062F82368590049080CF05DF8011C43
:10349000281C0CF059F8A36A051C5800E36A400880
:1034A000590049080CF050F8636A590049080CF0BB
:1034B0004BF8E369061C5800236A40085900490884
:1034C0000CF042F8A369590049080CF03DF8011CC2
:1034D000301C0CF039F8236C071C5800636C400852
:1034E000590049080CF030F8E36B590049080CF01A
:1034F0002BF8636B061C5800A36B40085900490861
:103500000CF022F8236B590049080CF01DF8011C3F
:10351000301C0CF019F8061C011C381C0CF062F869
:10352000002800D13E1C311C281C0CF05BF8002840
:1035300000D12E1CA36D5800E36D400859004908C6
:103540000CF002F8636D590049080BF0FDFFE36CC5
:10355000051C5800236D4008590049080BF0F4FF82
:10356000A36C590049080BF0EFFF011C281C0BF05D
:10357000EBFF236F071C5800636F40085900490890
:103580000BF0E2FFE36E590049080BF0DDFF636EBC
:10359000051C5800A36E4008590049080BF0D4FFE1
:1035A000236E590049080BF0CFFF011C281C0BF0BB
:1035B000CBFF88238046E0580433E158400049009F
:1035C000490840080BF0C0FF8423E158490049082E
:1035D0000BF0BAFFE36F051C58008023E158400848
:1035E000490049080BF0B0FFA36F590049080BF0E0
:1035F000ABFF011C281C0BF0A7FF051C011C40465B
:103600000BF0F0FF002800D14546291C381C0BF0B8
:10361000E9FF002800D13D1C291C301C0BF0E2FF03
:10362000002800D1351CC0232100E55001AABA3B77
:1036300002A8A83104930294FDF7AEF80121C42238
:10364000019B98260B405B428B430133A354343AD1
:103650009246002250469C2722509432A150934615
:10366000923AA2510132E2519D32944660469C3A10
:103670002250A03291469F3A90464A464046230047
:10368000A05048461832A258903392009A181568F4
:103690002550404610606046B8222058A258804607
:1036A000604692009A181568255040461060B42272
:1036B000E059A258844692009A1810685D46E0517D
:1036C00060461060B022A258A75992009A1810685C
:1036D000A0511760AC225846A258265892009A185A
:1036E000106860511660A822A258554692009B1897
:1036F00052461868A25860511A60C523E15407B0B9
:10370000F0BCBB46B246A946A046F0BDC02300228D
:1037100010B5C25000220433C2520B68040003608B
:103720004B6843608B688360CB68C3600B6903613F
:103730004B6943618B698361CB69C3610B6A036227
:103740004B6A43628B6A8362CB6AC3620B6B03630F
:103750004B6B43638B6B8363CB6BC3630B6C0364F7
:103760004B6C43648B6C8364CB6CC3640B6D0365DF
:103770004B6D43658B6D8365CB6DC3650B6E0366C7
:103780004B6E43668B6E8366CB6EC3660B6F0367AF
:103790004B6F43678B6F8367CB6FC3678023CA58B8
:1037A000C2500433CA58C2500433CA58C2500433FA
:1037B000CA58C250FFF748FE200010BDF0B5DE46E3
:1037C0004E4645465746E0B5214C9146A5443AAA97
:1037D00094460A0031931F4B3B9063441B091B0125
:1037E0003A919846D3AB13CA13C313CA13C31268D2
:1037F000D3A91A60184B194A1B6847A80493184BA1
:1038000047AC1B680193174B1B6805930093049BFF
:10381000FEF790FF47ABD3934B46D49347ABD5937A
:103820003AAA8323944686201B0163441B68C00088
:103830004044A2AAD3A9D6930990FFF735F96BAB00
:10384000089343460A934B463094A1461C000BE074
:1038500014F7FFFF47030000DC1403200AE81C41B3
:10386000D0140320D41403204B464E461B68B76F78
:103870000493089B494640CB48464A460893A823F0
:10388000896C006E9569126B06910790E158301CA7
:1038900005920BF070FE8C238246E158381C0BF029
:1038A0006AFE011C50460BF04FFE216F82460798BE
:1038B0000BF061FE616D834606980BF05CFE011C07
:1038C00058460BF041FE011C50460BF03DFEA16B2B
:1038D000824605980BF04FFEE1698346281C0BF0E9
:1038E0004AFE011C58460BF02FFE216883460498BF
:1038F0000BF041FE011C58460BF026FE011C504601
:103900000BF022FE43461860AC23301CE1580BF04C
:1039100032FE90238246E158381C0BF02CFE011C2D
:1039200050460BF011FE616F824607980BF023FEA4
:10393000A16D834606980BF01EFE011C58460BF045
:1039400003FE011C50460BF0FFFDE16B824605981B
:103950000BF011FE216A8346281C0BF00CFE011CA3
:1039600058460BF0F1FD6168834604980BF003FEA6
:10397000011C58460BF0E8FD011C50460BF0E4FD1D
:1039800043465860B023301CE1580BF0F4FD9423FB
:103990008246E158381C0BF0EEFD011C50460BF03E
:1039A000D3FDA16F824607980BF0E5FDE16D8346DC
:1039B00006980BF0E0FD011C58460BF0C5FD011CFC
:1039C00050460BF0C1FD216C824605980BF0D3FDEB
:1039D000616A8346281C0BF0CEFD011C58460BF093
:1039E000B3FDA168834604980BF0C5FD011C584641
:1039F0000BF0AAFD011C50460BF0A6FD4346986053
:103A0000B423301CE1580BF0B6FD98238246E158F0
:103A1000381C0BF0B0FD011C50460BF095FDE16F1A
:103A2000824607980BF0A7FD216E834606980BF09F
:103A3000A2FD011C58460BF087FD011C50460BF0FF
:103A400083FD616C824605980BF095FDA16A834663
:103A5000281C0BF090FD011C58460BF075FDE16829
:103A6000834604980BF087FD011C58460BF06CFD53
:103A7000011C50460BF068FD4346D860B823301C4B
:103A8000E1580BF078FD9C238246E158381C0BF07E
:103A900072FD011C50460BF057FD80238246E15811
:103AA00007980BF068FD616E834606980BF063FD86
:103AB000011C58460BF048FD011C50460BF044FD1C
:103AC000A16C824605980BF056FDE16A8346281CDE
:103AD0000BF051FD011C58460BF036FD2169834661
:103AE00004980BF048FD011C58460BF02DFD011CFD
:103AF00050460BF029FD43461861BC23301CE158A9
:103B00000BF039FDA0238246E158381C0BF033FD41
:103B1000011C50460BF018FD84238246E15807989B
:103B20000BF029FDA16E834606980BF024FD011CC5
:103B300058460BF009FD011C50460BF005FDE16CE9
:103B4000824605980BF017FD216B8346281C0BF06D
:103B500012FD011C58460BF0F7FC6169834604987E
:103B60000BF009FD011C58460BF0EEFC011C504601
:103B70000BF0EAFC4346E16E586106980BF0FBFC43
:103B800088238246E15807980BF0F5FC011C50464B
:103B90000BF0DAFCA4238246E158381C0BF0EBFC56
:103BA000C023071CE158301C0BF0E5FC011C381C3D
:103BB0000BF0CAFC011C50460BF0C6FC616B061CE6
:103BC000281C0BF0D8FC216D051C05980BF0D3FCCC
:103BD000011C281C0BF0B8FCA169051C04980BF013
:103BE000CAFC011C281C0BF0AFFC011C301C0BF0A4
:103BF000ABFC4346986104239C461833E1449C4641
:103C00004DABE0444B4500D02EE60A9BA146D8249C
:103C10009846A427A4004444BF00474420000999C3
:103C2000FFF774FD210090223800C8240BF052FFEA
:103C3000FC21A400444489004144182220000BF0D8
:103C400049FFCE2081218000C90041441822404410
:103C50000BF040FF8422D423D200424412689B0020
:103C600043441A60D523874A4546424412889B0044
:103C70004344FE211A8000232268B0359200AA181E
:103C80008905116093611363936413669367C92276
:103C900092004244126844469200AA18136091614F
:103CA0001363936413669367CA22920042441268B6
:103CB00006269200AA181360936111639364136639
:103CC0009367CB2292004244126806209200AA1801
:103CD000136093611363916413669367CC2292001F
:103CE000424412689200AA181360936113639364AC
:103CF00011669367CD229200424412689200AA187E
:103D000013609361136393641366A8235B009B465F
:103D1000916742465946E41820334344A660E66062
:103D2000266153508022920042444B396260924691
:103D300004933A0006230294FF3901960095FDF79B
:103D400011FD42465946049BA660E6602661535029
:103D500053464B3963603A000623029406200196CD
:103D60000095FF39FDF762F943461B688C220793E3
:103D70004346DB69D3AC089343469B6B09934346A8
:103D80005B6D0A9343461B6F0B9343469B5804326B
:103D90000C9343465B68179343461B6A189343464C
:103DA000DB6B0D9343469B6D0E9343465B6F0F9306
:103DB00043469B580432109343469B6811934346F5
:103DC0005B6A129343461B6C13934346DB6D14935B
:103DD00043469B6F159343469B58043216934346C4
:103DE000DB68199343469B6A069343465B6C1A93C0
:103DF00043461B6E1B934346DB6F1C9343469B5805
:103E0000183A1D9343461B691E934346DB6A1F9372
:103E100043469B6C209343465B6E219343469B58DD
:103E20001C32229343469B58183A239343465B69BE
:103E3000249343461B6B25934346DB6C26934346F2
:103E40009B6E279343469B581C32289343469B58AE
:103E5000183A299343469B692A9343465B6B2B93FD
:103E600043461B6D2C934346DB6E2D9343469B5874
:103E70001C322E9343469B58A8462F934B463293B1
:103E800002E0C0462404000043461F685B684246C7
:103E90009946434641469B68D2680E694D69089829
:103EA0004946049305920BF066FB049982460998F3
:103EB0000BF061FB011C50460BF046FB391C82469F
:103EC00007980BF058FB011C50460BF03DFB311CD2
:103ED00082460B980BF04FFB291C83460C980BF085
:103EE0004AFB011C58460BF02FFB059983460A98A4
:103EF0000BF041FB011C58460BF026FB011C504601
:103F00000BF022FB4946206018980BF034FB049913
:103F100082460D980BF02FFB011C50460BF014FB52
:103F2000391C824617980BF026FB011C50460BF0FB
:103F30000BFB311C82460F980BF01DFB291C83469E
:103F400010980BF018FB011C58460BF0FDFA059970
:103F500083460E980BF00FFB011C58460BF0F4FA49
:103F6000011C50460BF0F0FA4946606012980BF0C5
:103F700002FB0499824613980BF0FDFA011C50468F
:103F80000BF0E2FA391C824611980BF0F4FA011C8E
:103F900050460BF0D9FA311C824615980BF0EBFA1B
:103FA000291C834616980BF0E6FA011C58460BF0C4
:103FB000CBFA0599834614980BF0DDFA011C58469C
:103FC0000BF0C2FA011C50460BF0BEFA4946A06045
:103FD00006980BF0D0FA049982461A980BF0CBFAA7
:103FE000011C50460BF0B0FA391C824619980BF0B0
:103FF000C2FA011C50460BF0A7FA311C82461C98ED
:104000000BF0B9FA291C83461D980BF0B4FA011C79
:1040100058460BF099FA059983461B980BF0ABFABA
:10402000011C58460BF090FA011C50460BF08CFA1C
:104030004946E0601F980BF09EFA0499824620984A
:104040000BF099FA011C50460BF07EFA391C82469F
:104050001E980BF090FA011C50460BF075FA311CBB
:10406000824622980BF087FA291C834623980BF08E
:1040700082FA011C58460BF067FA0599834621988D
:104080000BF079FA011C58460BF05EFA011C504601
:104090000BF05AFA4946206125980BF06CFA049906
:1040A000824626980BF067FA011C50460BF04CFA3A
:1040B000391C824624980BF05EFA011C50460BF026
:1040C00043FA311C824628980BF055FA291C834686
:1040D00029980BF050FA011C58460BF035FA059957
:1040E000834627980BF047FA011C58460BF02CFA30
:1040F000011C50460BF028FA494660612B980BF0E2
:104100003AFA049981462C980BF035FA011C48467E
:104110000BF01AFA391C81462A980BF02CFA011C74
:1041200048460BF011FA311C071C2E980BF023FAAD
:10413000291C061C2F980BF01EFA011C301C0BF0DA
:1041400003FA0599051C2D980BF015FA011C281C83
:104150000BF0FAF9011C381C0BF0F6F918239C46F9
:10416000A061FDAB1C34E044A34200D08CE6329B3E
:10417000D49A9946D39BD599D69CD79DD89ED99F42
:1041800006930792DA9BDB9A08910994DC99DD9CEF
:104190000A950B96DE9DDF9E0C970D93E09FE19BA9
:1041A0000E92E29A0F911094119512961397149310
:1041B0001592E399E49CE59DE69EE79FE89BE99ACA
:1041C00016911794EA99EB9C18951996EC9DED9E23
:1041D0001A971B93EE9FEF9B1C921D91F09AF199F9
:1041E0001E94F29C20962197229323922491259449
:1041F0001F95F39DF49EF59FF79AF69BF899F99C0D
:1042000026952796FA9DFB9E2897FC9F2A923A9A1C
:1042100029932B912C942D952E962F97D3AB32CAA0
:1042200032C332CA32C31168D3AC1960FD49FE4BA8
:1042300009681B680191FD49FD4A09682000009149
:1042400041A9FDF7D7FF319F419938680BF079F903
:104250004299834678680BF074F943998246B868AE
:104260000BF06FF94499041CF8680BF06AF9459952
:10427000051C38690BF065F94699061C78690BF046
:1042800060F9071C011C2A980BF075F9311C804657
:1042900023980BF070F9011C40460BF055F9291CCE
:1042A00080461C980BF067F9011C40460BF04CF956
:1042B000211C804615980BF05EF9514604900E982B
:1042C0000BF059F9011C04980BF03EF95946049083
:1042D00007980BF050F9011C04980BF035F9011CFC
:1042E00040460BF031F93A9A51680BF02DF9391C20
:1042F00004902B980BF03FF9311C804624980BF06A
:104300003AF9011C40460BF01FF9291C80461D9804
:104310000BF031F9011C40460BF016F9211C8046C8
:1043200016980BF028F9514605900F980BF023F9D9
:10433000011C05980BF008F95946059008980BF0F8
:104340001AF9011C05980BF0FFF8011C40460BF010
:10435000FBF83A9A91680BF0F7F8391C05902C9805
:104360000BF009F9311C804625980BF004F9011C6B
:1043700040460BF0E9F8291C80461E980BF0FBF82C
:10438000011C40460BF0E0F8211C804617980BF00A
:10439000F2F85146319010980BF0EDF8011C31986D
:1043A0000BF0D2F85946319009980BF0E4F8011C53
:1043B00031980BF0C9F8011C40460BF0C5F83A9A49
:1043C000D1680BF0C1F8391C31902D980BF0D3F85F
:1043D000311C804626980BF0CEF8011C40460BF0AD
:1043E000B3F8291C80461F980BF0C5F8011C404605
:1043F0000BF0AAF8211C804618980BF0BCF8514627
:10440000329011980BF0B7F8011C32980BF09CF821
:10441000594632900A980BF0AEF8011C32980BF016
:1044200093F8011C40460BF08FF83A9A11690BF093
:104430008BF8391C32902E980BF09DF8311C804679
:1044400027980BF098F8011C40460BF07DF8291CCA
:10445000804620980BF08FF8011C40460BF074F852
:10446000211C804619980BF086F85146339012981B
:104470000BF081F8011C33980BF066F85946339025
:104480000B980BF078F8011C33980BF05DF8011CC9
:1044900040460BF059F83A9A51690BF055F85146DD
:1044A000339013980BF067F8211C80461A980BF094
:1044B00062F8011C40460BF047F8594680460C98BC
:1044C0000BF059F8011C40460BF03EF8311C8046B9
:1044D00028980BF050F8391C34902F980BF04BF8BB
:1044E000011C34980BF030F8291C349021980BF003
:1044F00042F8011C34980BF027F8011C40460BF0E1
:1045000023F83A9A91690BF01FF8391C80462998D4
:104510000BF031F8311C071C22980BF02CF8011C11
:10452000381C0BF011F8291C061C1B980BF023F803
:10453000011C301C0BF008F8211C051C14980BF012
:104540001AF85146041C0D980BF015F8011C201C9C
:104550000AF0FAFF5946041C06980BF00CF8011CEF
:10456000201C0AF0F1FF011C281C0AF0EDFF3A9A0A
:10457000D3AC11680AF0E8FF3B9B049A18605A60BC
:10458000059A9A60319ADA60329A1A61339A5A61BE
:1045900042469A614B461B684A46A2934B465B686B
:1045A000A3934B469B68A4934B46DB68A5934B466D
:1045B0001B69A6934B465B69A7934B469B69A893DF
:1045C0004B46DB69A9934B461B6AAA934B465B6A31
:1045D000AB934B469B6AAC934B46DB6AAD934B4621
:1045E0001B6BAE934B465B6BAF934B469B6BB09391
:1045F0004B46DB6BB1934B461B6CB2934B465B6CEB
:10460000B3934B469B6CB4934B46DB6CB5934B46D4
:104610001B6DB6934B465B6DB7934B469B6DB89342
:104620004B4607E0D0140320DC140320D4140320ED
:104630000AE81C41DB6DB9934B461B6EBA934B469F
:104640005B6EBB934B469B6EBC934B46DB6EBD9340
:104650004B461B6FBE934B465B6FBF934B469B6FA6
:10466000C0934B46DB6FC1938023D358C2938423FE
:10467000D358C3938823D358C4938C23D358C5935A
:104680009023D358C6939423D358C7939823D358D1
:10469000C8939C23D358C993A023D358CA93A42367
:1046A000D358CB93A823D358CC93AC23D358CD93D2
:1046B000B023D358CE93B423D358CF93B823D35831
:1046C000D093BC23D358D193C023D358D293309BDB
:1046D0003092984643461F685B6842469946434677
:1046E00041469B68D2680E694D690D98494604930E
:1046F00005920AF040FF0499824614980AF03BFFA5
:10470000011C50460AF020FF391C824606980AF028
:1047100032FF011C50460AF017FF311C82462298D6
:104720000AF029FF291C834629980AF024FF011C5E
:1047300058460AF009FF059983461B980AF01BFFAB
:10474000011C58460AF000FF011C50460AF0FCFE0E
:10475000494620600E980AF00EFF0499824615988B
:104760000AF009FF011C50460AF0EEFE391C824691
:1047700007980AF000FF011C50460AF0E5FE311CC4
:10478000824623980AF0F7FE291C83462A980AF0ED
:10479000F2FE011C58460AF0D7FE059983461C9884
:1047A0000AF0E9FE011C58460AF0CEFE011C5046F4
:1047B0000AF0CAFE494660600F980AF0DCFE0499D0
:1047C000824616980AF0D7FE011C50460AF0BCFE3D
:1047D000391C824608980AF0CEFE011C50460AF0A9
:1047E000B3FE311C824624980AF0C5FE291C83467C
:1047F0002B980AF0C0FE011C58460AF0A5FE059948
:1048000083461D980AF0B7FE011C58460AF09CFE2C
:10481000011C50460AF098FE4946A06010980AF024
:10482000AAFE0499824617980AF0A5FE011C50467C
:104830000AF08AFE391C824609980AF09CFE011C87
:1048400050460AF081FE311C824625980AF093FEFC
:10485000291C83462C980AF08EFE011C58460AF04B
:1048600073FE059983461E980AF085FE011C584682
:104870000AF06AFE011C50460AF066FE4946E060F6
:1048800011980AF078FE0499824618980AF073FE8F
:10489000011C50460AF058FE391C82460A980AF05C
:1048A0006AFE011C50460AF04FFE311C82462698D3
:1048B0000AF061FE291C83462D980AF05CFE011C5B
:1048C00058460AF041FE059983461F980AF053FEA8
:1048D000011C58460AF038FE011C50460AF034FE0E
:1048E0004946206112980AF046FE049982461998BA
:1048F0000AF041FE011C50460AF026FE391C824691
:104900000B980AF038FE011C50460AF01DFE311CBF
:10491000824627980AF02FFE291C83462E980AF01B
:104920002AFE011C58460AF00FFE0599834620987E
:104930000AF021FE011C58460AF006FE011C5046F2
:104940000AF002FE4946606113980AF014FE0499C9
:1049500081461A980AF00FFE011C48460AF0F4FD41
:10496000391C81460C980AF006FE011C48460AF0E4
:10497000EBFD311C071C28980AF0FDFD291C061CC4
:104980002F980AF0F8FD011C301C0AF0DDFD059996
:10499000051C21980AF0EFFD011C281C0AF0D4FD2B
:1049A000011C381C0AF0D0FD18239C46FFABA06107
:1049B00014331C34E044A34200D08BE6309BA2ADFC
:1049C00099463C93C4234C46C8464B4408930794ED
:1049D0004246D26843464146914642469E694C68EB
:1049E000096892685F691B690491301CFD99069300
:1049F00005920AF0C0FDF6998246381C0AF0BBFD0C
:104A0000011C50460AF0A0FDEF99824606980AF074
:104A1000B2FDE899834648460AF0ADFD011C5846B0
:104A20000AF092FD011C50460AF08EFDE199824683
:104A300005980AF0A0FDDA998346201C0AF09BFD38
:104A4000011C58460AF080FDD399834604980AF069
:104A500092FD011C58460AF077FD011C50460AF0F1
:104A600073FD011C28680AF06CFD2860FE99301C5B
:104A70000AF081FDF7998246381C0AF07CFD011C82
:104A800050460AF061FDF099824606980AF073FDDF
:104A9000E999834648460AF06EFD011C58460AF023
:104AA00053FD011C50460AF04FFDE29982460598DD
:104AB0000AF061FDDB998346201C0AF05CFD011CB5
:104AC00058460AF041FDD499834604980AF053FDF4
:104AD000011C58460AF038FD011C50460AF034FD0E
:104AE000011C68680AF02DFDFF996860301C0AF00F
:104AF00042FDF8998246381C0AF03DFD011C5046E3
:104B00000AF022FDF199824606980AF034FDEA99EE
:104B1000834648460AF02FFD011C58460AF014FD52
:104B2000011C50460AF010FDE399824605980AF0F0
:104B300022FDDC998346201C0AF01DFD011C58460D
:104B40000AF002FDD599834604980AF014FD011C71
:104B500058460AF0F9FC011C50460AF0F5FC011C0D
:104B6000A8680AF0EEFCFFAB5968A860301C04335B
:104B70000AF001FDF9998246381C0AF0FCFC011C80
:104B800050460AF0E1FCF299824606980AF0F3FCDE
:104B9000EB99834648460AF0EEFC011C58460AF0A1
:104BA000D3FC011C50460AF0CFFCE49982460598DC
:104BB0000AF0E1FCDD998346201C0AF0DCFC011CB4
:104BC00058460AF0C1FCD699834604980AF0D3FCF3
:104BD000011C58460AF0B8FC011C50460AF0B4FC0F
:104BE000011CE8680AF0ADFCFFAB9968E860301C76
:104BF00008330AF0C0FCFA998246381C0AF0BBFC64
:104C0000011C50460AF0A0FCF399824606980AF06F
:104C1000B2FCEC99834648460AF0ADFC011C5846AC
:104C20000AF092FC011C50460AF08EFCE59982467F
:104C300005980AF0A0FCDE998346201C0AF09BFC34
:104C4000011C58460AF080FCD799834604980AF064
:104C500092FC011C58460AF077FC011C50460AF0F1
:104C600073FC011C28690AF06CFCFFABD968286151
:104C7000301C0C330AF07FFCFB998246381C0AF08A
:104C80007AFC011C50460AF05FFCF49982460698B3
:104C90000AF071FCED99834648460AF06CFC011C51
:104CA00058460AF051FC011C50460AF04DFCE699AA
:104CB000824605980AF05FFCDF998346201C0AF0C3
:104CC0005AFC011C58460AF03FFCD89983460498C8
:104CD0000AF051FC011C58460AF036FC011C5046F3
:104CE0000AF032FC011C68690AF02BFCEE9968613D
:104CF00048460AF040FCF599814606980AF03BFCCC
:104D0000011C48460AF020FCFC998146381C0AF038
:104D100032FCFFAB1969071C301C10330AF02BFC66
:104D2000011C381C0AF010FC011C48460AF00CFC5F
:104D3000E099061C201C0AF01EFCE799041C05984B
:104D40000AF019FC011C201C0AF0FEFBD999041C76
:104D500004980AF010FC011C201C0AF0F5FB011C51
:104D6000301C0AF0F1FB011CA8690AF0EAFB1C23C5
:104D70009C46089BE044A8611C35984500D027E676
:104D8000079BA29A99461A60A39A5A60A49A9A60BD
:104D9000A59ADA60A69A1A61A79A5A61A89A9A61A6
:104DA000A99ADA61AA9A1A62AB9A5A62AC9A9A6282
:104DB000AD9ADA62AE9A1A63AF9A5A63B09A9A635E
:104DC000B19ADA63B29A1A64B39A5A64B49A9A643A
:104DD000B59ADA64B69A1A65B79A5A65B89A9A6516
:104DE000B99ADA65BA9A1A66BB9A5A66BC9A9A66F2
:104DF000BD9ADA66BE9A1A67BF9A5A67C09A9A67CE
:104E0000C19ADA674A468023C299D150C3990433C4
:104E1000D150C4990433D150C5990433D150C699A7
:104E20000433D150C7990433D150C8990433D150B9
:104E3000C9990433D150CA990433D150CB99043362
:104E4000D150CC990433D150CD990433D150CE995F
:104E50000433D150CF990433D150D0990433D15079
:104E6000D1990433D150D2990433D1503AAA9446FF
:104E70004F4BA2AA63441B6813CB13C24D4BD3AC58
:104E800063441B6807CB07C43A9B3B9D00934A4B86
:104E900028006344A2A91B68D3AAFDF789F82B0058
:104EA000D3AA23CB23C213CB13C23AA91B688C46C7
:104EB00013603EAA11003E4B63441B6831CB31C1E5
:104EC0003C4BA2A963441B6831CB31C13A4BD3A9F7
:104ED00063441B6871A80093A2ABFDF7CFFAD3AB74
:104EE00007931C00719B0993789B10937F9B1793EA
:104EF000869B1E938D9B2593949B2C939B9B339316
:104F0000729B0A93799B1193809B1893879B1F93A5
:104F10008E9B2693959B2D939C9B3493739B0B9315
:104F20007A9B1293819B1993889B20938F9B279345
:104F3000969B2E939D9B3593749B0C937B9B139315
:104F4000829B1A93899B2193909B2893979B2F93E5
:104F50009E9B3693759B0D937C9B1493839B1B9315
:104F60008A9B2293919B2993989B30939F9B379385
:104F7000769B0E937D9B1593849B1C938B9B239315
:104F8000929B2A93999B3193A09B3893779B0F9385
:104F90007E9B1693859B1D938C9B2493939B2B93B5
:104FA0009A9B3293A19B3C9D39934B463C9305E0E1
:104FB00028080000380800003C080000E868AE69D6
:104FC0008146A96828692B686A6880460691301C6A
:104FD0003399049305920AF0CEFA6F6982462C99B0
:104FE000381C0AF0C8FA011C50460AF0ADFA25999F
:104FF000824640460AF0BFFA1E99834648460AF0A8
:10500000BAFA011C58460AF09FFA011C50460AF0F1
:105010009BFA1799824606980AF0ADFA10998346D2
:1050200005980AF0A8FA011C58460AF08DFA099969
:10503000834604980AF09FFA011C58460AF084FA45
:10504000011C50460AF080FA34992060301C0AF0A6
:1050500092FA2D998246381C0AF08DFA011C5046AE
:105060000AF072FA2699824640460AF084FA1F999D
:10507000834648460AF07FFA011C58460AF064FA53
:10508000011C50460AF060FA1899824606980AF008
:1050900072FA1199834605980AF06DFA011C584678
:1050A0000AF052FA0A99834604980AF064FA011C3D
:1050B00058460AF049FA011C50460AF045FA35995B
:1050C0006060301C0AF057FA2E998246381C0AF0AC
:1050D00052FA011C50460AF037FA27998246404698
:1050E0000AF049FA2099834648460AF044FA011C1E
:1050F00058460AF029FA011C50460AF025FA199977
:10510000824606980AF037FA1299834605980AF003
:1051100032FA011C58460AF017FA0B998346049894
:105120000AF029FA011C58460AF00EFA011C5046F2
:105130000AF00AFA3699A060301C0AF01CFA2F997E
:105140008246381C0AF017FA011C50460AF0FCF996
:105150002899824640460AF00EFA2199834648462D
:105160000AF009FA011C58460AF0EEF9011C5046F3
:105170000AF0EAF91A99824606980AF0FCF913999E
:10518000834605980AF0F7F9011C58460AF0DCF945
:105190000C99834604980AF0EEF9011C58460AF06F
:1051A000D3F9011C50460AF0CFF93799E060301C62
:1051B0000AF0E1F930998246381C0AF0DCF9011C4A
:1051C00050460AF0C1F92999824640460AF0D3F9BF
:1051D0002299834648460AF0CEF9011C58460AF047
:1051E000B3F9011C50460AF0AFF91B9982460698A4
:1051F0000AF0C1F91499834605980AF0BCF9011C1C
:1052000058460AF0A1F90D99834604980AF0B3F9BB
:10521000011C58460AF098F9011C50460AF094F90E
:1052200038992061301C0AF0A6F931998246381C61
:105230000AF0A1F9011C50460AF086F92A99824623
:1052400040460AF098F92399834648460AF093F9B4
:10525000011C58460AF078F9011C50460AF074F90E
:105260001C99824606980AF086F915998346059896
:105270000AF081F9011C58460AF066F90E99834636
:1052800004980AF078F9011C58460AF05DF9011CEF
:1052900050460AF059F94946606124980AF06BF9C2
:1052A000414681462B980AF066F9011C48460AF0EF
:1052B0004BF9391C804632980AF05DF9311C071C05
:1052C00039980AF058F9011C381C0AF03DF9011C04
:1052D00040460AF039F90599061C16980AF04BF970
:1052E0000699071C1D980AF046F9011C381C0AF0A3
:1052F0002BF90499071C0F980AF03DF9011C381C82
:105300000AF022F9011C301C0AF01EF9089B1C351A
:10531000A0611C349D4200D050E63C9BA2AC994653
:10532000F6AB0693DAAB08934B463C943D93079B50
:10533000586D1A688146996B186F0492069A8046D8
:10534000059148461E99DD691768D6690AF013F978
:105350002599824640460AF00EF9011C50460AF093
:10536000F3F82C998246381C0AF005F933998346E4
:10537000301C0AF000F9011C58460AF0E5F8011C3F
:1053800050460AF0E1F810998246281C0AF0F3F81A
:105390001799834605980AF0EEF8011C58460AF062
:1053A000D3F80999834604980AF0E5F8011C584699
:1053B0000AF0CAF8011C50460AF0C6F820601F998E
:1053C00048460AF0D8F82699824640460AF0D3F8B3
:1053D000011C50460AF0B8F82D998246381C0AF094
:1053E000CAF834998346301C0AF0C5F8011C5846A7
:1053F0000AF0AAF8011C50460AF0A6F81199824654
:10540000281C0AF0B8F81899834605980AF0B3F8F2
:10541000011C58460AF098F80A99834604980AF045
:10542000AAF8011C58460AF08FF8011C50460AF0F1
:105430008BF82099606048460AF09DF827998246CB
:1054400040460AF098F8011C50460AF07DF82E9963
:105450008246381C0AF08FF835998346301C0AF0D2
:105460008AF8011C58460AF06FF8011C50460AF0F1
:105470006BF812998246281C0AF07DF81999834628
:1054800005980AF078F8011C58460AF05DF80B9967
:10549000834604980AF06FF8011C58460AF054F845
:1054A000011C50460AF050F82199A06048460AF0C5
:1054B00062F82899824640460AF05DF8011C504681
:1054C0000AF042F82F998246381C0AF054F83699AF
:1054D0008346301C0AF04FF8011C58460AF034F895
:1054E000011C50460AF030F813998246281C0AF035
:1054F00042F81A99834605980AF03DF8011C58466F
:105500000AF022F80C99834604980AF034F8011C3A
:1055100058460AF019F8011C50460AF015F822996D
:10552000E06048460AF027F82999824640460AF08A
:1055300022F8011C50460AF007F830998246381CC0
:105540000AF019F837998346301C0AF014F8011C48
:10555000584609F0F9FF011C504609F0F5FF14996F
:105560008246281C0AF007F81B99834605980AF022
:1055700002F8011C584609F0E7FF0D99834604988C
:1055800009F0F9FF011C584609F0DEFF011C5046E6
:1055900009F0DAFF23992061484609F0ECFF2A99C7
:1055A0008246404609F0E7FF011C504609F0CCFF57
:1055B00031998246381C09F0DEFF38998346301C49
:1055C00009F0D9FF011C584609F0BEFF011C5046E6
:1055D00009F0BAFF15998246281C09F0CCFF1C99E6
:1055E0008346059809F0C7FF011C584609F0ACFF37
:1055F0000E998346049809F0BEFF011C584609F035
:10560000A3FF011C504609F09FFF494660612498A2
:1056100009F0B1FF414681462B9809F0ACFF011C0F
:10562000484609F091FF391C8046329809F0A3FFE3
:10563000311C071C399809F09EFF011C381C09F029
:1056400083FF011C404609F07FFF291C061C1698A9
:1056500009F091FF0599051C1D9809F08CFF011CAC
:10566000281C09F071FF0499051C0F9809F083FFAD
:10567000011C281C09F068FF011C301C09F064FFA4
:10568000069A079B04320692089A0433A061079396
:105690001C34934200D04AE63AAA94463D9B764A8F
:1056A0009946754B624463441B6812681B68D3AC0F
:1056B0000793714B63441B68DB6908936E4B63442B
:1056C0001B689B6B09936C4B63441B685B6D0A936F
:1056D000694B63441B681B6F0B938C23D358664A3A
:1056E0000C93654B624463441B685B680D93624B8B
:1056F00063441B681B6A0E935F4B63441B68DB6B40
:105700000F935D4B63441B689B6D10935A4B63442E
:105710001B685B6F126811939023D358564A1293FB
:10572000554B624463441B6812689B681393524B49
:1057300063441B685B6A14934F4B63441B681B6C88
:1057400015934D4B63441B68DB6D16934A4B6344C2
:105750001B689B6F17939423D358474A1893464B63
:10576000624463441B68DB681993434B63441B68C2
:105770009B6A1A93404B63441B685B6C1B933E4BC4
:1057800063441B6812681B6E1C933B4B63441B688D
:10579000DB6F1D939823D358374A1E93364B6244D0
:1057A00063441B6812681B691F93334B63441B6877
:1057B000DB6A2093304B63441B689B6C21932E4B18
:1057C00063441B685B6E22938023D3582A4A239339
:1057D0009C2362441268D358274A2493264B624480
:1057E00063441B685B692593234B63441B681B6BF5
:1057F0002693214B126863441B68DB6C27931E4B76
:1058000063441B689B6E28938423D3581A4A2993B8
:10581000A02362441268D358174A2A93164B624455
:1058200063441B6812689B692B93134B63441B688A
:105830005B6B2C93104B63441B681B6D2D930E4BBD
:1058400063441B68DB6E2E938823D3580A4A2F9338
:10585000A42362441268D35822003093074B634458
:105860001B689846D3AB06939023434431934B4631
:1058700044469046329303E0340800002C080000B0
:105880006368E2689946A3680899484604930592BC
:1058900009F071FE09998246049809F06CFE011C1A
:1058A000504609F051FE276882460799381C09F0D6
:1058B00062FE011C504609F047FE266982460B999C
:1058C000301C09F058FE656983460C99281C09F0C4
:1058D00052FE011C584609F037FE0A998346059886
:1058E00009F049FE011C584609F02EFE011C5046E5
:1058F00009F02AFE414608600E99484609F03BFE31
:105900000F998246049809F036FE011C504609F0B2
:105910001BFE0D998246381C09F02DFE011C5046D5
:1059200009F012FE11998246301C09F024FE1299EA
:105930008346281C09F01FFE011C584609F004FE8E
:1059400010998346059809F016FE011C584609F087
:10595000FBFD011C504609F0F7FD414648601499D3
:10596000484609F008FE15998246049809F003FE9E
:10597000011C504609F0E8FD13998246381C09F0D5
:10598000FAFD011C504609F0DFFD17998246301CD4
:1059900009F0F1FD18998346281C09F0ECFD011C63
:1059A000584609F0D1FD16998346059809F0E3FDA4
:1059B000011C584609F0C8FD011C504609F0C4FD01
:1059C000414688601A99484609F0D5FD1B998246E0
:1059D000049809F0D0FD011C504609F0B5FD199955
:1059E0008246381C09F0C7FD011C504609F0ACFD89
:1059F0001D998246301C09F0BEFD1E998346281C65
:105A000009F0B9FD011C584609F09EFD1C9983461A
:105A1000059809F0B0FD011C584609F095FD011CE0
:105A2000504609F091FD4146C8602099484609F06A
:105A3000A2FD21998246049809F09DFD011C504663
:105A400009F082FD1F998246381C09F094FD011C63
:105A5000504609F079FD23998246301C09F08BFDF0
:105A600024998346281C09F086FD011C584609F03C
:105A70006BFD22998346059809F07DFD011C58466F
:105A800009F062FD011C504609F05EFD41460861C7
:105A90002699484609F06FFD27998246049809F037
:105AA0006AFD011C504609F04FFD25998246381CBD
:105AB00009F061FD011C504609F046FD2999824616
:105AC000301C09F058FD2A998346281C09F053FD23
:105AD000011C584609F038FD28998346059809F0BD
